:020000040000FA
:100000000C9423060C944B060C944B060C94E506BA
:100010000C944B060C944B060C944B060C944B061C
:100020000C944B060C944B060C944B060C944B060C
:100030000C944B060C944B060C944B060C944B06FC
:100040000C94232E0C944B060C94BB2A0C94ED2A92
:100050000C944B060C944B060C944B060C944B06DC
:100060000C94A3250C944B060C944B060C944B0655
:100070000C944A2B0C947C2B0C944B060C944B0642
:100080000C944B060C944B060C944B060C944B06AC
:100090000C944B060C944B060C944B060C944B069C
:1000A0000C9450280C944B060C944B060C944B0665
:1000B0000C944B0608000000BE922449123EABAAE5
:1000C000AA2ABECDCCCC4C3E00000080BEABAAAA72
:1000D000AA3E00000000BF000000803F00000000BA
:1000E00000084178D3BB4387D1133D190E3CC3BDF3
:1000F0004282AD2B3E68EC8276BED98FE1A93E4CA0
:1001000080EFFFBE01C4FF7F3F00000000004220DF
:10011000556E7465726272656368756E6700412022
:10012000556E7465726272656368756E6700422011
:100130004B75727A7363686C7573730041204B75ED
:10014000727A7363686C7573730042204B75727AB0
:100150007363686C757373206E616368204D61739F
:1001600073650041204B75727A7363686C757373A5
:10017000206E616368204D6173736500C39C626586
:100180007274656D7065726174757200566F727706
:1001900061726E756E6720C39C62657274656D7066
:1001A0006572617475720043004F656C74656D70A3
:1001B0002000250053706572726772616420004BE5
:1001C00075727A7363686C75737320566F726C61A5
:1001D000646570756D706500616C6C7261646275E8
:1001E000732E636F6D0048616C64657820436F6E99
:1001F00074726F6C6C6572005F0003020405030586
:10020000060F11FFFC0CFC0CFC01D7040B059C2015
:100210000500184B2107C10C4BBC082208448A4D2D
:10022000444E012317B808D345611446D13044C564
:10023000288CA261888A511865002418F7EAD285B3
:10024000831245522485492AAB491849915419C44F
:1002500038032516CC08DDAC51D64FE99483399686
:1002600083D11A65FD942E002616CA08D7E9511AC3
:10027000B646B99E4459254AB3542B6563002708F6
:100280004288470C4901280C03CB4C255125EAB77D
:10029000A816290D03CB4C64512DEA97A812012A08
:1002A0000A55784D552A53520B2B12990855E6489A
:1002B0008EE448381C7324477224042C0842EAC890
:1002C0005414002D0714484B0C012E06210C49082C
:1002D0002F0CC408CB95B2A6AC94D5003010C70A39
:1002E000536DA52C497D4DB228CB26003109C30E94
:1002F000535596A83F3210C70A536D95548DD3A21B
:1003000098C6F130043310C70A536D9554ADEDB95A
:10031000AA265936013413C80853AA499A84511899
:10032000659DC26818D4BC043511C70A530D529C90
:10033000C643568F6335C9B2093612C70A530D51E9
:10034000A8CAC9A425A96B92651300370FC8085322
:100350001CF4B81EE7715ECE53003812C70A536D05
:1003600095544DB26CABA4D624CB26003911C70AE4
:10037000536D95D435C9A42556C56888003A0791B0
:100380000C49A8023B0AB2EAC8D4C12451003C0E71
:100390009908D5ABCE39A4433AA443023D0A482874
:1003A000551C74D230083E0F990A55E8900EE9901A
:1003B0000EC5AA3B003F0EC70A536D95548DD3E678
:1003C0001CAE014023EDEAE20EB928E648140E49BE
:1003D00014699116465298496126855112994A939B
:1003E00096C3AA3C88004117CA0857EA881EC5511F
:1003F0001CA561DB304871142739A223014215C9BD
:100400000A57DCD2284EE2248D86218A93DC3919E2
:1004100086084318CA0A590EA118E5498EE4500E01
:10042000E5508EE5501E89E910014417CA0A591C8F
:1004300053294FF2244774444774444FF22495865D
:1004400011450CC80A57BCB70FF7EEC320460CC7BE
:100450000A551CE4E661907B064717CA0A5BAE9A10
:10046000942739924339140E3B524F62494BC229AB
:10047000480CC90A59E4DE8783EE7B004906C10AAD
:10048000497C4A0BC608D1F6AB684C86044B15C8AC
:100490000A57C46A124659294C44296B8CD2244D00
:1004A000E2004C0AC70A53C4FDE761084D1DCB0AA0
:1004B0005BE4D03EE44B9A2869A2A4899445521685
:1004C0004959A42599966462014E15C90A59E4B3A5
:1004D000922AA9146A999689919AA889BC074F17FC
:1004E000CB0A5BCE9A96477992433AA4433A94E476
:1004F000519E994700500EC80C579CD224B626C373
:1005000094F70E511ADBFA5ACE9A96477992433AEB
:10051000A4433A94E4511865E6250713005217C91D
:100520000C59DCD2284EE2248D862D8DE2244EE239
:10053000244EF2005316C90A570D5A9AE47A924390
:100540003AB44349AE27693648005417C908553CA8
:10055000E6488EE4488EE4488EE4488EE4488E8473
:1005600000550CC90A59E4FE7B926683045616CAEC
:100570000857E4888E94A3388AB3B0358AA338CA62
:100580007544045720CD0A5FA4A99AAA952CC9A244
:100590002CC9A22CC92A591226591226599296D32F
:1005A00038CD005816C80A57C4491885591446A9A9
:1005B000AC466194855198C4015916C90A57E4495B
:1005C0001AA559314B9378CF911CC9911C09015A36
:1005D0000FC908D50C839EEB75BDAED787035B0AA8
:1005E000F3DA4A0C51FFA7015C0CC4084B6461D6D6
:1005F0009815B3025D0AF3D84A4CFD9F86005E0E43
:100600007758D1A5499864A52C49D5005F0619D81B
:10061000523C600833A84D445A006112980AD30C2A
:10062000529AC7D29054933409A52111620FC70A78
:1006300053C42D9396A45EB7249900630D970A5175
:100640006D95546E4DB26C02640EC70A53372DB5CA
:10065000D56B92494B00650F970A536D95541DCE8B
:100660006992651300660CC40A4B29593424593F1A
:10067000016711D7CA522DB5D56B92494BAC8AD1BF
:100680001001680CC70A53C42D4322AA7E0D6908C5
:10069000C10A4728C3016A0A03C74855A3FED3020B
:1006A0006B12C70851C48D4916D592708CB25298FE
:1006B000A4016C06C10A477C6D139B0C5D24D3A278
:1006C000194331144331144331140B6E0B970A5301
:1006D000244322AA7E0D6F0D970A536D95D46B9219
:1006E0006513007010D7CA52249396A45EB724995C
:1006F000E26600710ED7CA522DB5D56B92494BDC1C
:1007000001720A940A4B244394F50D730E960AD194
:100710000C4928CEF228264302740BB40ACB64D1CC
:1007200090647D14750B970A53A4FEA80C490076BB
:1007300011970851A46A9245599455C2245C33001C
:1007400077159B085984A158C94AD1D412654963C9
:10075000D29AC559067810970851A449166595B4E0
:100760009295B2240D7912C7D850A46A92455925A2
:100770004CC2354EE350057A0B960A515CC3D6B095
:100780003A0C7B0C03CB4C25512F59D4B7007C0776
:1007900001CB48FC107D0C03CB4C64516F49D497BE
:1007A000087E08284AD56CDA0200000004FFFF002A
:1007B000005F00030204040204050B0BFFFE08FEA9
:1007C00008FE015302BD03F4200500E60421068162
:1007D000E3C4252207233B45A204231076A25592A9
:1007E00025D12025C920255912012410A59E55B6D2
:1007F00054946C4BA244A96C1100251088628ED4CD
:100800009229799C275A12951400260D86238E165C
:10081000B56951A2259129270621BA8400280BA386
:100820001A551225515B9405290CA31B45166551D9
:100830004B9444002A07333645D2012B0A55A6555E
:10084000180D5218012C0732DA4CA2002D06132E77
:10085000C5002E0611E344002F0A83E254256A895D
:100860002200300A85A2CD92F9962C00310782A38E
:10087000CDD207320C85A2CD928525290B070133F5
:100880000C85A2CD9285911A6AC902340E85A25DAB
:10089000262551524A062D4C00350C85A2CD908458
:1008A000E11A6AC902360C85A2CD92894392D99287
:1008B00005370B85A2C52066C52CAC01380C85A276
:1008C000CD9269C992D99205390C85A2CD92D9925F
:1008D00021D492053A0661E344183B0982DA4C0EB2
:1008E000250A003C0753A755522B3D08346AC51012
:1008F0000E013E0853A7455629013F0B84A38D12D4
:1009000065512D8F0040169ADEDE20A651A4245298
:1009100049C92225AA448A96638306410E87E25D6F
:100920009C2661929506255503420D85E3C590648A
:10093000DAA064B64101430C8623CE90846AC76472
:100940004800440D8623C6106549E82D192200454C
:100950000A85E3C5311CC6E220460A85A3C5311CC1
:1009600092B011470C8623CE90846A6D149341484F
:100970000A862346681C06D131490681E3C4414AF0
:100980000984625D6F52A2004B0D85E3452625A5C3
:10099000A9122599164C0884A345D6B7214D108776
:1009A0006346BA0DD952512A52244552014E0F8640
:1009B0002386B6299112498994689B004F0B8623A0
:1009C000CE90843E264302500C85E3C59064DAA0A5
:1009D000848D005112971FCE108549988449984400
:1009E000494D1AF400520C85E3C59064DAA0646E98
:1009F00001530C85E3CD92A9ABA6250B00540985C4
:100A000062C520857D02550A862346E8C7644800F2
:100A1000560F87E245AA2659944559254CD20C57C2
:100A200010896246966995A82F6DC52CCC22005876
:100A30000D85E345A625B54A94D4B400590E87E246
:100A4000459A645156099334AE015A0B85E3C5208B
:100A500066C5AC38085B08A2DBC4D22F025C0A83EF
:100A6000E24494456D51005D08A2DA84D22F035E02
:100A70000A55AE55982551520B5F06169AC501606E
:100A80000622FE4414610C6562C51A2D5112454AB6
:100A900000620C85A245583169DAA42800630A6413
:100AA000628D1269A54401640A85A265C5B49914D2
:100AB00025650B64628D120D5B942800660A842202
:100AC00095124D592700670C859A8D6933294A98EC
:100AD0002C00680A85A2455831696E01690781A218
:100AE00044320C6A09A2994C96F4A2006B0C846201
:100AF00045565212292949016C0681A2C4416D0E46
:100B00006722C6A244911449911449056E0965A251
:100B10004562D2DC026F0A65A2CD92B9250B007046
:100B20000C859A4562D2B44951C210710A859A8DDA
:100B30006933294A587209632245B2444D00730B48
:100B400064628D1225A2942800740A83224D942C8D
:100B50005193007508646245E42919760C65A24535
:100B6000A625A5240B2300770E672246144995A6D7
:100B7000A496844904780A65A24596D42A352D792D
:100B80000E85594D94444929C9B430D2007A0A647B
:100B900062C590456D43007B0AA3DA541255B2A892
:100BA0002D7C07A1DBC443007D0BA3DA4416D5924C
:100BB000A825027E0726EE8D640100000004FFFFD9
:100BC00000000A0D0E0900030200000405080000E1
:100BD000000000000000000000000000000102040E
:100BE00008102040800102040810200102040810AF
:100BF00020408040010204080404040404040404A6
:100C000002020202020203030303030302020305BA
:100C1000050505000000002300260029002C000027
:100C2000000000250028002B002E000000000024FA
:100C30000027002A002D0000DF0D2024CD261D2BCB
:100C4000AC2B7524222711241FBECFEFD8E0DEBFC6
:100C5000CDBF11E0A0E0B1E0ECE5FAE602C00590FE
:100C60000D92AC3EB107D9F726E0ACEEB1E001C081
:100C70001D92A239B207E1F716E0C1E2D6E004C046
:100C80002197FE010E948233CC31D107C9F70E941F
:100C9000102E0C9421350C94000090E080E0089513
:100CA0000895CF92DF92EF92FF920F931F93CF930D
:100CB000DF936C01EB017B01E40EF51E10E000E018
:100CC000CE15DF0561F06991D601ED91FC9101909F
:100CD000F081E02DC6010995080F191FF1CFC80159
:100CE000DF91CF911F910F91FF90EF90DF90CF9008
:100CF0000895CF92DF92EF92FF920F931F93CF93BD
:100D0000DF93EC016C0124E0C20ED11CFC01E05722
:100D1000FF4F0190F081E02DC60109958E3FEFEF66
:100D20009E07D8F48E010C561F4FF8014081518167
:100D30007E01F2E9EF0EF11CF701608171819C01E7
:100D4000C6010E946B1CC059DF4F28812130C1F0C1
:100D500078F02230B9F02330E9F081E090E0DF91C3
:100D6000CF911F910F91FF90EF90DF90CF9008955A
:100D7000F70120813181820F931F91838083EDCF12
:100D8000F801F7CFF70120813181281B390B31831E
:100D90002083E3CFF801F7CFFF920F931F93CF93F8
:100DA000DF93EC01F62E08811981C8010E940B35F2
:100DB000F81621F06F2DC8010E941335CE01DF9186
:100DC000CF911F910F91FF9008951F920F920FB630
:100DD0000F9211242F933F934F935F936F937F93C1
:100DE0008F939F93AF93BF93EF93FF938CE00E94F9
:100DF000F32F892B41F18091F001811124C081E012
:100E00008093F001109206018AE00E94F32F892B53
:100E100021F48091EE01882311F18AE00E94F32FE2
:100E2000892B19F5FF91EF91BF91AF919F918F9110
:100E30007F916F915F914F913F912F910F900FBED6
:100E40000F901F9018958CE00E94F32F892BE1F6EC
:100E50008091F0018823C1F21092F001D5CF81E09A
:100E60008093EE0110920601DDCF8091EE01882380
:100E7000C9F21092EE01D6CF7F928F929F92AF92DD
:100E8000BF92CF92DF92EF92FF920F931F93CF9377
:100E9000DF9389E092E00E944E198FE0882E912C1A
:100EA00094E6792EC8E2D0E061EB77E089E092E049
:100EB0000E941E1D109298021092970290929A0220
:100EC0008092990264EB71E085E092E00E94152C1B
:100ED00068EF71E089E092E00E941E1DE090A3029D
:100EE000F090A4020F2C000C000B110B20919B0220
:100EF00030919C02032E000C440B550B6091F301C2
:100F00007091F401072E000C880B990B1F921F9211
:100F10001F927F92A12CB12C65010E94CD2DAB01B7
:100F2000BC012AE030E085E092E00E948C2C62EB6C
:100F300071E085E092E00E94152C61EB77E089E09A
:100F400092E00E941E1D1092980210929702D09378
:100F50009A02C093990269EA71E085E092E00E94EA
:100F6000152C68EF71E089E092E00E941E1D40910F
:100F7000F9015091FA016091FB017091FC0122E0AE
:100F800030E085E092E00E94CB2D67EA71E085E0D9
:100F900092E00E94152C89E092E00E9460190F9067
:100FA0000F900F900F9081117FCFDF91CF911F9104
:100FB0000F91FF90EF90DF90CF90BF90AF909F90F8
:100FC0008F907F900895CF93DF938FEE92E00E94F1
:100FD000A1106093EB027093EC028093ED0290936A
:100FE000EE0260FF1DC081E08093EC0189E092E099
:100FF0000E944E19CFE0D0E0109298021092970212
:10100000D0939A02C09399026CE871E085E092E077
:101010000E94152C89E092E00E9460198111ECCFAA
:101020008091EB0281FF1DC081E08093EC0189E09B
:1010300092E00E944E19C9E1D0E0109298021092FD
:101040009702D0939A02C09399026CE771E085E011
:1010500092E00E94152C89E092E00E9460198111B3
:10106000ECCF8091EB0282FF1DC081E08093EC0108
:1010700089E092E00E944E19CFE0D0E010929802F1
:1010800010929702D0939A02C093990263E671E09E
:1010900085E092E00E94152C89E092E00E946019A0
:1010A0008111ECCF8091EB0283FF1DC081E0809322
:1010B000EC0189E092E00E944E19C9E1D0E0109263
:1010C000980210929702D0939A02C09399026AE410
:1010D00071E085E092E00E94152C89E092E00E9488
:1010E00060198111ECCF8091EB0284FF1DC081E07B
:1010F0008093EC0189E092E00E944E19CFE0D0E0AD
:101100001092980210929702D0939A02C09399027B
:101110006CE371E085E092E00E94152C89E092E09A
:101120000E9460198111ECCF8091EB0285FF1DC0F8
:1011300081E08093EC0189E092E00E944E19C9E1C0
:10114000D0E01092980210929702D0939A02C09326
:1011500099026EE271E085E092E00E94152C89E030
:1011600092E00E9460198111ECCF8091EB0286FF22
:101170001DC081E08093EC0189E092E00E944E194D
:10118000CFE0D0E01092980210929702D0939A028A
:10119000C09399026EE171E085E092E00E94152C07
:1011A00089E092E00E9460198111ECCF8091EB02FE
:1011B00087FF1DC081E08093EC0189E092E00E94EE
:1011C0004E19C9E1D0E01092980210929702D09384
:1011D0009A02C09399026EE071E085E092E00E946D
:1011E000152C89E092E00E9460198111ECCFDF910B
:1011F000CF9108958F929F92AF92BF92CF92DF923C
:10120000EF92FF920F931F93BC01990F880B990BDC
:101210001F921F921F921F92AA24AA9423E0B22E1B
:10122000C12CD12CEE24EA9413E0F12E00E010E062
:1012300020E030E0A9010E94CD2D072E000C880B84
:10124000990B0E9438319B01AC0160E070EC8FE794
:1012500094E40E948E3020E030E040E85FE30E949A
:101260001C302091130130911401409115015091CF
:1012700016010E943D326093FD017093FE01809340
:10128000FF01909300020E94F5316B017C01C09236
:101290000102D0920202E0920302F0920402209135
:1012A0000B0130910C0140910D0150910E010E94F3
:1012B0003D3220910F013091100140911101509168
:1012C00012010E941D304B015C01209107013091F9
:1012D00008014091090150910A01C701B6010E941D
:1012E0003D32A70196010E943D32A70196010E945E
:1012F0003D329B01AC01C501B4010E941D309B0130
:10130000AC0160E070E080E89FE30E948E3023E350
:1013100033E948E853E40E941C306093F90170936C
:10132000FA018093FB019093FC010F900F900F90B6
:101330000F901F910F91FF90EF90DF90CF90BF9093
:10134000AF909F908F9008954F925F926F927F928F
:101350008F929F92AF92BF92CF92DF92EF92FF92C5
:101360000F931F93BC01990F880B990B1F921F922B
:101370001F9224E62F93A12CB12C65011CEFE12EC6
:1013800013E0F12E00E010E020E030E0A9010E941F
:10139000CD2D0E94383120E030E048EC52E40E942C
:1013A0008E306B017C01AC019B010E943D324B01F0
:1013B0005C01A70196010E943D3226E636E646E62C
:1013C0005FE30E943D322B013C0126E636E646EA09
:1013D0005FE3C501B4010E943D329B01AC01C30132
:1013E000B2010E941C304B015C012DEC3CEC4CEA3C
:1013F0005FE3C701B6010E943D329B01AC01C5010C
:10140000B4010E941D302FE832EC45EF5CE30E94EE
:101410001D3020E030E048EC52E40E943D320E9452
:101420000031A0909B02B0909C020B2C000CCC08C9
:10143000DD0877FF02C070E060E0072E000C880B2B
:10144000990B0091A3021091A402012E000C220B13
:10145000330B3F932F931F930F9312E6E12EF12C42
:1014600000E010E023E030E040E050E00E94CD2DAD
:101470002DB73EB7285F3F4F0FB6F8943EBF0FBE63
:101480002DBFCB011F910F91FF90EF90DF90CF9078
:10149000BF90AF909F908F907F906F905F904F9094
:1014A0000895CF92DF92EF92FF928EE00E941E2F5E
:1014B0000E94FA088FE00E941E2F0E94A4099093B8
:1014C000F4018093F301C090F901D090FA01E0900B
:1014D000FB01F090FC0120E030E040EA51E4C7015C
:1014E000B6010E941C3020E030E040E85EE30E943C
:1014F0003D320E9400317093F2016093F10120E0CF
:1015000030E048EC52E4C701B6010E94E8311816F9
:101510007CF48091ED0181110BC081E08093ED019D
:1015200010920601FF90EF90DF90CF900C94E307AC
:1015300020E030E04EEB52E4C701B6010E94893052
:10154000181684F38091ED01882361F31092ED0168
:10155000E9CF0F931F93CF93DF930E946D2E0091DD
:10156000F5011091F6012091F7013091F801601B0F
:10157000710B820B930B643671058105910570F038
:101580000E946D2E6093F5017093F6018093F70130
:101590009093F8010E94510A0E943C078091F0014B
:1015A000811114C08091EF01811110C08091ED0173
:1015B00081110CC08091EE01882309F455C061E0CF
:1015C00084E00E94C52F60E087E102C061E084E012
:1015D0000E94C52F8091060181110AC081E080938D
:1015E000060140E050E0BA0187EA92E00E947A16D4
:1015F00089E00E94F32F892B39F587E10E94F32FB0
:10160000892B11F161E084E00E94C52F60E087E141
:101610000E94C52F89E092E00E944E19CFE0D0E0F1
:101620001092980210929702D0939A02C093990256
:101630006FEB71E085E092E00E94152C89E092E06A
:101640000E9460198111ECCF8091EC01882311F187
:1016500061E084E00E94C52F60E087E1DF91CF91D7
:101660001F910F910C94C52F8091F0018111B2CF81
:101670008091EF018111AECF8091EE018111AACF4F
:101680008091ED018111A6CF60E084E00E94C52F1A
:1016900061E09ACFDF91CF911F910F9108958F92C2
:1016A0009F92AF92BF92CF92DF92EF92FF926C0126
:1016B00060E084E00E94C52F0D2C000CEE08FF08AE
:1016C000B701A60187EA92E00E94031640E050E0CD
:1016D00068EC73E487EA92E00E94941787EA92E04C
:1016E0000E9474160E9438314B015C01C701B6019B
:1016F0000E9438312DEC3CEC4CEC5DE30E943D3215
:101700009B01AC01C501B4010E948930882329F0F6
:1017100087EA92E00E940918E1CF87EA92E00E94EE
:101720007416C616D706E806F906C1F087EA92E0F5
:101730000E9409188FEE92E00E94A5100A976CF79C
:1017400087EA92E00E947416CB01FF90EF90DF9041
:10175000CF90BF90AF909F908F900895F6CFFF925B
:101760000F931F93CF93DF9300D0CDB7DEB78C01DB
:10177000F72E9A838983CE0101960E94CC060F5FD3
:101780001F4F1A8309836F2DCE0101960E94CC064C
:101790000F900F90DF91CF911F910F91FF900895BF
:1017A0001F93CF93DF93EC010E940B35182FCE01CE
:1017B00001960E940B3590E0982F8827810F911D8C
:1017C000DF91CF911F9108950F931F93CF93DF93D4
:1017D00026E040E052EC61E070E088EE95E00E9487
:1017E000502A89E092E00E94102289E092E00E9453
:1017F000851960E089E092E00E94192261EB77E0B0
:1018000089E092E00E941E1D89E092E00E944E193C
:101810000FE010E0C8E2D0E0109298021092970218
:1018200010939A020093990266EE71E085E092E0CF
:101830000E94152C1092980210929702D0939A024F
:10184000C093990268ED71E085E092E00E94152C4A
:1018500089E092E00E9460198111DECF10E000E083
:1018600020E032EC41E050E06BE475E08FEE92E076
:101870000E94EE1168E28FEE92E00E94141168E27D
:101880008FEE92E00E9424118FEE92E00E94BB1135
:101890008FEE92E00E94C71165E08FEE92E00E9409
:1018A000080F64E070E08FEE92E00E94981163E010
:1018B00070E08FEE92E00E94AF1140ED57E060E0E3
:1018C00070E08FEE92E00E94030F40E050E06AE784
:1018D00075E487EA92E00E94901640E050E06AE7E3
:1018E00075E487EA92E00E94701761E084E00E944C
:1018F000892F61E086E00E94892F61E085E00E94E7
:10190000892F60E08FE00E94892F60E08EE00E94C6
:10191000892F60E08CE00E94892F60E08AE00E94BD
:10192000892F60E089E00E94892F61E087E10E94B1
:10193000892F61E08DE00E94892F8CE00E94F32FB7
:10194000892B19F081E08093F0018BE00E94F32F46
:10195000892B19F081E08093EF018AE00E94F32F38
:10196000892B19F481E08093EE0181E08093680077
:1019700084E180936B0060E084E00E94C52F8FEECD
:1019800092E00E9445116AEF70E080E090E00E94D2
:101990009E2E0E94E3076AEF70E080E090E00E94D4
:1019A0009E2E90E080E00E940B358B3709F4D6C064
:1019B00080E991E00E944F0B9093A6028093A502CC
:1019C000C29744F480E79EEF0E944F0B9093A602CB
:1019D0008093A5028091A5029091A6028E3C2FEFE4
:1019E00092070CF084C02CE93FEF30939C022093C7
:1019F0009B029C01285D3F4F3093A4022093A302D9
:101A000084579F4FAC0197FF02C04F5F5F4F5595C2
:101A10004795445651095093A00240939F02241BBE
:101A2000350B37FF02C02F5F3F4F35952795240FA9
:101A3000351F3093A2022093A10297FD039695953E
:101A40008795959587958456910990939E028093EA
:101A50009D026BE790E080E00E94133560919B024D
:101A600070919C0282E090E00E94AF0B60919D0219
:101A700070919E0284E090E00E94AF0B60919F0203
:101A80007091A00286E090E00E94AF0B6091A102ED
:101A90007091A20288E090E00E94AF0B6091A302D7
:101AA0007091A4028AE090E00E94AF0B6091A502C1
:101AB0007091A6028CE090E00E94AF0B61E084E0A0
:101AC0000E94C52F40E050E0BA0187EA92E00E94F0
:101AD0007A166CE38FEE92E00E9414116CE38FEEA5
:101AE00092E0DF91CF911F910F910C9424118333D9
:101AF00091050CF4B3CF24E630E030939C022093A0
:101B00009B029C01285231093093A4022093A30226
:101B10008C589109AC0197FF02C04F5F5F4F5595FC
:101B200047954C595F4F5093A00240939F02241B4E
:101B3000350B37FF02C02F5F3F4F35952795240F98
:101B4000351F3093A2022093A10297FD039695952D
:101B50008795959587958C599F4F77CF82E090E038
:101B60000E94D00B90939C0280939B0284E090E0B3
:101B70000E94D00B90939E0280939D0286E090E09D
:101B80000E94D00B9093A00280939F0288E090E087
:101B90000E94D00B9093A2028093A1028AE090E071
:101BA0000E94D00B9093A4028093A3028CE090E05B
:101BB0000E94D00B9093A6028093A5027FCFCF9274
:101BC000EF920F93CF93DF938FEE92E00E94280E57
:101BD000CC24C39485E0E82E04E025E046E061E0F3
:101BE00087EA92E00E940617C5E0D2E01B821A82C3
:101BF0008CE191E0998388838CED9FE1909396022C
:101C000080939502109298021092970210929A0275
:101C10001092990289E092E00E94E61F88E291E02A
:101C2000998388832AE238E14BE958E160E571E065
:101C300089E092E00E949B192FEF4FEF6FEF89E050
:101C400092E0DF91CF910F91EF90CF900C94961886
:101C5000FC0183E0828F1182108280E092ECA1E08F
:101C6000B0E082839383A483B58316828FEF9FEFC6
:101C700090878783158A0895DC018D919C91009748
:101C800039F0DC01ED91FC910084F185E02D09949F
:101C900090E080E00895DC018D919C91009739F0EF
:101CA000DC01ED91FC910190F081E02D099490E030
:101CB00080E00895DC018D919C91009739F0DC0162
:101CC000ED91FC910284F385E02D099490E080E091
:101CD0000895DC018D919C91009739F0DC01ED9124
:101CE000FC910680F781E02D09940895CB01BA019B
:101CF0000E94883308957F928F929F92AF92BF92F5
:101D0000CF92DF92EF92FF920F931F93CF93DF93C7
:101D1000CDB7DEB728970FB6F894DEBF0FBECDBFA4
:101D20007C01162FBA01A90185E08983F701B680ED
:101D3000BA821F7710681B83C7010E94760E6C83DE
:101D40007D838E839F83F62FA72E982E892EE0E029
:101D5000B0E0A0E087E0782E25E03B2D412F5F2FFB
:101D60006A2D792D882D90E00A2F0E94C43338E027
:101D70008E2F90E0422F50E0BC01660F672F661F48
:101D8000770B20FBCC24C0F8D12CEE0F6C157D0511
:101D900021F0880F991FE82FE72555954795242FA7
:101DA000315031F71896A833B105B1F6E887D12C38
:101DB000C12C29813A814B815C816D817E818F812B
:101DC00098850C2D0E94C433622FC7010E944B0ED0
:101DD000F8E0CF0ED11C80E4C816D10451F7289644
:101DE0000FB6F894DEBF0FBECDBFDF91CF911F912C
:101DF0000F91FF90EF90DF90CF90BF90AF909F90AA
:101E00008F907F9008959A01AB0164E10C947B0E52
:101E1000262F30E050E040E060E40C947B0ECF933E
:101E2000DF93EC011D861E861F86188A80E18D8750
:101E30008E858F618E878F85807F81608F872D85CE
:101E40003E854F85588960E1CE010E947B0E83E577
:101E50008E8B1F8A81E0888F80E1898F2E893F8950
:101E6000488D598D6CE6CE010E947B0E84E290E095
:101E7000ADE0B1EC8B8F9C8FAD8FBE8F24E230E054
:101E80004DE051EC60E7CE010E947B0E198A1A8A60
:101E90001B8A1C8A20E030E0A90162E4CE010E9486
:101EA0007B0E24E130E040E050E061E1CE010E9491
:101EB0007B0E20E030E0A90163E1CE010E947B0EA1
:101EC00020E030E0A90162E2CE010E947B0E20E01A
:101ED00030E0A90164E1CE010E947B0E20E030E0F9
:101EE000A90160E4CE010E947B0E20E030E0A90150
:101EF00062E4CE01DF91CF910C947B0E8F929F9282
:101F0000AF92BF92DF92EF92FF920F931F93CF9306
:101F1000DF93CDB7DEB728970FB6F894DEBF0FBEBC
:101F2000CDBF7C0145E0842E912CA12CB12CFC016D
:101F300096806F778A2D8078A82EA62AE894A7F835
:101F4000F0E0E0E080E057E0D52EB501A4010E2ED0
:101F500004C076956795579547950A94D2F758E04F
:101F6000682F70E0A42FB0E08B01000F012F001F3D
:101F7000110B242F217030E0880F0217130721F076
:101F8000CB01880F991F8D25B595A7954A2F5150E4
:101F900039F73896E831F105C1F6B82EC7010E942D
:101FA000690EC7010E943C0E1816190624F4C701D9
:101FB0000E945A0EF6CF10E000E0C501B401002ED9
:101FC00004C096958795779567950A94D2F7C701CF
:101FD0000E944B0E085F1F4F0032110571F7C701B9
:101FE0000E94690E812C912C5401C7010E943C0E65
:101FF00004978CF4F0EA8F16FFE09F06A104B10469
:10200000E9F081E090E00E94D72E8FEF881A980ABD
:10201000A80AB80AEACFE0EA8E16EFE09E06A1040D
:10202000B10461F0C7010E945A0EC7010E945A0E06
:10203000C7010E945A0EC7010E945A0E812C912C92
:102040005401C7010E943C0E089794F4F0E18F16EA
:10205000F7E29F06A104B10409F45EC081E090E0BC
:102060000E94D72E8FEF881A980AA80AB80AE9CFDB
:10207000E0E18E16E7E29E06A104B10409F44CC02B
:1020800019821A821B821C821D821E821F82188660
:10209000B12CA12CC7010E945A0E9C01932F990FBD
:1020A000990B492F592F692F792F892F0A2D0E94BB
:1020B000A933F9812F2BFA813F2BEB81E42B4C8143
:1020C000452B5D81562B6E81672B7F81782B888510
:1020D000982B29833A83EB834C835D836E837F83C4
:1020E0009887F8E0AF0EB11C80E4A816B10491F611
:1020F000C70128960FB6F894DEBF0FBECDBFDF91A3
:10210000CF911F910F91FF90EF90DF90BF90AF9014
:102110009F908F900C94760E60E070E0CB01289633
:102120000FB6F894DEBF0FBECDBFDF91CF911F91E8
:102130000F91FF90EF90DF90BF90AF909F908F90A6
:1021400008956FE60E947E0F089561E40E947E0F5D
:10215000CB010895AF92BF92CF92DF92EF92FF92A0
:102160000F931F9370E090E080E065367105810564
:10217000910520F064E670E080E090E01F921F92ED
:102180001F922FE12F93A12CB12C650114E6E12EB3
:10219000F12C00E010E020E030E0A9010E94CD2DFC
:1021A000862F0F900F900F900F901F910F91FF901F
:1021B000EF90DF90CF90BF90AF900895FC01218504
:1021C00032854385548560E00C947B0EFC01668368
:1021D00080EC818781E0828713861486CF010C947E
:1021E000DE10CF93DF93EC012D853E854F85588916
:1021F00060E10E947B0E9E859F718A89943178F000
:1022000080688A8B8D89882361F029893A894B8976
:102210005C8962E4CE01DF91CF910C947B0E8F77C5
:10222000F0CFDF91CF910895CF93DF93EC010E941F
:10223000AA10982F9F718E85807E892B8E87CE0164
:10224000DF91CF910C94F110CF93DF93EC010E94BA
:10225000AA10982F9F718D85807E892B8D87CE0146
:10226000DF91CF910C94F110FC012685207E26870A
:102270002585207E25870C94F110FC01268937895D
:10228000408D518D6CE60C947B0ECF93DF93EC0167
:102290008F81988597FD03C060E00E94C52F9A8DBD
:1022A0009F708E89807F892B8E8BCE01DF91CF919D
:1022B0000C943D11CF93DF93EC018F81988597FDAE
:1022C00003C061E00E94C52F8E89807F8E8BCE0176
:1022D000DF91CF910C943D11DC0159969C91599757
:1022E000683020F5E62FF0E0E758FE4E907F0C9422
:1022F0008233811188118A118C118E1190119211E3
:102300009411986059969C935997CD010C943D1166
:102310009760F8CF9660F6CF9560F4CF9460F2CFD7
:102320009360F0CF9260EECF9160ECCF907FEACFD8
:102330009B013695279570E060E02115310529F065
:10234000369527956F5F7F4FF8CF0C946C11FC0189
:10235000238D348D458D568D60E70C947B0EFC01EA
:102360006370962F9295907F658D6F7C692B658F3A
:10237000CF010C94A711FC01258D2460258F0C94AE
:10238000A711FC01258D2B7F258F0C94A711FC0133
:10239000258D2860258F0C94A711FC01258D277FA2
:1023A000258F0C94A711CF93DF93EC014A835B83B5
:1023B0006C837D83B9010E94E610CE010E940F0F4D
:1023C000CE010E943411CE010E945A11CE010E940A
:1023D000C111CE01DF91CF910C94CD11CF92DF923C
:1023E000EF92FF920F931F93CF93DF93EC01CB01FA
:1023F00069017A01798368830E94A82A26E0B701DF
:10240000A601888199810E94502A9801B701A601EE
:10241000CE01DF91CF911F910F91FF90EF90DF9050
:10242000CF900C94D31108954F925F926F927F9248
:102430008F929F92AF92BF92CF92DF92EF92FF92D4
:102440000F931F93CF93DF93EC01CC88DD88EE8848
:10245000FF8888899989AA89BB89C81AD90AEA0A92
:10246000FB0A688D798D8A8D9B8D9B01AC010E9442
:102470003D324B015C0168A179A18AA19BA19B011E
:10248000AC010E941D309B01AC01C501B4010E944A
:102490008E300E940031C114D104E104F10409F02E
:1024A000B6C062307105810591050CF0D0C01B8269
:1024B0001C821D821E82188E198E1A8E1B8E1CAADB
:1024C0001DAA1EAA1FAAC12CD12C7601C701B601D4
:1024D000DF91CF911F910F91FF90EF90DF90CF9000
:1024E000BF90AF909F908F907F906F905F904F9034
:1024F00008951016110612061306B4F46C157D0526
:102500008E059F051CF42A812111A1C09B01AC01FD
:1025100088279927DC01821B930BA40BB50B8CAB8E
:102520009DABAEABBFAB93C00115110521053105C5
:1025300009F48DC06C157D058E059F050CF087C0D4
:102540008A81882309F483C03095209510950195E0
:102550001F4F2F4F3F4F0CAB1DAB2EAB3FAB77C088
:10256000011511052105310509F471C0882499244C
:1025700054018C189D08AE08BF08681579058A05B6
:102580009B050CF064C08A81811161C0DDCFCCACA9
:10259000DDACEEACFFACA7019601C701B6010E940D
:1025A0001D302B013C01C501B4010E94383120E0EF
:1025B00030E040E850E40E943D3220E030E040E866
:1025C0005FE30E941D309B01AC01C301B2010E9478
:1025D0008E309B01AC01C701B6010E941C303B014B
:1025E0006C01FE01E05CFF4FE080F180028113810D
:1025F0009701A8010E94E831181614F473018601AE
:10260000C701D8018CAF9DAFAEAFBFAF3AC00CA928
:102610001DA92EA93FA91C141D041E041F040CF49F
:1026200068CF10161106120613060CF099CF00277A
:10263000112798010C191D092E093F096017710710
:10264000820793070CF062CF2A8121115FCF8CA8FB
:102650009DA8AEA8BFA881149104A104B10409F0FB
:1026600096CF88AD99ADAAADBBAD8CAF9DAFAEAFE7
:10267000BFAF81E01C141D041E041F040CF080E099
:102680008A833FEF831A930AA30AB30A8CAA9DAAEE
:10269000AEAABFAA8CAC9DACAEACBFACC501B401B8
:1026A0000E9407316B017C01CB82DC82ED82FE82CD
:1026B000A501940160E074E284E799E40E948E3001
:1026C000688F798F8A8F9B8F2A812111FFCE905836
:1026D000688F798F8A8F9B8FF9CEDC011796EC91EA
:1026E0001797E93008F038C0F0E0E758FC4E0C943A
:1026F0008233821388138E1394139A13AC13A0138E
:10270000AC13A613ED91FC910684F785E02D099496
:10271000ED91FC910088F189E02DF9CFED91FC91CC
:102720000288F389E02DF3CFED91FC910488F589BF
:10273000E02DEDCFED91FC910688F789E02DE7CFF4
:10274000ED91FC91008CF18DE02DE1CFED91FC91AC
:10275000028CF38DE02DDBCF0895CF93DF93EC0156
:10276000CB01BA0126E030E040E050E00E94633344
:10277000623071058105910589F16CF4611571056F
:1027800081059105D1F06130710581059105F9F060
:10279000DF91CF910895643071058105910561F154
:1027A00024F1653071058105910591F7E881F98182
:1027B0000284F385E02D66E006C0E881F981028499
:1027C000F385E02D64E0CE01DF91CF910994E8819B
:1027D000F9810284F385E02D65E0F5CFE881F98188
:1027E0000284F385E02D61E0EECFE881F981028477
:1027F000F385E02D63E0E7CFE881F9810284F3857A
:10280000E02D62E0E0CFDC01ED91FC912285338583
:10281000477055276627772741505109610971098B
:10282000473051056105710560F4FA01E65EFB4E23
:102830000C9482332414261428142A142C142E14D5
:10284000301461E0F901099465E0FCCF64E0FACF4F
:1028500066E0F8CF62E0F6CF6AE0F4CF68E0F2CF4E
:1028600069E0F0CFCF92DF92EF92FF920F931F9328
:10287000CF93DF93DC011796CC91C43039F0C83088
:1028800059F1C33019F0C63049F1C2E08C01085F3C
:102890001F4FF12CE12CC62ED12CD1E0F801648120
:1028A000C6010E2C02C0959587950A94E2F780FD2B
:1028B0006D270F5F1F4F80810E94C52FBFEFEB1A5E
:1028C000FB0AEC1658F3DF91CF911F910F91FF9007
:1028D000EF90DF90CF900895C4E0D8CFC3E0D6CF7B
:1028E000CF93DF93EC01E881F9810284F385E02D39
:1028F0008A8160E0811162E0CE010995E881F98169
:102900000284F385E02D8A8161E0811163E0CE01CC
:1029100009958CA59DA50E94D72EE881F981028496
:10292000F385E02D8A8160E0811162E0CE01DF91C4
:10293000CF91099464E470E00C94212ECF93DF933F
:10294000EC0120E030E0A901688D798D8A8D9B8DA6
:102950000E94E83118162CF4E8A9F9A9DF91CF916B
:102960000994EAA9FBA9FACFDC01ED91FC9102845C
:10297000F385E02D437055276627772742305105B0
:102980006105710571F0433051056105710559F01C
:10299000413051056105710511F062E0099463E071
:1029A000FDCF61E0FBCF60E0F9CFCF93DF93EC0187
:1029B000CB01BA0123E030E040E050E00E946333F5
:1029C000613071058105910599F0623071058105CD
:1029D0009105A9F0672B682B692BC1F4E881F98177
:1029E0000284F385E02D64E0CE01DF91CF9109945C
:1029F000E881F9810284F385E02D61E0F5CFE8817B
:102A0000F9810284F385E02D62E0EECFDF91CF9172
:102A10000895DC01ED91FC910284F385E02D437073
:102A2000552766277727423051056105710571F0FA
:102A3000433051056105710559F04130510561057B
:102A4000710511F065E0099466E0FDCF6AE0FBCF07
:102A500069E0F9CFCF93DF93FC0127812223A9F00E
:102A6000EC010190F081E02D0284F385E02D60E01F
:102A700009958FA58F3F49F061E00E94892F6EA5CF
:102A80008FA5DF91CF910C94C52FDF91CF91089541
:102A9000CF93DF93FC012781222359F1EC0161E000
:102AA00080850E94892F61E089850E94892F8F810E
:102AB000843011F08830B1F461E08A850E94892F5A
:102AC00061E08B850E94892F8FA58F3F91F061E097
:102AD0000E94892F6EA581E068278FA5DF91CF9195
:102AE0000C94C52F833011F0863071F761E08A8530
:102AF000E9CFDF91CF9108954F925F926F927F92CD
:102B00008F929F92AF92BF92CF92DF92EF92FF92FD
:102B1000CF93DF93EC016A017B0120E030E0A90153
:102B2000CB01B6010E94893087FF04C0F7FAF09408
:102B3000F7F8F09488A099A0AAA0BBA0A7019601DD
:102B4000C501B4010E948930882309F44DC06CA9E5
:102B50007DA98EA99FA90E9438312B013C01A701B4
:102B60009601C501B4010E948E309B01AC01C301E6
:102B7000B2010E943D320E9400316CAB7DAB8EAB46
:102B80009FABA701960160E070E080E090E40E94B6
:102B90008E300E94B03226E53EE04DE25FE30E94B7
:102BA0003D3220E034E244E759E40E943D3268AF10
:102BB00079AF8AAF9BAFC8A2D9A2EAA2FBA2E881F3
:102BC000F9810084F185E02DCE01DF91CF91FF9056
:102BD000EF90DF90CF90BF90AF909F908F907F90BD
:102BE0006F905F904F900994DF91CF91FF90EF909D
:102BF000DF90CF90BF90AF909F908F907F906F901D
:102C00005F904F9008950F931F93DC0154960D91A0
:102C10001D912D913C9157970417150726073707EB
:102C200071F0FC01448B558B668B778B0190F081A2
:102C3000E02D0084F185E02D1F910F9109941F91E3
:102C40000F910895CF92DF92EF92FF92CF93DF938F
:102C5000FC014381548165817681452B462B472BAE
:102C600041F480E0DF91CF91FF90EF90DF90CF9023
:102C70000895EC010E94792E6B017C0188A599A52D
:102C8000AAA5BBA5B701A601481B590B6A0B7B0B74
:102C90008B819C81AD81BE81481759076A077B07EC
:102CA00000F388899989AA89BB892A812223C1F0E6
:102CB0000196A11DB11D888B998BAA8BBB8B48896E
:102CC00059896A897B89E881F9810484F585E02D39
:102CD000CE010995C8A6D9A6EAA6FBA681E0C2CF77
:102CE0000197A109B109E7CFFC0160897189828947
:102CF00093890895FC01408B518B628B738B448BBD
:102D0000558B668B778B14AA15AA16AA17AA13825D
:102D1000148215821682108E118E128E138E0895D3
:102D2000CF92DF92EF92FF920F931F93CF93DF9397
:102D3000EC016A017B0120E030E0A901CB01B60182
:102D40000E94893087FF04C0F7FAF094F7F8F094F6
:102D5000A70196016C8D7D8D8E8D9F8D0E9489308F
:102D6000882309F44AC0CC8EDD8EEE8EFF8E8E0154
:102D7000005C1F4FA701960160E074E284E799E4CC
:102D80000E948E30F80160837183828393838CA9C3
:102D90009DA9AEA9BFA9181619061A061B066CF53F
:102DA000688D798D8A8D9B8D9B01AC010E943D328F
:102DB0006B017C0168A179A18AA19BA19B01AC0157
:102DC0000E941D309B01AC01C701B6010E948E30EC
:102DD0000E9400316CAB7DAB8EAB9FABE881F9817B
:102DE0000084F185E02DCE01DF91CF911F910F91ED
:102DF000FF90EF90DF90CF900994DF91CF911F91DA
:102E00000F91FF90EF90DF90CF900895CF92EF92C7
:102E10000F93CF93DF93EC0184E391E09983888350
:102E20006F83188A198A1A8A1B8A1C8A1D8A1E8A2D
:102E30001F8A188E198E1A8E1B8E1C8E1D8E1E8E4A
:102E40001F8E18A219A21AA21BA280E090E0A0E88F
:102E5000BFE38CA39DA3AEA3BFA31B821C821D82D4
:102E60001E8261E070E07DA76CA73FEF3FA718A628
:102E700019A61AA61BA6488729870A87EB861EA6CD
:102E80001CAA1DAA1EAA1FAA18AE19AE1AAE1BAE06
:102E90001CAE1DAE1EAE1FAEFE01E05CFF4F808378
:102EA0009183A283B3831A821C861D861E861F8689
:102EB000CC2019F0CE010E94481540E050E060E8B7
:102EC0007FE3CE010E947C1540E050E060E87FE3A4
:102ED000CE01DF91CF910F91EF90CF900C9490168F
:102EE000CF92DF92EF92FF92CF93DF93EC016A01D2
:102EF0007B0120E030E0A901CB01B6010E948930BE
:102F0000882359F0B701A601CE01DF91CF91FF9040
:102F1000EF90DF90CF900C947C15DF91CF91FF90D4
:102F2000EF90DF90CF9008954F925F926F927F92D3
:102F3000AF92BF92CF92DF92EF92FF920F931F93C7
:102F4000CF93DF93EC015A018B019A01AB01688D9D
:102F5000798D8A8D9B8D0E948930882379F14C8CE4
:102F60005D8C6E8C7F8C73016201F7FAF094F7F838
:102F7000F0949501A801C701B6010E94E831181626
:102F800064F09501A801C301B2010E948930650176
:102F9000780187FF02C07301620120E030E0A901DF
:102FA000C701B6010E948930811117C01B821C82A3
:102FB0001D821E82C88ED98EEA8EFB8EDF91CF9144
:102FC0001F910F91FF90EF90DF90CF90BF90AF9047
:102FD0007F906F905F904F900895A701960160E0F9
:102FE00074E284E799E40E948E309F770E94073153
:102FF0006B837C838D839E8311E020E030E0A90108
:10300000C701B6010E94E83118160CF010E01A83CF
:10301000D1CF0F931F93FC01048915892689378925
:103020004089518962897389041715072607370774
:1030300069F0401751076207730734F421E02283D7
:103040001F910F910C9422161282FACF80E01F91EB
:103050000F9108950F931F93CF93DF938C01C62F89
:10306000642FCC32A8F4CA32D0F5C83239F1C93253
:10307000E1F180E0C034A0F1CF73F801EC0FF11D55
:10308000D68DDF3F61F1C03108F042C08D2F13C0F3
:10309000CD3289F170F384EB8C0F823050F7CF730F
:1030A000C00FD12FD11D8E8D41112EC061E00E9425
:1030B000892F60E08E8D0E94C52F11C0025E1F4FC8
:1030C000D0E0F80181918F018F3F31F061E0D03184
:1030D00008F062E00E94892FDF5FD63191F781E02E
:1030E000DF91CF911F910F91089570E090E080E003
:1030F0000E949E2EF4CF85E090E0433010F082E0F5
:1031000090E00E94D72EEBCF62E00E94892FE7CF9C
:10311000C03111F40E940E2E8D2F0E94F32F21E05A
:10312000892B09F420E0F801218FD9CFFC0161A798
:1031300042A723A70895CF93DF93EC01683189F16B
:1031400030F4643199F0673151F080E005C06931A5
:10315000C9F16032D1F781E0DF91CF91089550E05D
:10316000B9018FE094E00E94D522F5CF8C859D8532
:10317000AE85BF85892B8A2B8B2B71F4E881F98171
:10318000A585B0E020EA36E841E050E00E949E3399
:103190006C877D878E879F878FE094E00E94B7239E
:1031A000DACF4C855D856E857F858FE094E00E9447
:1031B000C0236E8970E0759567958FE094E00E945A
:1031C000C723C9CF8FE094E00E94E323C4CFAF921E
:1031D000BF92CF92DF92EF92FF920F931F93CF9304
:1031E000DF93EC01AAACEBACE881F981B188FE2C4D
:1031F000D12CC12CE881F981208908AD19AD88E076
:10320000289FA00111244C9DC0014D9D900D5C9DF7
:10321000900D1124080F191F4F2D60E0CE010E9460
:10322000E521F3948F2D8E198A1528F48FEFC81A93
:10323000D80AFB14F8F2DF91CF911F910F91FF9004
:10324000EF90DF90CF90BF90AF900895FC01A081E8
:10325000B18150962C9182AD38E0839FC00111243A
:10326000289FA001299F500D112470E060E080ADDF
:1032700091AD0C940435CF93DF93EC016BAFEEA9C5
:10328000FFA90190F081E02D0995EEA9FFA9028028
:10329000F381E02DCE01DF91CF910994CF93DF939D
:1032A000EC01FC01E557FF4F8081882319F0CE0126
:1032B0000E94261960E0CE01DF91CF910C943B195A
:1032C0001F93CF93DF93EC010E94E7181BAD8AADEB
:1032D000180FE881F9818189181740F0CE010E940A
:1032E000222280E0DF91CF911F910895FE01E557E2
:1032F000FF4F8081882319F0CE010E942619612F8B
:10330000CE010E943B1981E0EDCFCF93DF93EC011A
:103310000E944E19CE010E9460198111FBCF60E01E
:10332000CE01DF91CF910C943B1922E0FC01208368
:103330008EE093E00895CF92DF92EF92FF920F9389
:103340001F93CF93DF931F92CDB7DEB77C016B0144
:1033500089019A0147EA50E265E871E20E9452222F
:10336000CE0101960E94951986012BE33EE1498129
:10337000BC01C7010E94AC1F0F90DF91CF911F913C
:103380000F91FF90EF90DF90CF900895FC01E60F32
:10339000F11D849190E0982F88273196E4918E0F4B
:1033A000911D089590E080E008950F931F93CF93AF
:1033B000DF93EC018B01FB01849188833196E491CA
:1033C000E983FB013296E491EA83FB013396E491B1
:1033D000EB83FB013496E491EC83FB013596E49199
:1033E000ED83FB013696E491EE83FB013796E49181
:1033F000EF83FB013896E491E887FB013996E4916D
:10340000E987FB013A96E491EA87FB013B96E49158
:10341000EB87FB013C96E491EC87FB013D96E49140
:10342000ED87FB013E96E491EE87FB013F96E49128
:10343000EF87FB017096E491E88B61E1C8010E947F
:10344000C6199A8B898B63E1C8010E94C6199C8BAF
:103450008B8B65E1C8010E94C6199E8B8D8BDF9115
:10346000CF911F910F910895DC011A964C911A97F4
:10347000ED91FC911197249130E0042E02C0359516
:1034800027950A94E2F7842F860F883068F03196EA
:103490001196FC93EE93E49198E0941B01C0EE0F1B
:1034A0009A95EAF72E2B88501A968C938FEF9FEF00
:1034B00001C0880F6A95EAF78095822308950F93DB
:1034C0001F93CF93DF938C01EC01C25ADF4F7983B6
:1034D00068831A86FC01EF58FF4F6081CE010E947D
:1034E000341A8887F801EE58FF4F6081CE010E94A0
:1034F000341A8987F801E657FF4F90819C8781E055
:10350000911180E08D87DF91CF911F910F910895E8
:10351000CF93C62F0E94341AC15021E030E001C081
:10352000220FCA95EAF7821BCF910895213069F0E6
:1035300038F0223079F0861B910967FD9395089544
:10354000840F911D47FD9A950895860F911D67FD83
:103550009A950895841B910947FD9395089521300C
:1035600069F038F0223079F0840F911D47FD9A956B
:103570000895860F911D67FD9A950895841B910902
:1035800047FD93950895861B910967FD93950895CE
:103590003F924F925F926F927F928F929F92AF92E3
:1035A000BF92CF92DF92EF92FF920F931F93CF9330
:1035B000DF937C01162F442EEC01C25ADF4F5E8050
:1035C0006F806C018AE8C80ED11C78847518312E82
:1035D000711608F4372C8C809D800E85202F462D87
:1035E000652D8A819B810E94AF1A5C01202F462D98
:1035F000652DC4010E94961AAC01442079F08C8597
:10360000F6018083232D30E0B501C7010E94471DDC
:10361000171548F017196394512CD7CF8B8581115A
:10362000F7CF8D85EDCF150D1E836F82DF91CF9182
:103630001F910F91FF90EF90DF90CF90BF90AF90D0
:103640009F908F907F906F905F904F903F900895E4
:103650008F929F92AF92BF92CF92DF92EF92FF92A2
:103660000F931F93CF93DF937C01EC01C25ADF4F7E
:103670000E945F1AF701E959FF4FB0803C966081C4
:10368000CE010E94881A882EF701EC58FF4F608106
:10369000CE010E94881A082FF701EB58FF4F608176
:1036A000CE010E94881AA82E988419140CF061C0CB
:1036B0001E850B0D0195212F402F682D8A819B813E
:1036C0000E94AF1A6C019B838A83212F402F682DA3
:1036D0008C819D810E94961A9D838C83113009F400
:1036E00056C048F0123009F463C0133009F476C0B4
:1036F0008C0196010AC09601290D311D97FC3A955F
:103700008C010B0D111DB7FC1A95AC01B601C70158
:103710000E94041E882369F11E821F8287010159BD
:103720001F4F670180E7C80ED11CF8016081CE01F0
:103730000E94341A882EF6016081CE010E94341A4C
:10374000982E40E0682DC7010E94C81A41E0692DFB
:10375000C7010E94C81A61E0CE010E94341A81118B
:10376000F0CF8F818B150CF3F701E657FF4F8C8557
:1037700080838A2DDF91CF911F910F91FF90EF9061
:10378000DF90CF90BF90AF909F908F90089541E0D1
:1037900050E04B195109B7FC539596012F5F3F4FED
:1037A0008C01090D111D97FC1A95C40ED51EADCFC5
:1037B00041E050E0BA016919710997FC73959601CF
:1037C0002F5F3F4F4B195109B7FC53958C010F5F89
:1037D0001F4F840F951FC60ED71E97CF96012B0D36
:1037E000311DB7FC3A9541E050E04919510997FC69
:1037F00053958C010F5F1F4F840F951F86CFEF925B
:10380000FF920F931F93CF93DF93FC01E65AFF4F74
:1038100020813181295E3F4F6F3F710509F048F5E6
:1038200061367105D8F080589F4FFC0180819181ED
:10383000280F391FC9010196FC014491442309F462
:1038400047C0F90144914617170671F40196DF91BC
:10385000CF911F910F91FF90EF9008956134710502
:1038600048F382589F4FE1CFFC018491280F311D0E
:10387000E1CF8B01FC01EE57FF4FC081D181C20F18
:10388000D31F7E0160E0C7010E94C619C80FD91F6F
:1038900062E0C7010E94C619F4E0EF0EF11C801728
:1038A000910780F3FE01849190E0982F882731964C
:1038B000E4918E2B009761F00817190719F4CE01D7
:1038C0000396C5CFFE013296E491CE0FD11DEACF0B
:1038D00090E080E0BCCFCF92DF92EF92FF920F9307
:1038E0001F93CF93DF93EC017B018A016901FC01F7
:1038F000E459FF4F8081813079F118F18230B9F1BC
:10390000833009F43FC0FE01E05AFF4FF182E082AC
:10391000329611830083B601CE010E94FF1B0097EF
:10392000E1F1BC01CE010E94281B082E000C990B6E
:10393000DF91CF911F910F91FF90EF90DF90CF908B
:103940000895FE01E45AFF4F0190F081E02DCE0171
:103950000995080F191FD7CFFE01E45AFF4F0190B8
:10396000F081E02DCE010995E81AF90ACCCFFE01CD
:10397000E45AFF4F0190F081E02DCE010995081B1C
:10398000190BC1CFFE01E45AFF4F0190F081E02DE9
:10399000CE010995E80EF91EB6CF90E080E0C8CFC1
:1039A000CF93DF93FC01E65AFF4F20813181232B17
:1039B000F1F0B0962081DC01AA57BF4F2C933196CD
:1039C00050813C965083EC01CB57DF4F3881332335
:1039D00071F0313079F42997388123170CF43C9336
:1039E00083589F4FDC018C9185170CF48083DF9105
:1039F000CF910895EC01C958DF4F488187589F4FF8
:103A0000EC013881822F220F990B632F032E000CBB
:103A1000770B640F711D47FD7A958617970714F48D
:103A2000430F4C9335171CF73083E1CF845A9F4FD7
:103A300022ED39E1FC01318320830895CF93DF9398
:103A4000FC01E65AFF4F208131812617370761F0CC
:103A5000EC017183608383599F4F0E94D519CE0179
:103A6000DF91CF910C94D01CDF91CF9108950F93EB
:103A7000FC01E05CFF4F0190F081E02D4E1B5F0BDD
:103A8000DC01D496ED91FC9109950F9108950F9367
:103A9000CF93DF93E02FDC01AC57BF4FFC91FF23A6
:103AA00009F460C02115310509F45CC022303105EC
:103AB00038F0023009F04AC06F5F7F4F621B730B12
:103AC0000E2F0170E0FD52C0FC01E25BFF4F019040
:103AD000F081E02D4E175F0708F444C0FC01E05B65
:103AE000FF4F0190F081E02D4E175F07D8F5FC01E4
:103AF000E45BFF4F0190F081E02DDC01A65BBF4F3E
:103B00000D90BC91A02D260F371F2617370738F5CB
:103B10006E177F0718F59F0121503109A217B307CF
:103B200008F56A177B0708F4BD012E173F0708F454
:103B3000F901E61BF70BEC01AEA9BFA914960D9095
:103B4000BC91A02D9F01FD0109950CC0033009F027
:103B5000B7CF4F5F5F4F421B530BB2CFBD016E1704
:103B60007F07E0F2DF91CF910F910895FC01E65BB2
:103B7000FF4F0190F081E02D6E177F0798F3FC0155
:103B8000E45BFF4F0190F081E02D6E177F0750F747
:103B9000FC01E05BFF4F0190F081E02DDC01A25BB6
:103BA000BF4F0D90BC91A02D240F351F2417350752
:103BB000A8F44E175F0788F49F0121503109A2171E
:103BC000B30780F64A175B0708F4AD012E173F07CD
:103BD00008F4F901E41BF50BAECFAD014E175F07FA
:103BE00008F6EDCF4617570748F48217930750F0B1
:103BF00081E02417350738F080E008958217930795
:103C0000B8F3FACF81E00895CF92DF92EF92FF925E
:103C10000F931F93CF93DF93EC017B016901980110
:103C2000FC01E05BFF4F608171813297808191815F
:103C30000E94F21D8823A9F0FE01E45BFF4F608122
:103C40007181C65BDF4F9601A70188819981DF9161
:103C5000CF911F910F91FF90EF90DF90CF900C9438
:103C6000F21D80E0DF91CF911F910F91FF90EF90B7
:103C7000DF90CF900895AF92BF92CF92DF92EF92F4
:103C8000FF920F93CF93DF93EC01DA017901942F28
:103C90009770E1E0F0E09F01092E01C0220F0A9425
:103CA000EAF7522F6E018AE8C80ED11CF601808116
:103CB00040E0823018F4422F813049F15D01F8EF85
:103CC000AF22E8ADF9AD28813981D90150968C91A8
:103CD0008A9D90018B9D300D1124620F731FDF01AF
:103CE000A60FB71F01111AC0EA0EFB1E8C91842B80
:103CF00085278D93EA16FB06C9F7DF91CF910F91C7
:103D0000FF90EF90DF90CF90BF90AF90089550E07C
:103D1000D5CF440F550FE114F10479F33C91342BC6
:103D200035273C939F5F9770E1E0EE1AF1089111FF
:103D3000F0CF2CAD3DADA20FB31FF60180818230D4
:103D400028F4813009F051E041E0E5CF51E0E3CFC4
:103D5000CF93DF93FC01A081B18182AD90E09C0103
:103D600043E0220F331F4A95E1F737AF26AF509655
:103D70002C91509748E0249F9001112435AF24AF37
:103D800023AD30E0B90153E0660F771F5A95E1F794
:103D9000EF01C05CDF4F7983688351964C91519756
:103DA000E901C80FD91F50E04C175D0718F4CA018C
:103DB000821B930BEF01CE5BDF4F798368832296E2
:103DC00023E0880F991F2A95E1F7860F971F9983A3
:103DD0008883229654968D919C91559799838883D8
:103DE000E85BFF4F56968D919C9191838083DF9184
:103DF000CF9108950C94A81E0F930E94371D0F9128
:103E000008958F929F92AF92BF92CF92DF92EF92DE
:103E1000FF920F931F93CF93DF93EC017C0188E512
:103E2000E80EF11CF701008111815E01F4E5AF0E8F
:103E3000B11CF501208131816E01F6E5CF0ED11C58
:103E4000F601408151814E01F2E58F0E911CF40183
:103E500060817181CE010E94041EFE01EC57FF4F6C
:103E600081110EC01082DF91CF911F910F91FF90B1
:103E7000EF90DF90CF90BF90AF909F908F9008957C
:103E800081E08083F40180819181FE01E65BFF4F38
:103E9000208131812817390710F491838083F5013F
:103EA00080819181FE01E45BFF4F20813181821787
:103EB000930710F491838083F60180819181FE0144
:103EC000E25BFF4F208131812817390710F491837D
:103ED0008083F70180819181C05BDF4F2881398128
:103EE0008217930708F0BFCF99838883BCCFFC016A
:103EF000E65BFF4F118210823296DC01AA5BBF4F56
:103F00002D913C91119731832083329614972D91F6
:103F10003C91119731832083329612962D913C91DA
:103F2000318320830C94011FFC01EE5AFF4F118254
:103F3000108234961182108232972FEF3FEF318337
:103F40002083349631832083DC01D696ED91FC9159
:103F50000280F381E02D09940F931F93CF93DF9399
:103F6000EC01FC01E65AFF4F118210823DAB2CABF5
:103F700079AF68AF4AAF1BAE3F961082B096108201
:103F800034971082359681E08083319680831FAB11
:103F90000EABD801ED91FC91CE010995CE010E94A6
:103FA000941FCE010E94161DC459DF4F1882DF9165
:103FB000CF911F910F910895662329F06A3019F06F
:103FC000862F90E008958FEF9FEF0895FC01108EEB
:103FD00008959A01DC011896ED91FC91462F67E156
:103FE0000994CF93DF931F92CDB7DEB76983AE01FB
:103FF0004F5F5F4F61E00E94E91F0F90DF91CF910B
:104000000895DC011896ED91FC9130E020E040E04D
:1040100068E10994DC011896ED91FC9130E020E014
:1040200040E069E10994EF92FF921F93CF93DF93F1
:10403000EC01162F7A010E94012060E4CE010E945B
:10404000F11FE885F9859701412F67E1CE010995B8
:10405000CE01DF91CF911F91FF90EF900C940A2039
:10406000462FDC011696ED91FC9130E020E065E1F1
:104070000994462FDC011696ED91FC9130E020E08A
:1040800066E109949A01DC011696ED91FC91462FA8
:1040900067E10994DC011696ED91FC9130E020E097
:1040A00040E068E10994DC011696ED91FC9130E066
:1040B00020E040E069E10994EF92FF920F931F9393
:1040C000CF93DF931F92CDB7DEB77C018B01D80170
:1040D0006C91673129F150F46531A0F40F90DF91B4
:1040E000CF911F910F91FF90EF9008956A3118F1D1
:1040F0006E3FA1F7F8014181498369E2C7010E943F
:104100002B220BC0F80141814983D7011696ED910E
:10411000FC9130E020E0C70109950E5F1F4FD7CF1B
:10412000F80181818983AE014F5F5F4F61E0C70174
:104130000E944220F2CF0F5F1F4FD7011696ED91DC
:10414000FC9130E020E040E0C7010995C0CFEF923C
:10415000FF921F93CF93DF93EC01142F7901663107
:1041600081F138F4643109F44BC0653179F080E0B5
:1041700022C06831C9F150F16931C9F780910E044C
:10418000882391F1CE010E940A202EC080910E0456
:10419000882319F0CE010E940A20CE010E9401203E
:1041A00060E0CE010E94F11F612FCE010E94F11F3D
:1041B00081E080930E04DF91CF911F91FF90EF90EB
:1041C0000895642F0E94F11F81E0F5CF80910E04C5
:1041D000882319F0CE010E940A20A701193138F472
:1041E000612FCE010E94132010920E04EDCF68E1E2
:1041F000CE010E941320185188E1E80EF11CEDCF8A
:104200008E898F3F11F488E78E8BE885F9859701B9
:10421000412F64E1CE01DF91CF911F91FF90EF908C
:104220000994EF92FF920F931F93CF93DF93EC01CA
:10423000042F79016D3009F447C020F46B3099F1F7
:1042400080E03BC06E3009F452C06F30C9F70E9465
:104250004A20F7011381110F110F110F6C89160FEE
:1042600060E4CE010E943020612F62956F70606122
:10427000CE010E943020612F6F70CE010E94392044
:10428000F7016481606BCE010E943920F701408103
:1042900051816281660F660F660FCE010E94422037
:1042A0000150A1F72EC061E871E0442311F06CE7E2
:1042B00071E0CE010E945C2081E0DF91CF911F91DF
:1042C0000F91FF90EF900895411109C065E771E0EB
:1042D0000E945C20E881F98182898C8BEDCF6EE6AB
:1042E00071E00E945C20E881F9818389F6CF0E9409
:1042F0004A2061E8CE010E943020602FCE010E944A
:104300003920CE010E945320D7CF1F93CF93DF9344
:10431000EC01162F0E94112181110CC0193079F087
:104320001A3049F4CE010E94AD2166E871E0CE0159
:104330000E945C2081E0DF91CF911F91089566E596
:1043400071E0CE010E94A521F5CFFC01718360834D
:10435000FB012289FC01248B0895CF93DF93EC01AC
:10436000EA85FB8530E020E040E068E20995EE81D7
:10437000FF8130E020E040E064E1CE01099541E0BA
:104380006BE4CE010E942B22E881F981448169E22D
:10439000CE010E942B2240E06BE4CE010E942B2232
:1043A000E881F981448169E2CE010E942B2241E03B
:1043B0006BE4CE010E942B22E881F981458169E2FC
:1043C000CE01DF91CF910C942B220F931F93CF93AB
:1043D000DF9300D000D01F92CDB7DEB76C834D8342
:1043E0002B831A830983DC011496ED91FC919E01C5
:1043F0002F5F3F4F41E06FE009950F900F900F90B6
:104400000F900F90DF91CF911F910F910895DC01D4
:104410001496ED91FC9130E020E040E069E00994D1
:10442000DC011496ED91FC9130E020E040E06AE080
:104430000994462FDC011496ED91FC9130E020E0C8
:104440006BE00994DC011496ED91FC9130E020E0E2
:1044500040E060E10994DC011A96ED91FC9130E0B6
:1044600020E0099480E00895FC011182108282E32B
:1044700092E295838483978386839187808793874D
:104480008287158A108E14861586168617868FEFFA
:10449000868B828FDF015E96F4968D93AE17BF07F1
:1044A000E1F70895AF92BF92CF92DF92EF92FF9221
:1044B0000F931F93CF93DF93EC015B016A017901A6
:1044C0000E943422BD82AC82DF82CE82F986E886E9
:1044D0001B870A87CE01DF91CF911F910F91FF902B
:1044E000EF90DF90CF90BF90AF900C940722CF93C6
:1044F000DF931F92CDB7DEB7FC01698387898823DC
:10450000F9F02689848595852817190654F081E0ED
:1045100090E09383828390E080E00F90DF91CF91D1
:1045200008958981A58923893489A20FB32FB11DEC
:104530008C9385898F5F858B868B81E090E0EDCFB2
:1045400000A4F1A5E02D61E0CE0101960995F5CF1B
:10455000FC0181899089891B990B0895FC01908940
:1045600081892FEF3FEF981740F4A685B785A90FF3
:10457000B11D2C9130E09F5F908BC9010895DC0143
:104580005096EC91509751968C915197E81748F4BA
:104590001E968D919C91E80FF92FF11D808190E07E
:1045A00008958FEF9FEF08950895CF92DF92EF92D5
:1045B000FF920F931F93CF93DF938C01CB017A016E
:1045C000D80157962C915797222389F0EB016B0164
:1045D000C40ED51ECC15DD0579F06991D801ED9199
:1045E000FC910190F081E02DC8010995F3CF9896D8
:1045F000ED91FC91642F0995C701DF91CF911F9137
:104600000F91FF90EF90DF90CF9008952F923F92FF
:104610004F925F926F927F928F929F92AF92BF92D2
:10462000CF92DF92EF92FF920F931F93CF93DF937E
:10463000CDB7DEB760970FB6F894DEBF0FBECDBF23
:104640003C012B015A8349833C832B838DA19EA17E
:104650009E838D83EFA1F8A5F887EF8389A59AA59E
:104660009A878987EBA5FCA5FC87EB872DA43EA440
:104670008FA598A99E878D87E9A9FAA9F88BEF875E
:10468000F3011382128288EE93E0A0E0B0E084830D
:104690009583A683B7838FEB91E0918380837587A1
:1046A0006487CB010E941F2EF30197878687108AAB
:1046B000118A128AC2010E941F2EF301948B838BF0
:1046C000158A168A178A89819A81958F848F8B81A2
:1046D0009C81978F868F11A300A3F3A2E2A2D5A29B
:1046E000C4A2B7A2A6A291A680A68D819E8193A7FF
:1046F00082A78F81988595A784A789859A8597A792
:1047000086A7C101EB85FC8509958F859889ED8584
:10471000FE8560960FB6F894DEBF0FBECDBFDF9169
:10472000CF911F910F91FF90EF90DF90CF90BF90AE
:10473000AF909F908F907F906F905F904F903F9041
:104740002F900994CF93DF93EC018FEB91E0998345
:10475000888361E070E08E859F850E94212E61E054
:1047600070E08B899C89DF91CF910C94212EFC0104
:10477000108A118A158A168A048CF58DE02D099409
:10478000DC019296ED91FC91CB01BA010994FC01F8
:1047900081E0878B628B158A168A08950F93CF93D9
:1047A000DF93EC018B899C89EEA1FFA1062F21E00C
:1047B0004E89BC018A8909951D8A1E8A1F8ADF914C
:1047C000CF910F91089561E00C94CE23FC01CA01B2
:1047D000228D338D232BD9F0308921893217B8F0FF
:1047E00020E0422F50E0481759075CF4DB01A40F8A
:1047F000B51F3C91A685B785A40FB51F3C932F5FCD
:10480000F0CF108A818B028CF38DE02D09940895EE
:10481000AB01BC018FE094E00C94E623DC015896D8
:10482000ED91FC915997309731F055961C92559720
:1048300056961C92099408958FE094E00C940E24EF
:104840008F929F92AF92BF92CF92DF92EF92FF92A0
:104850000F931F938CE194E29F938F9386E895E2E8
:104860009F938F9388E094E29F938F9381E895E2E2
:104870009F938F938DE995E29F938F9383E995E2C0
:104880009F938F938BE895E29F938F938AE5882E71
:1048900085E2982E93E0A92E95E2B92E2BEBC22E3D
:1048A00024E2D22E38EAE32E34E2F32E04EA14E2B4
:1048B00027E934E249E754E260E270E08FE094E0F7
:1048C0000E9406238DB79EB70E960FB6F8949EBF32
:1048D0000FBE8DBF1F910F91FF90EF90DF90CF9093
:1048E000BF90AF909F908F9008958FE094E00C94CC
:1048F000A2231092AC0481E08093AA041092A90430
:1049000061E082E10E94C52F61E083E10E94C52F32
:10491000E9EBF0E080818E7F808380818D7F8083D2
:1049200088E48093B80085E48093BC000895ECEBA4
:10493000F0E080818A7B808360E082E10E94C52F65
:1049400060E083E10C94C52F880F8093BA0008952E
:104950009B01AC0160E074E284EF90E00E9441337F
:1049600020513109410951095695479537952795A9
:104970002093B8000895413208F043C09091AC04F0
:104980009111FCCF91E09093AC042093AA042FEFF7
:1049900020933F0410928404240F20938304909367
:1049A000AB049091AB04880F892B8093AB0480916A
:1049B000A904813009F51092A9048091AB04809379
:1049C000BB008091BC0083FDF8CF85EC8093BC00D8
:1049D0008091AC048130E1F380918404841710F459
:1049E00040918404A5E8B4E0962FFB018E2F891B2B
:1049F000841720F0842F089585EEE8CF8D91819360
:104A0000F5CF40E0F7CF0F93413208F04BC09091C3
:104A1000AC049111FCCF92E09093AC040093AA04F3
:104A20009FEF90933F041092840440938304362FA9
:104A3000A5E8B4E0FB019E2F931B941770F1109230
:104A4000AB049091AB04880F892B8093AB048091C9
:104A5000A904813029F51092A9048091AB048093B8
:104A6000BB008091BC0083FDF8CF85EC8093BC0037
:104A7000222321F08091AC048230D1F380913F0455
:104A80008F3F91F080913F04803281F080913F040C
:104A9000803371F084E00F91089591919D93CBCF75
:104AA00085EEE4CF81E0F7CF80E0F5CF82E0F3CF71
:104AB00083E0F1CF20916104260F3327331F213289
:104AC0003105ECF42091AC04FC0190E080E024304E
:104AD00069F082E00895A09161042191AC014D59E3
:104AE0005B4FA40FB52FB11D2C930196861798F339
:104AF00080916104680F6093610480E0089581E013
:104B000008959093A6048093A50408959093A80413
:104B10008093A7040895882321F085EC8093BC003E
:104B2000089585E8FBCF85ED8093BC008091BC00A3
:104B300084FDFCCF1092AC04089585EC8093BC00FA
:104B40001092AC0408951F920F920FB60F92112489
:104B50002F933F934F935F936F937F938F939F9385
:104B6000AF93BF93EF93FF938091B900887F803616
:104B700009F44CC008F03FC0883209F4A8C018F509
:104B8000803109F49CC0B8F4882309F4F9C0883056
:104B900009F495C0FF91EF91BF91AF919F918F91D3
:104BA0007F916F915F914F913F912F910F900FBE29
:104BB0000F901F901895883109F489C0803251F701
:104BC00080933F0415C0803409F49EC048F48033BC
:104BD000B9F38833F9F680933F040E949D25DACF1C
:104BE000803509F485C0883509F496C0883491F67B
:104BF0000E949325CFCF883909F48CC038F58837C7
:104C000029F050F4883611F0803721F683E0809344
:104C1000AC041092400457C0883809F47BC0803936
:104C200019F0803809F0B6CF80914004803208F046
:104C300071C0E091400481E08E0F80934004809128
:104C4000BB00F0E0EF5BFB4F80833DC0803B39F061
:104C5000E0F4803A09F479C0883A09F09BCF84E007
:104C60008093AC041092620410926104E091A70456
:104C7000F091A80409958091610481110FC081E031
:104C8000809361041092630409C0803C09F476C0EB
:104C9000883C09F473C0883B09F07CCFE091620442
:104CA00081E08E0F80936204F0E0ED59FB4F80812C
:104CB0008093BB00909162048091610429C080912F
:104CC000AB048093BB0085EC8093BC0063CF9091D4
:104CD000840480918304981758F5E091840481E05E
:104CE0008E0F80938404F0E0EB57FB4F8081E9CF77
:104CF000E091840481E08E0F809384048091BB0056
:104D0000F0E0EB57FB4F8083909184048091830403
:104D10009817C8F285E8D8CFE091840481E08E0F1F
:104D2000809384048091BB00F0E0EB57FB4F8083BD
:104D30008091AA0481115CCF81E08093A90484EA68
:104D40008093BC001092AC0425CF0E949D258091D9
:104D50004004803230F4E0914004F0E0EF5BFB4F20
:104D600010826091400470E0E091A504F091A604E7
:104D700081E494E00995109240040CCF85ECE0CFDB
:104D800010923F0435CF8DEA94E00C940E24AB01D1
:104D9000BC018DEA94E00C94E6238F929F92AF922F
:104DA000BF92CF92DF92EF92FF920F931F9383EC0B
:104DB00096E29F938F9383E398E29F938F9387EC80
:104DC00096E29F938F938EE298E29F938F938AE46B
:104DD00098E29F938F9380E498E29F938F9388E368
:104DE00098E29F938F9387E0882E88E2982E90EB2D
:104DF000A92E97E2B92E28E6C22E27E2D22E35E55B
:104E0000E32E37E2F32E01E517E224E437E246E22F
:104E100057E260E270E08DEA94E00E9406238DB7CD
:104E20009EB70E960FB6F8949EBF0FBE8DBF1F9112
:104E30000F91FF90EF90DF90CF90BF90AF909F9039
:104E40008F9008958DEA94E00C94A22310924A0565
:104E500081E0809348051092470561E087E10E9458
:104E6000C52F61E088E10E94C52FE9EDF0E0808167
:104E70008E7F808380818D7F808388E48093D800BB
:104E800085E48093DC000895ECEDF0E080818A7B7E
:104E9000808360E087E10E94C52F60E088E10C9488
:104EA000C52F880F8093DA0008959B01AC0160E064
:104EB00074E284EF90E00E944133205131094109AE
:104EC000510956954795379527952093B800089531
:104ED000413208F043C090914A059111FCCF91E016
:104EE00090934A05209348052FEF2093DD041092FC
:104EF0002205240F2093210590934905909149059F
:104F0000880F892B8093490580914705813009F5E9
:104F100010924705809149058093DB008091DC0069
:104F200083FDF8CF85EC8093DC0080914A058130C9
:104F3000E1F380912205841710F440912205A3E249
:104F4000B5E0962FFB018E2F891B841720F0842F4C
:104F5000089585EEE8CF8D918193F5CF40E0F7CFAE
:104F60000F93413208F04BC090914A059111FCCF4C
:104F700092E090934A05009348059FEF9093DD04DB
:104F80001092220540932105362FA3E2B5E0FB01E4
:104F90009E2F931B941770F110924905909149052B
:104FA000880F892B8093490580914705813029F529
:104FB00010924705809149058093DB008091DC00C9
:104FC00083FDF8CF85EC8093DC00222321F08091D3
:104FD0004A058230D1F38091DD048F3F91F08091BA
:104FE000DD04803281F08091DD04803371F084E053
:104FF0000F91089591919D93CBCF85EEE4CF81E001
:10500000F7CF80E0F5CF82E0F3CF83E0F1CF2091BE
:10501000FF04260F3327331F21323105ECF4209192
:105020004A05FC0190E080E0243069F082E00895B8
:10503000A091FF042191AC014F5F5A4FA40FB52FEF
:10504000B11D2C930196861798F38091FF04680F89
:105050006093FF0480E0089581E0089590934405F3
:1050600080934305089590934605809345050895E0
:10507000882321F085EC8093DC00089585E8FBCF40
:1050800085ED8093DC008091DC0084FDFCCF1092E4
:105090004A05089585EC8093DC0010924A05089536
:1050A0001F920F920FB60F9211242F933F934F939D
:1050B0005F936F937F938F939F93AF93BF93EF9380
:1050C000FF938091D900887F803609F44CC008F0A6
:1050D0003FC0883209F4A8C018F5803109F49CC09B
:1050E000B8F4882309F4F9C0883009F495C0FF9119
:1050F000EF91BF91AF919F918F917F916F915F9150
:105100004F913F912F910F900FBE0F901F901895C8
:10511000883109F489C0803251F78093DD0415C0CD
:10512000803409F49EC048F48033B9F38833F9F62B
:105130008093DD040E944A28DACF803509F485C0C7
:10514000883509F496C0883491F60E944028CFCF64
:10515000883909F48CC038F5883729F050F488363E
:1051600011F0803721F683E080934A051092DE0427
:1051700057C0883809F47BC0803919F0803809F0AD
:10518000B6CF8091DE04803208F071C0E091DE0479
:1051900081E08E0F8093DE048091DB00F0E0E1522D
:1051A000FB4F80833DC0803B39F0E0F4803A09F446
:1051B00079C0883A09F09BCF84E080934A05109229
:1051C00000051092FF04E0914505F0914605099510
:1051D0008091FF0481110FC081E08093FF04109241
:1051E000010509C0803C09F476C0883C09F473C00D
:1051F000883B09F07CCFE091000581E08E0F809321
:105200000005F0E0EF5FFA4F80818093DB00909122
:1052100000058091FF0429C0809149058093DB003F
:1052200085EC8093DC0063CF90912205809121056D
:10523000981758F5E091220581E08E0F80932205A2
:10524000F0E0ED5DFA4F8081E9CFE091220581E049
:105250008E0F809322058091DB00F0E0ED5DFA4F28
:10526000808390912205809121059817C8F285E8E6
:10527000D8CFE091220581E08E0F809322058091A6
:10528000DB00F0E0ED5DFA4F8083809148058111ED
:105290005CCF81E08093470584EA8093DC00109224
:1052A0004A0525CF0E944A288091DE04803230F4DE
:1052B000E091DE04F0E0E152FB4F10826091DE04E9
:1052C00070E0E0914305F09144058FED94E009957D
:1052D0001092DE040CCF85ECE0CF1092DD0435CFC8
:1052E000FC01918D228D892F90E0805C9F4F821B65
:1052F00091098F7399270895FC01918D828D9817DC
:1053000031F0828DE80FF11D858D90E008958FEFCB
:105310009FEF0895FC01918D828D981761F0A28D09
:10532000AE0FBF2FB11D5D968C91928D9F5F9F73C5
:10533000928F90E008958FEF9FEF0895FC01538DB9
:10534000448D252F30E0842F90E0821B930B54175F
:1053500010F0CF9608950197089583E19BE2892B81
:1053600049F080E090E0892B29F00E94132B8111F5
:105370000E94000082EA9BE2892B49F080E090E0E5
:10538000892B29F00E94A22B81110C940000089512
:10539000FC01A48DA80FB92FB11DA35ABF4F2C91AA
:1053A000848D90E001968F739927848FA689B789A1
:1053B0002C93A089B1898C9180648C93938D848D7A
:1053C000981306C00288F389E02D80818F7D808349
:1053D0000895CF93DF93EC01888D8823B9F0AA89D3
:1053E000BB89E889F9898C9185FD03C0808186FDA0
:1053F0000DC00FB607FCF7CF8C9185FFF2CF8081EF
:1054000085FFEDCFCE010E94C829E9CFDF91CF9172
:105410000895EF92FF920F931F93CF93DF93EC01C8
:1054200081E0888F9B8D8C8D981316C0E889F9894F
:10543000808185FF11C0EE89FF896083E889F98941
:1054400080818064808381E090E0DF91CF911F9123
:105450000F91FF90EF900895F62E0B8D10E00F5FE7
:105460001F4F0F731127E02E8C8D8E110CC00FB6BD
:1054700007FCFACFE889F989808185FFF5CFCE0155
:105480000E94C829F1CFEB8DEC0FFD2FF11DE35ADF
:10549000FF4FF0820B8FEA89FB8980818062D2CF37
:1054A000CF92DF92EF92FF921F93CF93DF93EC01A5
:1054B0006A017B01122FE889F98982E08083C11497
:1054C00081EED806E104F104A1F060E079E08DE31B
:1054D00090E0A70196010E94413321503109410912
:1054E00051095695479537952795211580E138073D
:1054F00098F0E889F989108260E874E88EE190E01C
:10550000A70196010E9441332150310941095109F7
:105510005695479537952795EC85FD853083EE8523
:10552000FF852083188EEC89FD891083EA89FB8929
:10553000808188698083EA89FB8980818F7D80836F
:10554000DF91CF911F91FF90EF90DF90CF90089562
:10555000CF93DF93EC01E881F9810680F781E02D9C
:105560000995EA89FB898081877480838A8D898F78
:10557000DF91CF9108951F920F920FB60F921124D1
:105580002F938F939F93EF93FF93E0915B05F0919F
:105590005C058081E0916105F091620582FD1BC090
:1055A0009081809164058F5F8F73209165058217CC
:1055B00041F0E0916405F0E0E55BFA4F958F809350
:1055C0006405FF91EF919F918F912F910F900FBEE6
:1055D0000F901F9018958081F4CF1F920F920FB6F5
:1055E0000F9211242F933F934F935F936F937F9369
:1055F0008F939F93AF93BF93EF93FF938BE495E0CB
:105600000E94C829FF91EF91BF91AF919F918F9117
:105610007F916F915F914F913F912F910F900FBEAE
:105620000F901F9018958BE495E00E94702921E05F
:10563000892B09F420E0822F0895EBE4F5E0138232
:10564000128288EE93E0A0E0B0E084839583A68385
:10565000B78381ED91E09183808385EC90E095871D
:10566000848784EC90E09787868780EC90E0918B2C
:10567000808B81EC90E0938B828B82EC90E0958B19
:10568000848B86EC90E0978B868B118E128E138E16
:10569000148E08951F920F920FB60F9211242F931C
:1056A0008F939F93EF93FF93E091F805F091F905A5
:1056B0008081E091FE05F091FF0582FD1BC0908185
:1056C000809101068F5F8F7320910206821741F04F
:1056D000E0910106F0E0E851FA4F958F80930106C2
:1056E000FF91EF919F918F912F910F900FBE0F908F
:1056F0001F9018958081F4CF1F920F920FB60F92D2
:1057000011242F933F934F935F936F937F938F93C6
:105710009F93AF93BF93EF93FF9388EE95E00E9422
:10572000C829FF91EF91BF91AF919F918F917F9188
:105730006F915F914F913F912F910F900FBE0F90FE
:105740001F90189588EE95E00E94702921E0892B22
:1057500009F420E0822F0895E8EEF5E0138212822A
:1057600088EE93E0A0E0B0E084839583A683B783BE
:1057700081ED91E0918380838DEC90E09587848723
:105780008CEC90E09787868788EC90E0918B808BFB
:1057900089EC90E0938B828B8AEC90E0958B848BE4
:1057A0008EEC90E0978B868B118E128E138E148E5A
:1057B0000895AF92BF92CF92DF92EF92FF920F9334
:1057C0001F93CF93DF936C017B018B01040F151F97
:1057D000EB015E01AE18BF08C017D10759F06991FF
:1057E000D601ED91FC910190F081E02DC601099563
:1057F000892B79F7C501DF91CF911F910F91FF9010
:10580000EF90DF90CF90BF90AF900895FB01019093
:105810000020E9F73197AF01461B570BDC01ED91F2
:10582000FC910280F381E02D0994EF92FF920F9397
:105830001F93CF93DF938C017B01D0E0C0E0F70191
:10584000EC0FFD1F6491662361F0D801ED91FC918E
:105850000190F081E02DC8010995892B11F0219666
:10586000EECFCE01DF91CF911F910F91FF90EF907E
:105870000895DC01ED91FC910190F081E02D0994F7
:105880008F929F92AF92BF92EF92FF920F931F93CE
:10589000CF93DF93CDB7DEB7A1970FB6F894DEBFF5
:1058A0000FBECDBF7C01FA01CB0119A2223008F452
:1058B0002AE08E010F5D1F4F822E912CB12CA12C5E
:1058C000BF01A50194010E944133F901CA016A3068
:1058D0000CF5605DD8016E938D01232B242B252BB5
:1058E00079F790E080E0109721F0BD01C7010E9498
:1058F000062CA1960FB6F894DEBF0FBECDBFDF9188
:10590000CF911F910F91FF90EF90BF90AF909F901C
:105910008F900895695CDECFCF92DF92EF92FF9275
:105920000F931F93CF93DF932115310581F4DC0191
:10593000ED91FC910190F081E02D642FDF91CF91EA
:105940001F910F91FF90EF90DF90CF9009942A3034
:10595000310501F52AE077FF1DC06A017B01EC01EA
:105960006DE20E94392C8C0144275527BA014C194D
:105970005D096E097F092AE0CE010E94402C800F4C
:10598000911FDF91CF911F910F91FF90EF90DF90CA
:10599000CF900895DF91CF911F910F91FF90EF90DD
:1059A000DF90CF900C94402C2115310541F4DC019F
:1059B000ED91FC910190F081E02D642F09940C94FD
:1059C000402C9A01AB0170E060E00C94D42C2F9233
:1059D0003F924F925F926F927F928F929F92AF927F
:1059E000BF92CF92DF92EF92FF921F93CF93DF93FC
:1059F000EC016A017B01722EAB019601CB01B6016D
:105A00000E94F0326FED71E0811126C0460157010E
:105A1000E894B7F82FEF3FEF4FE75FE7C501B40118
:105A20000E94F03281110CC02FEF3FEF4FE75FE78C
:105A3000C501B4010E94893063EE71E0181664F06C
:105A40002FEF3FEF4FE75FE4C701B6010E94E83157
:105A50001816B4F467EE71E0CE01DF91CF911F917B
:105A6000FF90EF90DF90CF90BF90AF909F908F907E
:105A70007F906F905F904F903F902F900C94062CEA
:105A80002FEF3FEF4FE75FECC701B6010E9489306F
:105A900087FDE0CF20E030E0A901C701B6010E94F8
:105AA0008930312C212C87FF09C06DE2CE010E9484
:105AB000392C1C01F7FAF094F7F8F09410E060E04C
:105AC00070E080E09FE3711641F020E030E040E2BA
:105AD00051E40E948E301F5FF6CFA70196010E940D
