:100000000C94040A0C942C0A0C942C0A0C94C60A26
:100010000C942C0A0C942C0A0C942C0A0C942C0A88
:100020000C942C0A0C942C0A0C942C0A0C942C0A78
:100030000C942C0A0C942C0A0C942C0A0C942C0A68
:100040000C9457330C942C0A0C947E300C94B030E2
:100050000C942C0A0C942C0A0C942C0A0C942C0A48
:100060000C94662B0C942C0A0C942C0A0C942C0ADD
:100070000C942C0A0C942C0A0C942C0A0C942C0A28
:100080000C942C0A0C942C0A0C942C0A0C942C0A18
:100090000C942C0A0C942C0A0C942C0A0C942C0A08
:1000A0000C94132E0C942C0A0C942C0A0C942C0AED
:1000B0000C942C0A08000000BE922449123EABAA00
:1000C000AA2ABECDCCCC4C3E00000080BEABAAAA72
:1000D000AA3E00000000BF000000803F00000000BA
:1000E00000084178D3BB4387D1133D190E3CC3BDF3
:1000F0004282AD2B3E68EC8276BED98FE1A93E4CA0
:1001000080EFFFBE01C4FF7F3F00000000004220DF
:100110004B75727A7363686C7573730041204B750D
:10012000727A7363686C7573730042204B75727AD0
:100130007363686C757373206E616368204D6173BF
:1001400073650041204B75727A7363686C757373C5
:10015000206E616368204D6173736500C39C6265A6
:100160007274656D7065726174757200566F727726
:1001700061726E756E6720C39C62657274656D7086
:1001800065726174757200430020006C74656D7057
:100190002E200062657274656D706572617475728F
:1001A000004861757074736368616C746572206176
:1001B00075730074696774004272656D73652062BF
:1001C000657400746967740048616E646272656D7D
:1001D0007365206265740020250053706572726734
:1001E000726164200048616C64657820436F6E74AE
:1001F000726F6C6C6572004B75727A7363686C75A4
:10020000737320566F726C61646570756D706500F4
:10021000616C6C7261646275732E636F6D00544320
:10022000413936350048616C64657820436F6E74DF
:10023000726F6C6C657200BF000302040402040557
:100240000B0DFFFE08FE08FE015302BD08672005E6
:1002500000E604210681E3C4252207233B45A204CE
:10026000231076A2559225D12025C92025591201A7
:100270002410A59E55B654946C4BA244A96C110051
:10028000251088628ED49229799C275A12951400E1
:10029000260D86238E16B56951A2259129270621A0
:1002A000BA8400280BA31A551225515B9405290C1A
:1002B000A31B451665514B9444002A07333645D29B
:1002C000012B0A55A655180D5218012C0732DA4C8D
:1002D000A2002D06132EC5002E0611E344002F0A9E
:1002E00083E254256A892200300A85A2CD92F996CC
:1002F0002C00310782A3CDD207320C85A2CD928586
:1003000025290B0701330C85A2CD9285911A6AC964
:1003100002340E85A25D262551524A062D4C003529
:100320000C85A2CD9084E11A6AC902360C85A2CD53
:1003300092894392D99205370B85A2C52066C52CB8
:10034000AC01380C85A2CD9269C992D99205390CBD
:1003500085A2CD92D99221D492053A0661E3441840
:100360003B0982DA4C0E250A003C0753A755522B55
:100370003D08346AC5100E013E0853A745562901B1
:100380003F0B84A38D1265512D8F0040169ADEDE3F
:1003900020A651A4245249C92225AA448A966383DF
:1003A00006410E87E25D9C26619295062555034223
:1003B0000D85E3C59064DAA064B64101430C862341
:1003C000CE90846AC7644800440D8623C6106549F0
:1003D000E82D192200450A85E3C5311CC6E22046F6
:1003E0000A85A3C5311C92B011470C8623CE908498
:1003F0006A6D149341480A862346681C06D1314928
:100400000681E3C4414A0984625D6F52A2004B0D2C
:1004100085E3452625A5A9122599164C0884A345F0
:10042000D6B7214D10876346BA0DD952512A5224AE
:100430004552014E0F862386B62991124989946848
:100440009B004F0B8623CE90843E264302500C85A2
:10045000E3C59064DAA0848D005112971FCE1085F9
:10046000499884499844494D1AF400520C85E3C5D3
:100470009064DAA0646E01530C85E3CD92A9ABA61B
:10048000250B0054098562C520857D02550A862307
:1004900046E8C7644800560F87E245AA26599445A6
:1004A00059254CD20C5710896246966995A82F6D34
:1004B000C52CCC2200580D85E345A625B54A94D419
:1004C000B400590E87E2459A645156099334AE013F
:1004D0005A0B85E3C52066C5AC38085B08A2DBC4AF
:1004E000D22F025C0A83E24494456D51005D08A25C
:1004F000DA84D22F035E0A55AE55982551520B5F10
:1005000006169AC501600622FE4414610C6562C598
:100510001A2D5112454A00620C85A245583169DAFC
:10052000A42800630A64628D1269A54401640A85E7
:10053000A265C5B4991425650B64628D120D5B9498
:100540002800660A842295124D592700670C859A67
:100550008D6933294A982C00680A85A2455831696B
:100560006E01690781A244320C6A09A2994C96F483
:10057000A2006B0C846245565212292949016C066F
:1005800081A2C4416D0E6722C6A244911449911400
:1005900049056E0965A24562D2DC026F0A65A2CDEB
:1005A00092B9250B00700C859A4562D2B44951C2AC
:1005B00010710A859A8D6933294A58720963224558
:1005C000B2444D00730B64628D1225A2942800740E
:1005D0000A83224D942C5193007508646245E429E6
:1005E00019760C65A245A625A5240B2300770E6776
:1005F0002246144995A6A496844904780A65A24522
:1006000096D42A352D790E85594D94444929C9B47B
:1006100030D2007A0A6462C590456D43007B0AA31C
:10062000DA541255B2A82D7C07A1DBC443007D0B20
:10063000A3DA4416D592A825027E0726EE8D640122
:10064000A00500E604A10781DB44320CA20E859FC1
:100650005DB45494288992CA9401A30C85A2955440
:10066000C9B6B0A42800A40C6466459428919428C7
:100670005100A50D85A245664B2A83140D5204A690
:1006800008A1DBC4100D01A70FA59ACD928D4B34A4
:1006900044C9B8250B00A80613FE4412A90E7763BF
:1006A000D65689142593945A3601AA08532EC5A408
:1006B0006403AB0A55A255D25B922501AC0735EB1A
:1006C000C52016AD06132EC500AE0D7763D656496C
:1006D0001693D22D9B00AF0613FEC400B00944321E
:1006E0008D12498902B10B75A255180D52980F024F
:1006F000B20743F2CC5219B30843F2C4922D00B4AE
:100700000622FE8C02B50A845A45E469D83200B646
:1007100015A69ACD3028C9922C9192255992255927
:1007200092250900B70612EE8400B80622DACC0042
:10073000B90642F2CC52BA09532EC5900CD900BB6F
:100740000B55A245922559D21300BC1289624E96D0
:10075000696194467916465A34446102BD10886234
:100760004E1669A5308A232D2965A501BE1289621E
:10077000C69EA55126E54814466232446102BF0B6D
:10078000849B559E45B5285100C010B7E2559EC3C5
:10079000D5244CB2D2A0A46A00C110B7E2659AC3B6
:1007A000D5244CB2D2A0A46A00C211B7E25D9AE48B
:1007B000689C2661929506255503C312B7E25D92A7
:1007C00025391AA7499864A54149D500C410A7E264
:1007D0005592A3719A8449561A94540DC510B7E2E4
:1007E0005D9AA471350993AC3428A91AC61289A25E
:1007F000DEB0C9499C0C4A940E6116668300C70D91
:10080000A61BCE90846AC764084309C80CB5E34DA3
:100810009A0F63388CC541C90CB5E35D7D18C3617F
:100820002C0E02CA0DB5E35596C4C3180E637110A1
:10083000CB0CA5E34D7918C3612C0E02CC09B2E2B2
:10084000449425FD00CD09B2E38C96F40B00CE094B
:10085000B3E24C63D42F00CF09A3E2441246FD0259
:10086000D0118722CE9095C2414AC2244CB26888EA
:1008700000D112B62356122539A26D4AA444522241
:1008800025DA26D20EB623569C434312FA980C0959
:1008900000D30DB623661D1A92D0C7644800D40E4B
:1008A000B6235698E4D090843E264302D50FB62353
:1008B000561225393424A18FC99000D60EA6234E96
:1008C00094234312FA980C0900D70A55A64596D4EA
:1008D0002AB500D812A61F6E3224D994488912294D
:1008E000D1960C490AD90CB623569C23A11F9321FB
:1008F00001DA0CB623661D09FD980C0900DB0DB664
:10090000235698E448E8C7644800DC0BA6234E94BD
:10091000877E4C8604DD10B7E2659A63699245597B
:10092000254CD2B806DE0D85E345180E49A60D4AC2
:100930001802DF0B84628D12594A2E0900E00D95D2
:10094000624D9AAFD1122551A404E10E95625596DD
:10095000236BB44449142901E20E95625596C46B89
:10096000B44449142901E30D95624DF7355AA22488
:100970008A9400E40C85624D798D9628892225E5BC
:100980000F9562559664D11A2D5112454A00E60E14
:100990006722C62246C930445954B100E70C845A34
:1009A0008D1269A5448B1400E80C94624D182BD16C
:1009B000B0458902E90C9462555D89862D4A140080
:1009C000EA0D94624D94C44A346C51A200EB0C843D
:1009D0006245122BD1B0458902EC0892A1449425BE
:1009E0003DED0892A28C96F402EE0993A14C63D4DB
:1009F0000B00EF0983A1441246BD00F00D95A24DF6
:100A00003848D1A0B9250B00F10A94624DA2A44B3D
:100A1000E429F20C95A24D9A234BE6962C00F30B99
:100A200095A25D1D5932B76401F40C95A25596E468
:100A30004BE6962C00F50B95A255D2BE646EC9020A
:100A4000F60A85A24D7DC9DC9205F70955A6553EEB
:100A5000E81100F80D67A1D552929292544B920979
:100A6000F90A94624D98469E9201FA0A94625D9446
:100A7000469E9201FB0A94624D94A491A764FC0ADD
:100A800084624592469E9201FD0FB559659647498D
:100A90009494924C0B230DFE0DA59A45583169DABA
:100AA000A4286108FF0FA5594D3D4AA2A494645A99
:100AB00018690000000004FFFF00005F0004030548
:100AC00005030506171800FB13FB13FB02EA0624B7
:100AD00008AF200600309A00210A631A9EF017EA38
:100AE0000E04220BC5B8A720C18B910800232A4C05
:100AF00016BA24222622262226222622734071405C
:100B000023222622262226227340714023222622D7
:100B1000262226222622042427ACD2B5257774303B
:100B20004121B144C444E442CCAE92B2CE4CE24442
:100B3000C444C444E44282E260E84E540A002531D1
:100B40005512DA3D5736763436B34C4A644E4A6411
:100B50006E6662F264B4641E661E64A674E4706419
:100B6000666E444A6C464A6C66D5D4D9580900264C
:100B7000265016CA547A4841373337333733383121
:100B8000DAF46486826266E664AA666C68AA86E61F
:100B900081C890D1002708C2B89B70400128160672
:100BA00077A124333233323323B3FF486866686653
:100BB00068480029160677A120B46668664868660A
:100BC000FF4666C9CCC88C10002A10E894AB2326D7
:100BD000232171304223A205002B0E8C35BE25AA9D
:100BE000AB830753A2BA022C0AC3B89D70202141DF
:100BF000012D0767D0A2F0012E0763189E70202FE9
:100C0000126716A2A5919422298DA4144929925203
:100C100005301B4C12B66375104342323432343106
:100C2000E69F4D0C8D0C8DB03988B201310C471AFE
:100C3000B6B4E6E08068FF0F321B4C12B653752045
:100C400033433135316636393848C7AC8C8EE1E4F0
:100C5000C18301331F4C12B6537520B3646A626AB4
:100C6000626A7270ACEE7274D2CC8A6286E460C83A
:100C70000600341B4C12B637C8AE99C4D4C494C80D
:100C800090CC3642234323070FE6263701351E4C0E
:100C900012B67130723032B9E541D081CC0CE5E842
:100CA000E4A499D5410CC981940D0036204C12B6AC
:100CB0005475204233326566B982E860A484826844
:100CC00062CCD9C4D0089B83281B0037184C12B6BD
:100CD000F0C120E1CAC1C9C1C9C1C941C2C941C22B
:100CE000C9390038234C12B64476103432333432CA
:100CF00034323432343332657510333431E6D9C48A
:100D0000D0C8C1900D0039204C12B6637420434204
:100D1000413431E6D9110549C5014DC5E4A4D504D6
:100D200049C9815411003A0AC3199E70200F7920D5
:100D30003B0D23BA9D70200F79202141013C0E8D7F
:100D400031BE3A58D619256D69A7033D0BAAB8BA2A
:100D5000F0C0F4E0C0003E0D8D35BA30DA5B4AB227
:100D60001E8E023F186B1ABE6373204272106465B8
:100D700044374746B7707BF8C145004041D696E1FD
:100D800077207B605856454A433C425421323174A7
:100D90002072B3C66668C64668C8646866626448FE
:100DA00068626466C99A25332313342407553315C2
:100DB00073F440F44055A307C50781004125701620
:100DC000CA464C6B6A3922393238323734363436B7
:100DD0003435363436745073703238323831EA7400
:100DE0000042256F1ACA704074603246323831387A
:100DF00031383138313772507360323831E9C3B32A
:100E00008A0393032200431D7016CA75774054531A
:100E1000424731793CBDAF29272627E8486A8A0E28
:100E2000E88E00441E701ACE70407560335632480A
:100E300031393179EA5F5E4E0C528C951CD81C50CA
:100E40000145166D1AC27050715031BAA7072407B8
:100E500024A3FBF4E0410146116C1ABEF081E55E6B
:100E60001E501C504CEE2F0147237116CE75784052
:100E7000555343473239413DBED901D901ADEDE962
:100E8000C424055D49CD8389A99301480E6F1ACE0C
:100E900030E95F1EFC20D27F394908631A9EF03F7B
:100EA000084A116B16BAB8FFA195571333140732CD
:100EB00027004B276E1ACA307746314532443343F8
:100EC0003442354176F7208C826A666A6811CDD447
:100ED000CCD8C818C5DCC41C014C0C6C1ABE30B987
:100EE000FFBF3C78304D32731ADE307D7B107B20A3
:100EF00079307940772021276131356122256232AE
:100F00003362323362A3C66662C66662C6A8C8A8E8
:100F1000C86ACA6ACA6A014E276F1ACE3079F820A9
:100F2000EE20EE40CC62CA62CA64C866C666C66875
:100F3000C44AC46AC2EC40EE20EE20F072004F1D9D
:100F40007116CE7578405553434732394179EB6F6E
:100F50002F292647E8685A1D105E0150176E1AC6E1
:100F600070407360313731E8BB89038B8392D9FDC0
:100F70002D00512291F6CD757840555343473239B3
:100F80004179EB6FCF4228A62646A86C8AA80EEAC4
:100F90002EE64300521A6E1AC67040736031373124
:100FA000E8BB89038B8392318AB989417F3853200A
:100FB0006E1AC6647630435341363137314B5B7A13
:100FC00010795A4B6BE8EE40A6E480EA0800540D15
:100FD0006F12BEF003B1E1FDFF190055136F1ACE79
:100FE00030E9FF977714732335350764470056249B
:100FF0007016CA306A7A483138424633363436C4BD
:101000006A686C688C846E6470647064D2D49698DC
:101010001900573E7516DE30366636663666B6629D
:10102000A86864A868644842686466626646666246
:10103000466864626468444664686266624A6266DE
:10104000424C626642ACAAACAA6EE1DCE0DC100065
:1010500058257016CA307A4841463336353437320F
:101060007810694B4C6B791038323734454434363C
:10107000333841783A591E6F16C6307938313742C5
:1010800036333544343533363337313831595A3BBA
:10109000BCCF005A156E16C2F0534A4E29995232EF
:1010A000A5241DA5243DF8005B0D0577A17060B255
:1010B000FFFFC9C1005C126712A220A54C4A999497
:1010C0006652CAA49449295D0D057BA17030B2FF18
:1010D000FFC981015E132B55BB34385726213531AA
:1010E000B3646662CA6A005F074E70B9F0036008B5
:1010F00086F4A330B401611ECC15BA637510334376
:1011000032343966732052324134313531444152E0
:1011100072405232621A6C1ABE30B9173507232555
:10112000144413637E763451427130325103631597
:10113000CB15B6637410C262C8702F872648480E5C
:10114000824C0064196C16BEB93715230713241599
:1011500043677E363144415272305331651BCC15A2
:10116000BA44761043423234316676F081E4E8D4F2
:10117000040DC981540D0066106716A6435232B49F
:10118000E4E06468FF1300671F6C76BD5331723072
:1011900041523174E66713431424250733159366CF
:1011A00047230743360068116B1ABE30B81734075F
:1011B00013341353FEAF06690A631A9E702076F04B
:1011C000076A0D05739DB2F1C8FE7F7250016B1F57
:1011D0006B1ABA30B84713331423241334475647D5
:1011E000133423332324331443134357036C08630A
:1011F0001A9EF03F086D24D119D6304152727020EA
:101200004152723464346434643464346434643415
:1012100064346434643464B4006E10CB19BE30514D
:101220007230413331E5FF6A006F17CC15BA44764E
:10123000104342323431E6671343236C0EC28800F8
:10124000701B6C7ABD305173305242413431E667C5
:10125000471325140723133593BB0471196C76BD0E
:101260005331723041523174E66713431424250719
:101270003315937B720DC719AA3071F06668FF08A9
:10128000007319CB15B6627410C2626862D0EC208C
:10129000CCF0CAEA86E240E60400740F4716A63294
:1012A000B4C9C1C9D0FE510D017510CB19BE30E5CE
:1012B000FF8862A4C262666400761ACC15BA30E672
:1012C0006C626864686468666468646864CACC8ECA
:1012D000901100772BD311CE303565B5426A4A6440
:1012E000A66664A66646858C90C8C488D0C456128B
:1012F0003212623565357553835383534300781A30
:10130000CB15B630754331B362E8AA6EAEAC6A62F3
:101310008682646682E66A0079206D76BD30673722
:1013200031364134333443423432353266675848BB
:10133000BA727472B0900E007A13CB15B6F041DC1D
:101340003A32BA3932BA7574070F027B0F0777A9A0
:1013500034B368BF5934B568BF5A7C08027F9DF02A
:101360000F0C7D10077BA930B568BF5A34B368BF36
:1013700059047E0D8BB4BA41733061713043010062
:10138000000004FFFF00000A0D0E09000302000028
:10139000040508000000000000000000000000003C
:1013A00000000102040810204080010204081020FF
:1013B00001020408102040804001020408040404D3
:1013C00004040404040202020202020303030303EE
:1013D00003020203050505050000000023002600A6
:1013E00029002C0000000000250028002B002E0002
:1013F00000000000240027002A002D008A13E329A2
:10140000902CE030382AE52C11241FBECFEFD8E015
:10141000DEBFCDBF11E0A0E0B1E0E4ECF4E702C034
:1014200005900D92AC3EB107D9F726E0ACEEB1E0E5
:1014300001C01D92A030B207E1F719E0C2E0DAE086
:1014400004C02197FE010E94B638CE3FD107C9F7EC
:101450000E9444330C94553A0C94000090E080E0D4
:1014600008950895CF92DF92EF92FF920F931F930A
:10147000CF93DF936C01EB017B01E40EF51E10E0CE
:1014800000E0CE15DF0561F06991D601ED91FC9188
:101490000190F081E02DC6010995080F191FF1CFC9
:1014A000C801DF91CF911F910F91FF90EF90DF90D6
:1014B000CF900895CF92DF92EF92FF920F931F93F8
:1014C000CF93DF93EC016C0124E0C20ED11CFC0130
:1014D000E057FF4F0190F081E02DC60109958E3F46
:1014E000EFEF9E07D8F48E010C561F4FF801408194
:1014F00051817E01F2E9EF0EF11CF70160817181EB
:101500009C01C6010E942822C059DF4F288121304A
:10151000C1F078F02230B9F02330E9F081E090E0BA
:10152000DF91CF911F910F91FF90EF90DF90CF90BF
:101530000895F70120813181820F931F9183808369
:10154000EDCFF801F7CFF70120813181281B390B4E
:1015500031832083E3CFF801F7CFFF920F931F93DE
:10156000CF93DF93EC01F62E08811981C8010E9408
:101570003F3AF81621F06F2DC8010E94473ACE017C
:10158000DF91CF911F910F91FF9008951F920F92BD
:101590000FB60F9211242F933F934F935F936F9346
:1015A0007F938F939F93AF93BF93EF93FF938CE0C1
:1015B0000E942735892BB1F18091F101811132C050
:1015C00081E08093F101109206018BE00E942735A3
:1015D000892B21F48091F001882381F18BE00E9416
:1015E0002735892B89F58AE00E942735892B21F43C
:1015F0008091EF01882379F18AE00E942735892BB9
:1016000081F5FF91EF91BF91AF919F918F917F9164
:101610006F915F914F913F912F910F900FBE0F905F
:101620001F9018958CE00E942735892B71F68091C8
:10163000F101882351F21092F101C5CF81E080932E
:10164000F00110920601CFCF8091F001882359F26A
:101650001092F001F6CF81E08093EF011092060125
:10166000D0CF8091EF01882361F21092EF01F6CF85
:101670005F926F927F928F929F92AF92BF92CF9222
:10168000DF92EF92FF920F931F93CF93DF9380919E
:10169000EC018111D7C08091ED018111D3C084E1AB
:1016A00092E00E940B1F8CE0882E912C93E2692E11
:1016B000712C24E6522ECCE3D0E067E372E084E1A3
:1016C00092E00E94DB221092A3021092A20290925A
:1016D000A5028092A40265EE71E080E192E00E9492
:1016E000493120E830E04CE050E070E060E084E117
:1016F00092E00E94AF231092A3021092A202709275
:10170000A5026092A4028091F1018111ABC0809189
:10171000F0018111A7C08091EF018111A3C08091D8
:10172000EE0181119FC06AED71E080E192E00E94BC
:1017300049316BEB7AE084E192E00E94DB22E09099
:10174000AE02F090AF020F2C000C000B110B209199
:10175000A6023091A702032E000C440B550B60919A
:10176000F6017091F701072E000C880B990B1F9260
:101770001F921F925F92A12CB12C65010E94013330
:10178000AB01BC012AE030E080E192E00E94C03170
:1017900067E372E084E192E00E94DB2267ED71E092
:1017A00080E192E00E9449310F900F900F900F90CE
:1017B00067E372E084E192E00E94DB221092A302D0
:1017C0001092A202D093A502C093A40266ED80E11C
:1017D00092E00E945A0A6BE871E080E192E00E9478
:1017E00049316BEB7AE084E192E00E94DB22409188
:1017F000040250910502609106027091070230E0E8
:1018000020E080E192E00E94FF3267E372E084E131
:1018100092E00E94DB2269E871E080E192E00E94A0
:10182000493160EB80E192E00E945A0A67E871E07A
:1018300080E192E00E94493184E192E00E941D1F04
:1018400081113BCFDF91CF911F910F91FF90EF90CE
:10185000DF90CF90BF90AF909F908F907F906F90D0
:101860005F9008958091F001882389F068EC71E021
:1018700080E192E00E94493164EE80E192E00E94B2
:101880005A0A63EC71E080E192E00E944931809154
:10189000F101882389F068EB71E080E192E00E9419
:1018A000493164EE80E192E00E945A0A63EB71E0F4
:1018B00080E192E00E9449318091EF01882331F06C
:1018C00061EA71E080E192E00E9449318091EE018D
:1018D000882309F46DCF6CED80E192E00E945A0AF2
:1018E00063E971E080E192E00E94493161CFCF93DA
:1018F000DF938AEF92E00E944C166093F602709399
:10190000F7028093F8029093F90260FF1DC081E016
:101910008093ED0184E192E00E940B1FCFE0D0E0C4
:101920001092A3021092A202D093A502C093A40227
:101930006CE671E080E192E00E94493184E192E03E
:101940000E941D1F8111ECCF8091F60281FF1DC006
:1019500081E08093ED0184E192E00E940B1FC9E1D8
:10196000D0E01092A3021092A202D093A502C093DD
:10197000A4026CE571E080E192E00E94493184E1CB
:1019800092E00E941D1F8111ECCF8091F60282FF30
:101990001DC081E08093ED0184E192E00E940B1F65
:1019A000CFE0D0E01092A3021092A202D093A50241
:1019B000C093A40263E471E080E192E00E944931A7
:1019C00084E192E00E941D1F8111ECCF8091F6020C
:1019D00083FF1DC081E08093ED0184E192E00E94CD
:1019E0000B1FC9E1D0E01092A3021092A202D09383
:1019F000A502C093A4026AE271E080E192E00E9435
:101A0000493184E192E00E941D1F8111ECCF809149
:101A1000F60284FF1DC081E08093ED0184E192E035
:101A20000E940B1FCFE0D0E01092A3021092A202FE
:101A3000D093A502C093A4026CE171E080E192E032
:101A40000E94493184E192E00E941D1F8111ECCF78
:101A50008091F60285FF1DC081E08093ED0184E155
:101A600092E00E940B1FC9E1D0E01092A3021092F5
:101A7000A202D093A502C093A4026EE071E080E1BF
:101A800092E00E94493184E192E00E941D1F811181
:101A9000ECCFDF91CF9108958F929F92AF92BF923A
:101AA000CF92DF92EF92FF920F931F93BC01990F99
:101AB000880B990B1F921F921F921F92AA24AA941F
:101AC00023E0B22EC12CD12CEE24EA9413E0F12EA7
:101AD00000E010E020E030E0A9010E940133072E71
:101AE000000C880B990B0E946C369B01AC0160E0E6
:101AF00070EC8FE794E40E94C23520E030E040E8CB
:101B00005FE30E9450352091130130911401409100
:101B10001501509116010E9471376093080270936D
:101B2000090280930A0290930B020E9429376B01ED
:101B30007C01C0920C02D0920D02E0920E02F09253
:101B40000F0220910B0130910C0140910D01509139
:101B50000E010E94713720910F01309110014091C8
:101B60001101509112010E9451354B015C012091ED
:101B70000701309108014091090150910A01C70104
:101B8000B6010E947137A70196010E947137A70123
:101B900096010E9471379B01AC01C501B4010E94FE
:101BA00051359B01AC0160E070E080E89FE30E944A
:101BB000C23523E333E948E853E40E94503560938B
:101BC00004027093050280930602909307020F901F
:101BD0000F900F900F901F910F91FF90EF90DF905B
:101BE000CF90BF90AF909F908F9008954F925F924B
:101BF0006F927F928F929F92AF92BF92CF92DF921D
:101C0000EF92FF920F931F93BC01990F880B990BD2
:101C10001F921F921F9224E62F93A12CB12C6501D5
:101C20001CEFE12E13E0F12E00E010E020E030E0A8
:101C3000A9010E9401330E946C3620E030E048EC9C
:101C400052E40E94C2356B017C01AC019B010E94F1
:101C500071374B015C01A70196010E94713726E69E
:101C600036E646E65FE30E9471372B013C0126E62B
:101C700036E646EA5FE3C501B4010E9471379B0175
:101C8000AC01C301B2010E9450354B015C012DEC47
:101C90003CEC4CEA5FE3C701B6010E9471379B013F
:101CA000AC01C501B4010E9451352FE832EC45EF7B
:101CB0005CE30E94513520E030E048EC52E40E94A1
:101CC00071370E943436A090A602B090A7020B2C68
:101CD000000CCC08DD0877FF02C070E060E0072E42
:101CE000000C880B990B0091AE021091AF02012EEF
:101CF000000C220B330B3F932F931F930F9312E68D
:101D0000E12EF12C00E010E023E030E040E050E074
:101D10000E9401332DB73EB7285F3F4F0FB6F894AE
:101D20003EBF0FBE2DBFCB011F910F91FF90EF90D3
:101D3000DF90CF90BF90AF909F908F907F906F90EB
:101D40005F904F900895CF92DF92EF92FF928EE0D6
:101D50000E9452340E944C0D8FE00E9452340E9427
:101D6000F60D9093F7018093F601C0900402D09095
:101D70000502E0900602F090070220E030E040EA21
:101D800051E4C701B6010E94503520E030E040E840
:101D90005EE30E9471370E9434367093F3016093C2
:101DA000F20120E030E048EC52E4C701B6010E94A5
:101DB0001C3718167CF48091EE0181110BC081E074
:101DC0008093EE0110920601FF90EF90DF90CF908C
:101DD0000C94770C20E030E04EEB52E4C701B601E2
:101DE0000E94BD35181684F38091EE01882361F3BB
:101DF0001092EE01E9CFAF92BF92CF92DF92EF92B5
:101E0000FF920F931F930E94A13300910002109143
:101E100001022091020230910302601B710B820BC0
:101E2000930B623371058105910560F00E94A13327
:101E30006093000270930102809302029093030268
:101E40000E94A30E0E94A1330091FC011091FD019C
:101E50002091FE013091FF01601B710B820B930BEF
:101E60006436710581059105F8F00E94A1336093F5
:101E7000FC017093FD018093FE019093FF0182EBC2
:101E800092E00E941F1C6B017C0182EB92E00E9499
:101E90001F1CA70196010E946538643071058105F9
:101EA000910514F40E94380B0E94A1330091F801AF
:101EB0001091F9012091FA013091FB01601B710B27
:101EC000820B930B643F71408105910508F43FC07C
:101ED0000E94A1336093F8017093F9018093FA0195
:101EE0009093FB01E090AE02F090AF020F2C000C3B
:101EF000000B110B2091A6023091A702032E000CBB
:101F0000440B550B6091F6017091F701072E000C00
:101F1000880B990B1F921F921F92E4E6EF93A12C5E
:101F2000B12C65010E9401330F900F900F900F901C
:101F3000633371058105910534F08DE00E942735EA
:101F400061E0892B09F060E08DE00E94F934809116
:101F5000F10181112CC08091F001811128C0809184
:101F6000EE01811124C08091EF01882309F46DC036
:101F700061E084E00E94F93460E087E10E94F93476
:101F800080910601811125C081E08093060140E027
:101F900050E0BA0182EB92E00E94371C40E050E032
:101FA0006AE774E482EB92E00E94511D12C061E086
:101FB00084E00E94F9348091060181110AC081E019
:101FC0008093060140E050E0BA0182EB92E00E946B
:101FD000371C89E00E942735892B09F4A7C010928D
:101FE000EC018091ED01882341F061E084E00E94E2
:101FF000F93460E087E10E94F9342091F6013091D4
:10200000F7014091F2015091F3018091B00290915B
:10201000B1026091A6027091A70277FFB9C0241B9C
:10202000350BAC014C5F5F4F421753070CF0AAC051
:102030003093F5012093F4011F910F91FF90EF90E1
:10204000DF90CF90BF90AF9008958091F101811102
:10205000C0CF8091F0018111BCCF8091EF0181113F
:10206000B8CF8091EE018111B4CF60E084E00E948E
:10207000F93461E087E10E94F9344091F401509114
:10208000F501052E000C660B770B82EB92E00E94A7
:10209000AE1B40E050E06AE774E482EB92E00E94FD
:1020A000511D82EB92E00E94C61D809106018111B4
:1020B00090CF40E050E0BA0182EB92E00E94371CE2
:1020C00040E050E06AE774E482EB92E00E94511D28
:1020D00081E0809306014091F4015091F501052EB5
:1020E000000C660B770B82EB92E00E94AE1B40E087
:1020F00050E06AE774E482EB92E00E94511D82EBAB
:1021000092E00E94311C2091F4013091F501890187
:10211000330F220B330B601771078207930709F403
:1021200058CF82EB92E00E94C61DE9CF87E10E9462
:102130002735892B09F453CF81E08093EC0161E0CE
:1021400084E00E94F93460E087E10E94F93484E180
:1021500092E00E940B1F0FE010E01092A302109279
:10216000A2021093A5020093A40267EF71E080E140
:1021700092E00E94493184E192E00E941D1F81118A
:10218000ECCF2FCF05969093F5018093F40154CFB7
:10219000240F351FAC01445051090597241735070A
:1021A00094F746CF8F929F92AF92BF92CF92DF92D9
:1021B000EF92FF926C0160E084E00E94F9340D2CF4
:1021C000000CEE08FF08B701A60182EB92E00E9426
:1021D000AE1B40E050E068EC73E482EB92E00E94BA
:1021E000511D82EB92E00E94311C0E946C364B0123
:1021F0005C01C701B6010E946C362DEC3CEC4CEC46
:102200005DE30E9471379B01AC01C501B4010E94DE
:10221000BD35882329F082EB92E00E94C61DE1CFF4
:1022200082EB92E00E94311CC616D706E806F9063A
:10223000C1F082EB92E00E94C61D8AEF92E00E94FC
:1022400050160A976CF782EB92E00E94311CCB018A
:10225000FF90EF90DF90CF90BF90AF909F908F90C6
:102260000895F6CFFF920F931F93CF93DF9300D083
:10227000CDB7DEB78C01F72E9A838983CE01019604
:102280000E94AD0A0F5F1F4F1A8309836F2DCE0185
:1022900001960E94AD0A0F900F90DF91CF911F9190
:1022A0000F91FF9008951F93CF93DF93EC010E944D
:1022B0003F3A182FCE0101960E943F3A90E0982FA6
:1022C0008827810F911DDF91CF911F910895EF9283
:1022D000FF920F931F93CF93DF9384E192E00E94CC
:1022E000D32784E192E00E94421F60E084E192E003
:1022F0000E94DC2767E372E084E192E00E94DB2227
:1023000084E192E00E940B1FBCE0EB2EF12C08E26E
:1023100010E0CCE3D0E067E372E084E192E00E9459
:10232000DB221092A3021092A202F092A502E09288
:10233000A40265E272E080E192E00E94493120E867
:1023400030E04CE050E070E060E084E192E00E9418
:10235000AF231092A3021092A2021093A502009341
:10236000A4026EE172E080E192E00E944931109295
:10237000A3021092A202D093A502C093A40260E12E
:1023800072E080E192E00E94493184E192E00E9493
:102390001D1F8111C0CF10E000E020E032EC41E0D1
:1023A00050E066E575E08AEF92E00E94991768E2D6
:1023B0008AEF92E00E94BF1668E28AEF92E00E94E4
:1023C000CF168AEF92E00E9466178AEF92E00E9491
:1023D000721765E08AEF92E00E94B31464E070E047
:1023E0008AEF92E00E94431763E070E08AEF92E088
:1023F0000E945A1740ED57E060E070E08AEF92E0EB
:102400000E94AE1440E050E06AE775E482EB92E08F
:102410000E944D1C40E050E06AE775E482EB92E0D8
:102420000E942D1D61E084E00E94BD3461E086E0E1
:102430000E94BD3461E085E00E94BD3460E08FE021
:102440000E94BD3460E08EE00E94BD3460E08CE00C
:102450000E94BD3462E08BE00E94BD3460E08AE0FF
:102460000E94BD3460E089E00E94BD3461E087E1F4
:102470000E94BD3461E08DE00E94BD348CE00E947A
:102480002735892B19F081E08093F1018BE00E94C0
:102490002735892B19F481E08093F0018AE00E94AE
:1024A0002735892B19F481E08093EF0181E0809337
:1024B00068008CE180936B0060E084E00E94F93456
:1024C0008AEF92E00E94F0166AEF70E080E090E000
:1024D0000E94D2330E94770C6AEF70E080E090E0B7
:1024E0000E94D23390E080E00E943F3A8B3709F49B
:1024F000E0C080E991E00E94D2109093B1028093F5
:10250000B002C29744F480E79EEF0E94D2109093ED
:10251000B1028093B0028091B0029091B1028E3CE2
:102520002FEF92070CF08EC02CE93FEF3093A702FB
:102530002093A6029C01285D3F4F3093AF02209369
:10254000AE0284579F4FAC0197FF02C04F5F5F4FB1
:1025500055954795445651095093AB024093AA02B2
:10256000241B350B37FF02C02F5F3F4F3595279552
:10257000240F351F3093AD022093AC0297FD0396D4
:102580009595879595958795845691099093A9027D
:102590008093A8026BE790E080E00E94473A609148
:1025A000A6027091A70282E090E00E943211609131
:1025B000A8027091A90284E090E00E94321160911B
:1025C000AA027091AB0286E090E00E943211609105
:1025D000AC027091AD0288E090E00E9432116091EF
:1025E000AE027091AF028AE090E00E9432116091D9
:1025F000B0027091B1028CE090E00E94321161E073
:1026000084E00E94F93440E050E0BA0182EB92E0AD
:102610000E94371C40E050E06AE774E482EB92E0ED
:102620000E94511D6CE38AEF92E00E94BF1668E29F
:102630008AEF92E0DF91CF911F910F91FF90EF9081
:102640000C94CF16833391050CF4A9CF24E630E027
:102650003093A7022093A6029C012852310930939F
:10266000AF022093AE028C589109AC0197FF02C0D3
:102670004F5F5F4F559547954C595F4F5093AB0255
:102680004093AA02241B350B37FF02C02F5F3F4F38
:1026900035952795240F351F3093AD022093AC025A
:1026A00097FD039695958795959587958C599F4F9E
:1026B0006DCF82E090E00E9453119093A702809327
:1026C000A60284E090E00E9453119093A9028093A7
:1026D000A80286E090E00E9453119093AB02809391
:1026E000AA0288E090E00E9453119093AD0280937B
:1026F000AC028AE090E00E9453119093AF02809365
:10270000AE028CE090E00E9453119093B10280934E
:10271000B00275CFCF92EF920F93CF93DF938AEFF2
:1027200092E00E94D313CC24C39485E0E82E04E009
:1027300025E046E061E082EB92E00E94C31CC0E12C
:10274000D2E01B821A828CE191E0998388838FE921
:1027500095E29093A1028093A0021092A30210929E
:10276000A2021092A5021092A40284E192E00E94BB
:10277000A92588E291E09983888327EE3DE148E529
:102780005EE160E571E084E192E00E94581F2FEF66
:102790004FEF6FEF84E192E0DF91CF910F91EF90D7
:1027A000CF900C94531EFC0183E0828F1182108223
:1027B00080E092ECA1E0B0E082839383A483B583B0
:1027C00016828FEF9FEF90878783158A0895DC012B
:1027D0008D919C91009739F0DC01ED91FC91008482
:1027E000F185E02D099490E080E00895DC018D9161
:1027F0009C91009739F0DC01ED91FC910190F08102
:10280000E02D099490E080E00895DC018D919C9189
:10281000009739F0DC01ED91FC910284F385E02D05
:10282000099490E080E00895DC018D919C910097DF
:1028300039F0DC01ED91FC910680F781E02D0994DF
:102840000895CB01BA010E94BC3808957F928F92FF
:102850009F92AF92BF92CF92DF92EF92FF920F932F
:102860001F93CF93DF93CDB7DEB728970FB6F894B9
:10287000DEBF0FBECDBF7C01162FBA01A90185E0D6
:102880008983F701B680BA821F7710681B83C7015E
:102890000E9421146C837D838E839F83F62FA72E45
:1028A000982E892EE0E0B0E0A0E087E0782E25E0C9
:1028B0003B2D412F5F2F6A2D792D882D90E00A2F17
:1028C0000E94F83838E08E2F90E0422F50E0BC0193
:1028D000660F672F661F770B20FBCC24C0F8D12C26
:1028E000EE0F6C157D0521F0880F991FE82FE72565
:1028F00055954795242F315031F71896A833B105D7
:10290000B1F6E887D12CC12C29813A814B815C81B9
:102910006D817E818F8198850C2D0E94F838622F01
:10292000C7010E94F613F8E0CF0ED11C80E4C81650
:10293000D10451F728960FB6F894DEBF0FBECDBF75
:10294000DF91CF911F910F91FF90EF90DF90CF908B
:10295000BF90AF909F908F907F9008959A01AB01A8
:1029600064E10C942614262F30E050E040E060E44F
:102970000C942614CF93DF93EC011D861E861F86D0
:10298000188A80E18D878E858F618E878F85807F05
:1029900081608F872D853E854F85588960E1CE0106
:1029A0000E94261483E58E8B1F8A81E0888F80E148
:1029B000898F2E893F89488D598D6CE6CE010E9402
:1029C000261484E290E0ADE0B1EC8B8F9C8FAD8F4C
:1029D000BE8F24E230E04DE051EC60E7CE010E9472
:1029E0002614198A1A8A1B8A1C8A20E030E0A90161
:1029F00062E4CE010E94261424E130E040E050E081
:102A000061E1CE010E94261420E030E0A90163E1DB
:102A1000CE010E94261420E030E0A90162E2CE013E
:102A20000E94261420E030E0A90164E1CE010E945A
:102A3000261420E030E0A90160E4CE010E942614B3
:102A400020E030E0A90162E4CE01DF91CF910C9447
:102A500026148F929F92AF92BF92DF92EF92FF92D5
:102A60000F931F93CF93DF93CDB7DEB728970FB6A1
:102A7000F894DEBF0FBECDBF7C0145E0842E912CC3
:102A8000A12CB12CFC0196806F778A2D8078A82E1E
:102A9000A62AE894A7F8F0E0E0E080E057E0D52E21
:102AA000B501A4010E2E04C07695679557954795FC
:102AB0000A94D2F758E0682F70E0A42FB0E08B01A1
:102AC000000F012F001F110B242F217030E0880F01
:102AD0000217130721F0CB01880F991F8D25B5959B
:102AE000A7954A2F515039F73896E831F105C1F6CC
:102AF000B82EC7010E941414C7010E94E7131816CC
:102B0000190624F4C7010E940514F6CF10E000E076
:102B1000C501B401002E04C09695879577956795F9
:102B20000A94D2F7C7010E94F613085F1F4F0032C4
:102B3000110571F7C7010E941414812C912C5401C6
:102B4000C7010E94E71304978CF4F0EA8F16FFE0A8
:102B50009F06A104B104E9F081E090E00E940B34EB
:102B60008FEF881A980AA80AB80AEACFE0EA8E1608
:102B7000EFE09E06A104B10461F0C7010E940514B4
:102B8000C7010E940514C7010E940514C7010E94D5
:102B90000514812C912C5401C7010E94E71308975A
:102BA00094F4F0E18F16F7E29F06A104B10409F452
:102BB0005EC081E090E00E940B348FEF881A980A83
:102BC000A80AB80AE9CFE0E18E16E7E29E06A10462
:102BD000B10409F44CC019821A821B821C821D8226
:102BE0001E821F821886B12CA12CC7010E940514D9
:102BF0009C01932F990F990B492F592F692F792FEA
:102C0000892F0A2D0E94DD38F9812F2BFA813F2B65
:102C1000EB81E42B4C81452B5D81562B6E81672B1C
:102C20007F81782B8885982B29833A83EB834C838B
:102C30005D836E837F839887F8E0AF0EB11C80E4DC
:102C4000A816B10491F6C70128960FB6F894DEBF16
:102C50000FBECDBFDF91CF911F910F91FF90EF90ED
:102C6000DF90BF90AF909F908F900C94211460E004
:102C700070E0CB0128960FB6F894DEBF0FBECDBF33
:102C8000DF91CF911F910F91FF90EF90DF90BF9058
:102C9000AF909F908F9008956FE60E942915089538
:102CA00061E40E942915CB010895AF92BF92CF92A3
:102CB000DF92EF92FF920F931F9370E090E080E01D
:102CC000653671058105910520F064E670E080E0CD
:102CD00090E01F921F921F922FE12F93A12CB12CF5
:102CE000650114E6E12EF12C00E010E020E030E078
:102CF000A9010E940133862F0F900F900F900F9023
:102D00001F910F91FF90EF90DF90CF90BF90AF9009
:102D10000895FC01218532854385548560E00C943B
:102D20002614FC01668380EC818781E0828713860C
:102D30001486CF010C948916CF93DF93EC012D8577
:102D40003E854F85588960E10E9426149E859F71BB
:102D50008A89943178F080688A8B8D89882361F024
:102D600029893A894B895C8962E4CE01DF91CF9150
:102D70000C9426148F77F0CFDF91CF910895CF93E5
:102D8000DF93EC010E945516982F9F718E85807EEF
:102D9000892B8E87CE01DF91CF910C949C16CF9317
:102DA000DF93EC010E945516982F9F718D85807ED0
:102DB000892B8D87CE01DF91CF910C949C16FC015D
:102DC0002685207E26872585207E25870C949C16C7
:102DD000FC0126893789408D518D6CE60C942614B0
:102DE000CF93DF93EC018F81988597FD03C060E05E
:102DF0000E94F9349A8D9F708E89807F892B8E8BEB
:102E0000CE01DF91CF910C94E816CF93DF93EC01C4
:102E10008F81988597FD03C061E00E94F9348E8907
:102E2000807F8E8BCE01DF91CF910C94E816DC0170
:102E300059969C915997683020F5E62FF0E0EC5DAB
:102E4000F84E907F0C94B6382C1733173517371778
:102E500039173B173D173F17986059969C93599720
:102E6000CD010C94E8169760F8CF9660F6CF956088
:102E7000F4CF9460F2CF9360F0CF9260EECF916088
:102E8000ECCF907FEACF9B013695279570E060E00C
:102E90002115310529F0369527956F5F7F4FF8CFC3
:102EA0000C941717FC01238D348D458D568D60E7EA
:102EB0000C942614FC016370962F9295907F658D7B
:102EC0006F7C692B658FCF010C945217FC01258D07
:102ED0002460258F0C945217FC01258D2B7F258FA4
:102EE0000C945217FC01258D2860258F0C945217E5
:102EF000FC01258D277F258F0C945217CF93DF93EC
:102F0000EC014A835B836C837D83B9010E94911637
:102F1000CE010E94BA14CE010E94DF16CE010E949B
:102F20000517CE010E946C17CE01DF91CF910C9452
:102F30007817CF92DF92EF92FF920F931F93CF9368
:102F4000DF93EC01CB0169017A01798368830E94E8
:102F50006B3026E0B701A601888199810E94133069
:102F60009801B701A601CE01DF91CF911F910F917A
:102F7000FF90EF90DF90CF900C947E1708954F92C2
:102F80005F926F927F928F929F92AF92BF92CF92F9
:102F9000DF92EF92FF920F931F93CF93DF93EC0199
:102FA000CC88DD88EE88FF8888899989AA89BB89C1
:102FB000C81AD90AEA0AFB0A688D798D8A8D9B8D19
:102FC0009B01AC010E9471374B015C0168A179A1A2
:102FD0008AA19BA19B01AC010E9451359B01AC01D0
:102FE000C501B4010E94C2350E943436C114D10417
:102FF000E104F10409F0B6C0623071058105910564
:103000000CF0D0C01B821C821D821E82188E198E6D
:103010001A8E1B8E1CAA1DAA1EAA1FAAC12CD12C57
:103020007601C701B601DF91CF911F910F91FF90FB
:10303000EF90DF90CF90BF90AF909F908F907F9058
:103040006F905F904F9008951016110612061306A8
:10305000B4F46C157D058E059F051CF42A812111A1
:10306000A1C09B01AC0188279927DC01821B930B2F
:10307000A40BB50B8CAB9DABAEABBFAB93C0011536
:1030800011052105310509F48DC06C157D058E05EE
:103090009F050CF087C08A81882309F483C030958E
:1030A0002095109501951F4F2F4F3F4F0CAB1DAB37
:1030B0002EAB3FAB77C0011511052105310509F491
:1030C00071C08824992454018C189D08AE08BF084B
:1030D000681579058A059B050CF064C08A81811109
:1030E00061C0DDCFCCACDDACEEACFFACA70196018E
:1030F000C701B6010E9451352B013C01C501B40145
:103100000E946C3620E030E040E850E40E947137C5
:1031100020E030E040E85FE30E9451359B01AC01C4
:10312000C301B2010E94C2359B01AC01C701B601C7
:103130000E9450353B016C01FE01E05CFF4FE080D6
:10314000F180028113819701A8010E941C37181693
:1031500014F473018601C701D8018CAF9DAFAEAFE7
:10316000BFAF3AC00CA91DA92EA93FA91C141D046C
:103170001E041F040CF468CF101611061206130665
:103180000CF099CF0027112798010C191D092E0961
:103190003F0960177107820793070CF062CF2A81FD
:1031A00021115FCF8CA89DA8AEA8BFA8811491045F
:1031B000A104B10409F096CF88AD99ADAAADBBAD1D
:1031C0008CAF9DAFAEAFBFAF81E01C141D041E04D9
:1031D0001F040CF080E08A833FEF831A930AA30A4E
:1031E000B30A8CAA9DAAAEAABFAA8CAC9DACAEAC09
:1031F000BFACC501B4010E943B366B017C01CB82A0
:10320000DC82ED82FE82A501940160E074E284E735
:1032100099E40E94C235688F798F8A8F9B8F2A81AB
:103220002111FFCE9058688F798F8A8F9B8FF9CEAE
:10323000DC011796EC911797E93008F038C0F0E000
:10324000EC5DF64E0C94B6382D19331939193F1927
:10325000451957194B1957195119ED91FC910684CD
:10326000F785E02D0994ED91FC910088F189E02D1E
:10327000F9CFED91FC910288F389E02DF3CFED9128
:10328000FC910488F589E02DEDCFED91FC91068845
:10329000F789E02DE7CFED91FC91008CF18DE02DC9
:1032A000E1CFED91FC91028CF38DE02DDBCF089501
:1032B000CF93DF93EC01CB01BA0126E030E040E090
:1032C00050E00E949738623071058105910589F1BF
:1032D0006CF46115710581059105D1F061307105BE
:1032E00081059105F9F0DF91CF9108956430710562
:1032F0008105910561F124F1653071058105910524
:1033000091F7E881F9810284F385E02D66E006C03B
:10331000E881F9810284F385E02D64E0CE01DF913C
:10332000CF910994E881F9810284F385E02D65E06D
:10333000F5CFE881F9810284F385E02D61E0EECFDD
:10334000E881F9810284F385E02D63E0E7CFE8812D
:10335000F9810284F385E02D62E0E0CFDC01ED919C
:10336000FC91228533854770552766277727415082
:10337000510961097109473051056105710560F412
:10338000FA01EB53F64E0C94B638CF19D119D31974
:10339000D519D719D919DB1961E0F901099465E04C
:1033A000FCCF64E0FACF66E0F8CF62E0F6CF6AE0E7
:1033B000F4CF68E0F2CF69E0F0CFCF92DF92EF92E6
:1033C000FF920F931F93CF93DF93DC011796CC915D
:1033D000C43039F0C83059F1C33019F0C63049F162
:1033E000C2E08C01085F1F4FF12CE12CC62ED12CBE
:1033F000D1E0F8016481C6010E2C02C09595879535
:103400000A94E2F780FD6D270F5F1F4F80810E94B5
:10341000F934BFEFEB1AFB0AEC1658F3DF91CF91AA
:103420001F910F91FF90EF90DF90CF900895C4E02F
:10343000D8CFC3E0D6CFCF93DF93EC01E881F981F9
:103440000284F385E02D8A8160E0811162E0CE0183
:103450000995E881F9810284F385E02D8A8161E094
:10346000811163E0CE0109958CA59DA50E940B34C6
:10347000E881F9810284F385E02D8A8160E0811181
:1034800062E0CE01DF91CF91099464E470E00C9486
:103490005533CF93DF93EC0120E030E0A901688D34
:1034A000798D8A8D9B8D0E941C3718162CF4E8A903
:1034B000F9A9DF91CF910994EAA9FBA9FACFDC0120
:1034C000ED91FC910284F385E02D4370552766272A
:1034D0007727423051056105710571F04330510580
:1034E0006105710559F0413051056105710511F013
:1034F00062E0099463E0FDCF61E0FBCF60E0F9CFCB
:10350000CF93DF93EC01CB01BA0123E030E040E040
:1035100050E00E949738613071058105910599F05E
:103520006230710581059105A9F0672B682B692B25
:10353000C1F4E881F9810284F385E02D64E0CE01D5
:10354000DF91CF910994E881F9810284F385E02D20
:1035500061E0F5CFE881F9810284F385E02D62E036
:10356000EECFDF91CF910895DC01ED91FC910284C3
:10357000F385E02D437055276627772742305105A4
:103580006105710571F0433051056105710559F010
:10359000413051056105710511F065E0099466E05F
:1035A000FDCF6AE0FBCF69E0F9CFCF93DF93FC0159
:1035B00027812223A9F0EC010190F081E02D028403
:1035C000F385E02D60E009958FA58F3F49F061E01C
:1035D0000E94BD346EA58FA5DF91CF910C94F93474
:1035E000DF91CF910895CF93DF93FC0127812223B0
:1035F00059F1EC0161E080850E94BD3461E089856C
:103600000E94BD348F81843011F08830B1F461E0C4
:103610008A850E94BD3461E08B850E94BD348FA5F0
:103620008F3F91F061E00E94BD346EA581E0682774
:103630008FA5DF91CF910C94F934833011F086304F
:1036400071F761E08A85E9CFDF91CF9108954F92BC
:103650005F926F927F928F929F92AF92BF92CF9222
:10366000DF92EF92FF92CF93DF93EC016A017B012F
:1036700020E030E0A901CB01B6010E94BD3587FFF3
:1036800004C0F7FAF094F7F8F09488A099A0AAA0E3
:10369000BBA0A7019601C501B4010E94BD358823D6
:1036A00009F44DC06CA97DA98EA99FA90E946C3612
:1036B0002B013C01A7019601C501B4010E94C2354E
:1036C0009B01AC01C301B2010E9471370E943436E4
:1036D0006CAB7DAB8EAB9FABA701960160E070E059
:1036E00080E090E40E94C2350E94E43726E53EE087
:1036F0004DE25FE30E94713720E034E244E759E491
:103700000E94713768AF79AF8AAF9BAFC8A2D9A2C8
:10371000EAA2FBA2E881F9810084F185E02DCE01C7
:10372000DF91CF91FF90EF90DF90CF90BF90AF905F
:103730009F908F907F906F905F904F900994DF9152
:10374000CF91FF90EF90DF90CF90BF90AF909F9080
:103750008F907F906F905F904F9008950F931F937D
:10376000DC0154960D911D912D913C9157970417B2
:1037700015072607370771F0FC01448B558B668BC4
:10378000778B0190F081E02D0084F185E02D1F9171
:103790000F9109941F910F910895CF92DF92EF92AC
:1037A000FF92CF93DF93FC01438154816581768141
:1037B000452B462B472B41F480E0DF91CF91FF90C2
:1037C000EF90DF90CF900895EC010E94AD336B0134
:1037D0007C0188A599A5AAA5BBA5B701A601481B90
:1037E000590B6A0B7B0B8B819C81AD81BE81481785
:1037F00059076A077B0700F388899989AA89BB89D9
:103800002A812223C1F00196A11DB11D888B998BBD
:10381000AA8BBB8B488959896A897B89E881F981A0
:103820000484F585E02DCE010995C8A6D9A6EAA69F
:10383000FBA681E0C2CF0197A109B109E7CF0F93A1
:103840001F93FC016489758986899789008911898C
:1038500022893389601B710B820B930B1F910F918F
:103860000895FC0160897189828993890895FC011A
:10387000408B518B628B738B448B558B668B778B14
:1038800014AA15AA16AA17AA1382148215821682E0
:10389000108E118E128E138E0895CF92DF92EF92BA
:1038A000FF920F931F93CF93DF93EC016A017B018B
:1038B00020E030E0A901CB01B6010E94BD3587FFB1
:1038C00004C0F7FAF094F7F8F094A70196016C8D14
:1038D0007D8D8E8D9F8D0E94BD35882309F44AC051
:1038E000CC8EDD8EEE8EFF8E8E01005C1F4FA70109
:1038F000960160E074E284E799E40E94C235F80121
:1039000060837183828393838CA99DA9AEA9BFA98B
:10391000181619061A061B066CF5688D798D8A8DA6
:103920009B8D9B01AC010E9471376B017C0168A1EA
:1039300079A18AA19BA19B01AC010E9451359B01F9
:10394000AC01C701B6010E94C2350E9434366CAB8F
:103950007DAB8EAB9FABE881F9810084F185E02DD2
:10396000CE01DF91CF911F910F91FF90EF90DF90EB
:10397000CF900994DF91CF911F910F91FF90EF901D
:10398000DF90CF900895CF92EF920F93CF93DF9374
:10399000EC0184E391E0998388836F83188A198A04
:1039A0001A8A1B8A1C8A1D8A1E8A1F8A188E198EE3
:1039B0001A8E1B8E1C8E1D8E1E8E1F8E18A219A293
:1039C0001AA21BA280E090E0A0E8BFE38CA39DA315
:1039D000AEA3BFA31B821C821D821E8261E070E029
:1039E0007DA76CA73FEF3FA718A619A61AA61BA68E
:1039F000488729870A87EB861EA61CAA1DAA1EAA2D
:103A00001FAA18AE19AE1AAE1BAE1CAE1DAE1EAE6E
:103A10001FAEFE01E05CFF4F80839183A283B383DE
:103A20001A821C861D861E861F86CC2019F0CE01A8
:103A30000E94F31A40E050E060E87FE3CE010E946C
:103A4000271B40E050E060E87FE3CE01DF91CF919B
:103A50000F91EF90CF900C944D1CCF92DF92EF928C
:103A6000FF92CF93DF93EC016A017B0120E030E00D
:103A7000A901CB01B6010E94BD35882359F0B701D9
:103A8000A601CE01DF91CF91FF90EF90DF90CF9014
:103A90000C94271BDF91CF91FF90EF90DF90CF9098
:103AA00008954F925F926F927F92AF92BF92CF92A2
:103AB000DF92EF92FF920F931F93CF93DF93EC016E
:103AC0005A018B019A01AB01688D798D8A8D9B8D8E
:103AD0000E94BD35882379F14C8C5D8C6E8C7F8C77
:103AE00073016201F7FAF094F7F8F0949501A801D8
:103AF000C701B6010E941C37181664F09501A80191
:103B0000C301B2010E94BD356501780187FF02C083
:103B10007301620120E030E0A901C701B6010E94F3
:103B2000BD35811117C01B821C821D821E82C88E6A
:103B3000D98EEA8EFB8EDF91CF911F910F91FF906E
:103B4000EF90DF90CF90BF90AF907F906F905F909D
:103B50004F900895A701960160E074E284E799E42C
:103B60000E94C2359F770E943B366B837C838D8396
:103B70009E8311E020E030E0A901C701B6010E9458
:103B80001C3718160CF010E01A83D1CF0F931F9337
:103B9000FC01048915892689378940895189628900
:103BA0007389041715072607370769F0401751076F
:103BB0006207730734F421E022831F910F910C9464
:103BC000CD1B1282FACF80E01F910F9108950F93C1
:103BD0001F93CF93DF938C01C62F642FCC32A8F4B0
:103BE000CA32D0F5C83239F1C932E1F180E0C034CF
:103BF000A0F1CF73F801EC0FF11DD68DDF3F61F11D
:103C0000C03108F042C08D2F13C0CD3289F170F35E
:103C100084EB8C0F823050F7CF73C00FD12FD11DA2
:103C20008E8D41112EC061E00E94BD3460E08E8D0A
:103C30000E94F93411C0025E1F4FD0E0F80181915B
:103C40008F018F3F31F061E0D03108F062E00E94D7
:103C5000BD34DF5FD63191F781E0DF91CF911F91C5
:103C60000F91089570E090E080E00E94D233F4CF8D
:103C700085E090E0433010F082E090E00E940B3449
:103C8000EBCF62E00E94BD34E7CFC03111F40E9457
:103C900042338D2F0E94273521E0892B09F420E043
:103CA000F801218FD9CFFC0161A742A723A708956E
:103CB000CF93DF93EC01683189F130F4643199F0EE
:103CC000673151F080E005C06931C9F16032D1F748
:103CD00081E0DF91CF91089550E0B9018AE194E04D
:103CE0000E949828F5CF8C859D85AE85BF85892B50
:103CF0008A2B8B2B71F4E881F981A585B0E020EA4D
:103D000036E841E050E00E94D2386C877D878E878C
:103D10009F878AE194E00E947A29DACF4C855D85FD
:103D20006E857F858AE194E00E9483296E8970E028
:103D3000759567958AE194E00E948A29C9CF8AE146
:103D400094E00E94A629C4CFAF92BF92CF92DF9297
:103D5000EF92FF920F931F93CF93DF93EC01AAACE6
:103D6000EBACE881F981B188FE2CD12CC12CE88123
:103D7000F981208908AD19AD88E0289FA0011124A0
:103D80004C9DC0014D9D900D5C9D900D1124080F20
:103D9000191F4F2D60E0CE010E94A827F3948F2DAC
:103DA0008E198A1528F48FEFC81AD80AFB14F8F276
:103DB000DF91CF911F910F91FF90EF90DF90CF9007
:103DC000BF90AF900895FC01A081B18150962C91D5
:103DD00082AD38E0839FC0011124289FA001299F54
:103DE000500D112470E060E080AD91AD0C94383A34
:103DF000CF93DF93EC016BAFEEA9FFA90190F081A7
:103E0000E02D0995EEA9FFA90280F381E02DCE01F6
:103E1000DF91CF910994CF93DF93EC01FC01E5573B
:103E2000FF4F8081882319F0CE010E94E31E60E0DD
:103E3000CE01DF91CF910C94F81E1F93CF93DF93A7
:103E4000EC010E94A41E1BAD8AAD180FE881F98118
:103E50008189181740F0CE010E94E52780E0DF91AC
:103E6000CF911F910895FE01E557FF4F8081882370
:103E700019F0CE010E94E31E612FCE010E94F81EB0
:103E800081E0EDCFCF93DF93EC010E940B1FCE01B9
:103E90000E941D1F8111FBCF60E0CE01DF91CF9109
:103EA0000C94F81E22E0FC01208389E193E0089540
:103EB000CF92DF92EF92FF920F931F93CF93DF93F6
:103EC0001F92CDB7DEB77C016B0189019A014AE6EA
:103ED00056E268E477E20E941528CE0101960E941E
:103EE000521F86012EEF33E24981BC01C7010E94B7
:103EF0006F250F90DF91CF911F910F91FF90EF9061
:103F0000DF90CF900895FC01E60FF11D849190E0C1
:103F1000982F88273196E4918E0F911D089590E097
:103F200080E008950F931F93CF93DF93EC018B01F3
:103F3000FB01849188833196E491E983FB013296F9
:103F4000E491EA83FB013396E491EB83FB01349621
:103F5000E491EC83FB013596E491ED83FB01369609
:103F6000E491EE83FB013796E491EF83FB013896F1
:103F7000E491E887FB013996E491E987FB013A96E1
:103F8000E491EA87FB013B96E491EB87FB013C96C9
:103F9000E491EC87FB013D96E491ED87FB013E96B1
:103FA000E491EE87FB013F96E491EF87FB01709669
:103FB000E491E88B61E1C8010E94831F9A8B898B91
:103FC00063E1C8010E94831F9C8B8B8B65E1C80154
:103FD0000E94831F9E8B8D8BDF91CF911F910F913C
:103FE0000895DC011A964C911A97ED91FC91119766
:103FF000249130E0042E02C0359527950A94E2F70B
:10400000842F860F883068F031961196FC93EE93DA
:10401000E49198E0941B01C0EE0F9A95EAF72E2BDD
:1040200088501A968C938FEF9FEF01C0880F6A9586
:10403000EAF78095822308950F931F93CF93DF9320
:104040008C01EC01C25ADF4F798368831A86FC0128
:10405000EF58FF4F6081CE010E94F11F8887F80161
:10406000EE58FF4F6081CE010E94F11F8987F80151
:10407000E657FF4F90819C8781E0911180E08D870A
:10408000DF91CF911F910F910895CF93C62F0E947A
:10409000F11FC15021E030E001C0220FCA95EAF7BC
:1040A000821BCF910895213069F038F0223079F0E9
:1040B000861B910967FD93950895840F911D47FD17
:1040C0009A950895860F911D67FD9A950895841B12
:1040D000910947FD93950895213069F038F0223019
:1040E00079F0840F911D47FD9A950895860F911DD3
:1040F00067FD9A950895841B910947FD939508954E
:10410000861B910967FD939508953F924F925F92A8
:104110006F927F928F929F92AF92BF92CF92DF92D7
:10412000EF92FF920F931F93CF93DF937C01162F93
:10413000442EEC01C25ADF4F5E806F806C018AE82A
:10414000C80ED11C78847518312E711608F4372CDE
:104150008C809D800E85202F462D652D8A819B8128
:104160000E946C205C01202F462D652DC4010E9409
:104170005320AC01442079F08C85F6018083232DF7
:1041800030E0B501C7010E940423171548F0171944
:104190006394512CD7CF8B858111F7CF8D85EDCFCF
:1041A000150D1E836F82DF91CF911F910F91FF90AC
:1041B000EF90DF90CF90BF90AF909F908F907F90C7
:1041C0006F905F904F903F9008958F929F92AF9223
:1041D000BF92CF92DF92EF92FF920F931F93CF93F4
:1041E000DF937C01EC01C25ADF4F0E941C20F701D3
:1041F000E959FF4FB0803C966081CE010E94452076
:10420000882EF701EC58FF4F6081CE010E944520B7
:10421000082FF701EB58FF4F6081CE010E94452027
:10422000A82E988419140CF061C01E850B0D019501
:10423000212F402F682D8A819B810E946C206C0168
:104240009B838A83212F402F682D8C819D810E9422
:1042500053209D838C83113009F456C048F01230EE
:1042600009F463C0133009F476C08C0196010AC0CA
:104270009601290D311D97FC3A958C010B0D111DEE
:10428000B7FC1A95AC01B601C7010E94C723882369
:1042900069F11E821F82870101591F4F670180E764
:1042A000C80ED11CF8016081CE010E94F11F882E3A
:1042B000F6016081CE010E94F11F982E40E0682D2A
:1042C000C7010E94852041E0692DC7010E94852019
:1042D00061E0CE010E94F11F8111F0CF8F818B151B
:1042E0000CF3F701E657FF4F8C8580838A2DDF9111
:1042F000CF911F910F91FF90EF90DF90CF90BF90E3
:10430000AF909F908F90089541E050E04B19510974
:10431000B7FC539596012F5F3F4F8C01090D111D7E
:1043200097FC1A95C40ED51EADCF41E050E0BA01FE
:104330006919710997FC739596012F5F3F4F4B19CF
:104340005109B7FC53958C010F5F1F4F840F951FC8
:10435000C60ED71E97CF96012B0D311DB7FC3A958F
:1043600041E050E04919510997FC53958C010F5FCA
:104370001F4F840F951F86CFEF92FF920F931F93CD
:10438000CF93DF93FC01E65AFF4F20813181295EF4
:104390003F4F6F3F710509F048F561367105D8F060
:1043A00080589F4FFC0180819181280F391FC901DE
:1043B0000196FC014491442309F447C0F90144915A
:1043C0004617170671F40196DF91CF911F910F9157
:1043D000FF90EF9008956134710548F382589F4F24
:1043E000E1CFFC018491280F311DE1CF8B01FC014D
:1043F000EE57FF4FC081D181C20FD31F7E0160E015
:10440000C7010E94831FC80FD91F62E0C7010E9425
:10441000831FF4E0EF0EF11C8017910780F3FE017B
:10442000849190E0982F88273196E4918E2B009705
:1044300061F00817190719F4CE010396C5CFFE01E4
:104440003296E491CE0FD11DEACF90E080E0BCCF50
:10445000CF92DF92EF92FF920F931F93CF93DF9350
:10446000EC017B018A016901FC01E459FF4F808165
:10447000813079F118F18230B9F1833009F43FC00D
:10448000FE01E05AFF4FF182E082329611830083F1
:10449000B601CE010E94BC210097E1F1BC01CE0122
:1044A0000E94E520082E000C990BDF91CF911F91FF
:1044B0000F91FF90EF90DF90CF900895FE01E45AA6
:1044C000FF4F0190F081E02DCE010995080F191FD3
:1044D000D7CFFE01E45AFF4F0190F081E02DCE01CD
:1044E0000995E81AF90ACCCFFE01E45AFF4F019072
:1044F000F081E02DCE010995081B190BC1CFFE01FB
:10450000E45AFF4F0190F081E02DCE010995E80EAD
:10451000F91EB6CF90E080E0C8CFCF93DF93FC01C7
:10452000E65AFF4F20813181232BF1F0B096208194
:10453000DC01AA57BF4F2C93319650813C96508393
:10454000EC01CB57DF4F3881332371F0313079F4F0
:104550002997388123170CF43C9383589F4FDC0133
:104560008C9185170CF48083DF91CF910895EC0135
:10457000C958DF4F488187589F4FEC013881822FFF
:10458000220F990B632F032E000C770B640F711D04
:1045900047FD7A958617970714F4430F4C93351708
:1045A0001CF73083E1CF845A9F4F2FE83FE1FC0195
:1045B000318320830895CF93DF93FC01E65AFF4FA8
:1045C000208131812617370761F0EC017183608308
:1045D00083599F4F0E94921FCE01DF91CF910C947F
:1045E0008D22DF91CF9108950F93FC01E05CFF4F86
:1045F0000190F081E02D4E1B5F0BDC01D496ED9114
:10460000FC9109950F9108950F93CF93DF93E02FBD
:10461000DC01AC57BF4FFC91FF2309F460C02115AA
:10462000310509F45CC02230310538F0023009F060
:104630004AC06F5F7F4F621B730B0E2F0170E0FD4E
:1046400052C0FC01E25BFF4F0190F081E02D4E175C
:104650005F0708F444C0FC01E05BFF4F0190F0816C
:10466000E02D4E175F07D8F5FC01E45BFF4F01908A
:10467000F081E02DDC01A65BBF4F0D90BC91A02D19
:10468000260F371F2617370738F56E177F0718F5DF
:104690009F0121503109A217B30708F56A177B075C
:1046A00008F4BD012E173F0708F4F901E61BF70BCC
:1046B000EC01AEA9BFA914960D90BC91A02D9F014D
:1046C000FD0109950CC0033009F0B7CF4F5F5F4F74
:1046D000421B530BB2CFBD016E177F07E0F2DF9193
:1046E000CF910F910895FC01E65BFF4F0190F0819F
:1046F000E02D6E177F0798F3FC01E45BFF4F0190FC
:10470000F081E02D6E177F0750F7FC01E05BFF4F53
:104710000190F081E02DDC01A25BBF4F0D90BC91B8
:10472000A02D240F351F24173507A8F44E175F0757
:1047300088F49F0121503109A217B30780F64A1768
:104740005B0708F4AD012E173F0708F4F901E41BDD
:10475000F50BAECFAD014E175F0708F6EDCF0F9307
:1047600000E00E9404230F9108954617570748F46C
:104770008217930750F081E02417350738F080E066
:10478000089582179307B8F3FACF81E00895CF9286
:10479000DF92EF92FF920F931F93CF93DF93EC0181
:1047A0007B0169019801FC01E05BFF4F6081718131
:1047B0003297808191810E94B5238823A9F0FE0160
:1047C000E45BFF4F60817181C65BDF4F9601A701FB
:1047D00088819981DF91CF911F910F91FF90EF9088
:1047E000DF90CF900C94B52380E0DF91CF911F91A3
:1047F0000F91FF90EF90DF90CF900895AF92BF920E
:10480000CF92DF92EF92FF920F93CF93DF93EC0161
:10481000DA017901942F9770E1E0F0E09F01092E11
:1048200001C0220F0A94EAF7522F6E018AE8C80EDF
:10483000D11CF601808140E0823018F4422F813093
:1048400049F15D01F8EFAF22E8ADF9AD288139817A
:10485000D90150968C918A9D90018B9D300D112429
:10486000620F731FDF01A60FB71F01111AC0EA0EF6
:10487000FB1E8C91842B85278D93EA16FB06C9F7C6
:10488000DF91CF910F91FF90EF90DF90CF90BF908D
:10489000AF90089550E0D5CF440F550FE114F104C7
:1048A00079F33C91342B35273C939F5F9770E1E07F
:1048B000EE1AF1089111F0CF2CAD3DADA20FB31F50
:1048C000F6018081823028F4813009F051E041E026
:1048D000E5CF51E0E3CFCF93DF93FC01A081B1811D
:1048E00082AD90E09C0143E0220F331F4A95E1F72F
:1048F00037AF26AF50962C91509748E0249F9001F7
:10490000112435AF24AF23AD30E0B90153E0660F79
:10491000771F5A95E1F7EF01C05CDF4F7983688319
:1049200051964C915197E901C80FD91F50E04C178F
:104930005D0718F4CA01821B930BEF01CE5BDF4FBA
:1049400079836883229623E0880F991F2A95E1F7DF
:10495000860F971F99838883229654968D919C91F8
:10496000559799838883E85BFF4F56968D919C916C
:1049700091838083DF91CF9108950C946B240F93E2
:104980000E94F4220F9108958F929F92AF92BF924E
:10499000CF92DF92EF92FF920F931F93CF93DF930B
:1049A000EC017C0188E5E80EF11CF7010081118122
:1049B0005E01F4E5AF0EB11CF501208131816E017D
:1049C000F6E5CF0ED11CF601408151814E01F2E592
:1049D0008F0E911CF40160817181CE010E94C7236A
:1049E000FE01EC57FF4F81110EC01082DF91CF9175
:1049F0001F910F91FF90EF90DF90CF90BF90AF90FD
:104A00009F908F90089581E08083F401808191814F
:104A1000FE01E65BFF4F208131812817390710F432
:104A200091838083F50180819181FE01E45BFF4FDA
:104A3000208131818217930710F491838083F601DE
:104A400080819181FE01E25BFF4F20813181281737
:104A5000390710F491838083F70180819181C05BD5
:104A6000DF4F288139818217930708F0BFCF9983E0
:104A70008883BCCFFC01E65BFF4F11821082329627
:104A8000DC01AA5BBF4F2D913C91119731832083AC
:104A9000329614972D913C91119731832083329651
:104AA00012962D913C91318320830C94C424FC01F7
:104AB000EE5AFF4F11821082349611821082329783
:104AC0002FEF3FEF31832083349631832083DC0145
:104AD000D696ED91FC910280F381E02D09940F931D
:104AE0001F93CF93DF93EC01FC01E65AFF4F118235
:104AF00010823DAB2CAB79AF68AF4AAF1BAE3F968F
:104B00001082B096108234971082359681E08083AF
:104B1000319680831FAB0EABD801ED91FC91CE0195
:104B20000995CE010E945725CE010E94D322C45977
:104B3000DF4F1882DF91CF911F910F910895662367
:104B400029F06A3019F0862F90E008958FEF9FEFDB
:104B50000895FC01108E08959A01DC011896ED91DC
:104B6000FC91462F67E10994CF93DF931F92CDB755
:104B7000DEB76983AE014F5F5F4F61E00E94AC25F5
:104B80000F90DF91CF910895DC011896ED91FC9183
:104B900030E020E040E068E10994DC011896ED91F6
:104BA000FC9130E020E040E069E10994EF92FF924F
:104BB0001F93CF93DF93EC01162F7A010E94C42537
:104BC00060E4CE010E94B425E885F9859701412F64
:104BD00067E1CE010995CE01DF91CF911F91FF9042
:104BE000EF900C94CD25462FDC011696ED91FC91AB
:104BF00030E020E065E10994462FDC011696ED9146
:104C0000FC9130E020E066E109949A01DC011696FF
:104C1000ED91FC91462F67E10994DC011696ED9128
:104C2000FC9130E020E040E068E10994DC01169658
:104C3000ED91FC9130E020E040E069E10994EF92D1
:104C4000FF920F931F93CF93DF931F92CDB7DEB7E1
:104C50007C018B01D8016C91673129F150F46531E9
:104C6000A0F40F90DF91CF911F910F91FF90EF90E3
:104C700008956A3118F16E3FA1F7F8014181498327
:104C800069E2C7010E94EE270BC0F8014181498308
:104C9000D7011696ED91FC9130E020E0C70109950F
:104CA0000E5F1F4FD7CFF80181818983AE014F5F1F
:104CB0005F4F61E0C7010E940526F2CF0F5F1F4FD3
:104CC000D7011696ED91FC9130E020E040E0C7015D
:104CD0000995C0CFEF92FF921F93CF93DF93EC0122
:104CE000142F7901663181F138F4643109F44BC035
:104CF000653179F080E022C06831C9F150F1693145
:104D0000C9F780911904882391F1CE010E94CD2525
:104D10002EC080911904882319F0CE010E94CD2560
:104D2000CE010E94C42560E0CE010E94B425612F0F
:104D3000CE010E94B42581E080931904DF91CF91C8
:104D40001F91FF90EF900895642F0E94B42581E099
:104D5000F5CF80911904882319F0CE010E94CD254A
:104D6000A701193138F4612FCE010E94D625109287
:104D70001904EDCF68E1CE010E94D625185188E1D3
:104D8000E80EF11CEDCF8E898F3F11F488E78E8BF2
:104D9000E885F9859701412F64E1CE01DF91CF913C
:104DA0001F91FF90EF900994EF92FF920F931F9342
:104DB000CF93DF93EC01042F79016D3009F447C0E4
:104DC00020F46B3099F180E03BC06E3009F452C0A2
:104DD0006F30C9F70E940D26F7011381110F110FD3
:104DE000110F6C89160F60E4CE010E94F325612F2C
:104DF00062956F706061CE010E94F325612F6F7024
:104E0000CE010E94FC25F7016481606BCE010E94F7
:104E1000FC25F701408151816281660F660F660FA4
:104E2000CE010E9405260150A1F72EC061E871E075
:104E3000442311F06CE771E0CE010E941F2681E04F
:104E4000DF91CF911F910F91FF90EF900895411145
:104E500009C065E771E00E941F26E881F981828917
:104E60008C8BEDCF6EE671E00E941F26E881F98100
:104E70008389F6CF0E940D2661E8CE010E94F325BA
:104E8000602FCE010E94FC25CE010E941626D7CFAE
:104E90001F93CF93DF93EC01162F0E94D42681112C
:104EA0000CC0193079F01A3049F4CE010E947027F5
:104EB00066E871E0CE010E941F2681E0DF91CF916C
:104EC0001F91089566E571E0CE010E946827F5CF35
:104ED000FC0171836083FB012289FC01248B08950E
:104EE000CF93DF93EC01EA85FB8530E020E040E0E2
:104EF00068E20995EE81FF8130E020E040E064E166
:104F0000CE01099541E06BE4CE010E94EE27E881D5
:104F1000F981448169E2CE010E94EE2740E06BE412
:104F2000CE010E94EE27E881F981448169E2CE0139
:104F30000E94EE2741E06BE4CE010E94EE27E8815B
:104F4000F981458169E2CE01DF91CF910C94EE2782
:104F50000F931F93CF93DF9300D000D01F92CDB754
:104F6000DEB76C834D832B831A830983DC0114968F
:104F7000ED91FC919E012F5F3F4F41E06FE009955D
:104F80000F900F900F900F900F90DF91CF911F9186
:104F90000F910895DC011496ED91FC9130E020E032
:104FA00040E069E00994DC011496ED91FC9130E059
:104FB00020E040E06AE00994462FDC011496ED9170
:104FC000FC9130E020E06BE00994DC011496ED9157
:104FD000FC9130E020E040E060E10994DC011A96A9
:104FE000ED91FC9130E020E0099480E00895FC010F
:104FF0001182108285EF97E295838483978386835D
:105000009187808793878287158A108E14861586EC
:10501000168617868FEF868B828FDF015E96F49659
:105020008D93AE17BF07E1F70895AF92BF92CF926D
:10503000DF92EF92FF920F931F93CF93DF93EC01D8
:105040005B016A0179010E94F727BD82AC82DF8291
:10505000CE82F986E8861B870A87CE01DF91CF9141
:105060001F910F91FF90EF90DF90CF90BF90AF9086
:105070000C94CA27CF93DF931F92CDB7DEB7FC0104
:10508000698387898823F9F026898485958528177F
:10509000190654F081E090E09383828390E080E0F1
:1050A0000F90DF91CF9108958981A5892389348953
:1050B000A20FB32FB11D8C9385898F5F858B868B53
:1050C00081E090E0EDCF00A4F1A5E02D61E0CE01FC
:1050D00001960995F5CFFC0181899089891B990B6F
:1050E0000895FC01908981892FEF3FEF981740F4D4
:1050F000A685B785A90FB11D2C9130E09F5F908BDD
:10510000C9010895DC015096EC91509751968C910D
:105110005197E81748F41E968D919C91E80FF92F4E
:10512000F11D808190E008958FEF9FEF089508951D
:10513000CF92DF92EF92FF920F931F93CF93DF9363
:105140008C01CB017A01D80157962C9157972223D5
:1051500089F0EB016B01C40ED51ECC15DD0579F08D
:105160006991D801ED91FC910190F081E02DC80189
:105170000995F3CF9896ED91FC91642F0995C7019D
:10518000DF91CF911F910F91FF90EF90DF90CF9023
:1051900008952F923F924F925F926F927F928F92DB
:1051A0009F92AF92BF92CF92DF92EF92FF920F93B6
:1051B0001F93CF93DF93CDB7DEB760970FB6F89408
:1051C000DEBF0FBECDBF3C012B015A8349833C8318
:1051D0002B838DA19EA19E838D83EFA1F8A5F887D7
:1051E000EF8389A59AA59A878987EBA5FCA5FC87FB
:1051F000EB872DA43EA48FA598A99E878D87E9A94A
:10520000FAA9F88BEF87F3011382128288EE93E0FC
:10521000A0E0B0E084839583A683B7838FEB91E011
:105220009183808375876487CB010E945333F30198
:1052300097878687108A118A128AC2010E94533387
:10524000F301948B838B158A168A178A89819A8138
:10525000958F848F8B819C81978F868F11A300A35C
:10526000F3A2E2A2D5A2C4A2B7A2A6A291A680A64A
:105270008D819E8193A782A78F81988595A784A70A
:1052800089859A8597A786A7C101EB85FC85099535
:105290008F859889ED85FE8560960FB6F894DEBF00
:1052A0000FBECDBFDF91CF911F910F91FF90EF9077
:1052B000DF90CF90BF90AF909F908F907F906F9036
:1052C0005F904F903F902F900994CF93DF93EC0124
:1052D0008FEB91E09983888361E070E08E859F85F4
:1052E0000E94553361E070E08B899C89DF91CF91FA
:1052F0000C945533FC01108A118A158A168A048C85
:10530000F58DE02D0994DC019296ED91FC91CB0195
:10531000BA010994FC0181E0878B628B158A168A99
:1053200008950F93CF93DF93EC018B899C89EEA1B5
:10533000FFA1062F21E04E89BC018A8909951D8AAB
:105340001E8A1F8ADF91CF910F91089561E00C941E
:105350009129FC01CA01228D338D232BD9F030898C
:1053600021893217B8F020E0422F50E04817590742
:105370005CF4DB01A40FB51F3C91A685B785A40F93
:10538000B51F3C932F5FF0CF108A818B028CF38D79
:10539000E02D09940895AB01BC018AE194E00C94DE
:1053A000A929DC015896ED91FC915997309731F07D
:1053B00055961C92559756961C92099408958AE129
:1053C00094E00C94D1298F929F92AF92BF92CF928A
:1053D000DF92EF92FF920F931F938FED99E29F93CD
:1053E0008F9389E49BE29F938F938BEC99E29F9339
:1053F0008F9384E49BE29F938F9380E69BE29F933D
:105400008F9386E59BE29F938F938EE49BE29F931D
:105410008F938DE1882E8BE2982E96ECA92E9AE23E
:10542000B92E2EE7C22E2AE2D22E3BE6E32E3AE236
:10543000F32E07E61AE22AE53AE24CE35AE260E28A
:1054400070E08AE194E00E94C9288DB79EB70E965D
:105450000FB6F8949EBF0FBE8DBF1F910F91FF90A6
:10546000EF90DF90CF90BF90AF909F908F90089576
:105470008AE194E00C9465291092B70481E080934E
:10548000B5041092B40461E082E10E94F93461E055
:1054900083E10E94F934E9EBF0E080818E7F808324
:1054A00080818D7F808388E48093B80085E4809339
:1054B000BC000895ECEBF0E080818A7B808360E0A3
:1054C00082E10E94F93460E083E10C94F934880FA2
:1054D0008093BA0008959B01AC0160E074E284EF10
:1054E00090E00E94753820513109410951095695C3
:1054F0004795379527952093B8000895413208F0D5
:1055000043C09091B7049111FCCF91E09093B70400
:105510002093B5042FEF20934A0410928F04240F98
:1055200020938E049093B6049091B604880F892B33
:105530008093B6048091B404813009F51092B404CC
:105540008091B6048093BB008091BC0083FDF8CFAE
:1055500085EC8093BC008091B7048130E1F38091A9
:105560008F04841710F440918F04A0E9B4E0962FC3
:10557000FB018E2F891B841720F0842F089585EE60
:10558000E8CF8D918193F5CF40E0F7CF0F93413273
:1055900008F04BC09091B7049111FCCF92E090932A
:1055A000B7040093B5049FEF90934A0410928F04C0
:1055B00040938E04362FA0E9B4E0FB019E2F931B8D
:1055C000941770F11092B6049091B604880F892B4D
:1055D0008093B6048091B404813029F51092B4040C
:1055E0008091B6048093BB008091BC0083FDF8CF0E
:1055F00085EC8093BC00222321F08091B704823097
:10560000D1F380914A048F3F91F080914A04803217
:1056100081F080914A04803371F084E00F91089505
:1056200091919D93CBCF85EEE4CF81E0F7CF80E0E1
:10563000F5CF82E0F3CF83E0F1CF20916C04260F09
:105640003327331F21323105ECF42091B704FC01DC
:1056500090E080E0243069F082E00895A0916C042D
:105660002191AC0142595B4FA40FB52FB11D2C9372
:105670000196861798F380916C04680F60936C0410
:1056800080E0089581E008959093B1048093B00480
:1056900008959093B3048093B2040895882321F071
:1056A00085EC8093BC00089585E8FBCF85ED809361
:1056B000BC008091BC0084FDFCCF1092B70408951B
:1056C00085EC8093BC001092B70408951F920F924E
:1056D0000FB60F9211242F933F934F935F936F93C5
:1056E0007F938F939F93AF93BF93EF93FF9380919B
:1056F000B900887F803609F44CC008F03FC088327A
:1057000009F4A8C018F5803109F49CC0B8F48823C6
:1057100009F4F9C0883009F495C0FF91EF91BF9169
:10572000AF919F918F917F916F915F914F913F9139
:105730002F910F900FBE0F901F901895883109F48C
:1057400089C0803251F780934A0415C0803409F42F
:105750009EC048F48033B9F38833F9F680934A0445
:105760000E94602BDACF803509F485C0883509F4B2
:1057700096C0883491F60E94562BCFCF883909F411
:105780008CC038F5883729F050F4883611F080370E
:1057900021F683E08093B70410924B0457C08838F9
:1057A00009F47BC0803919F0803809F0B6CF8091B8
:1057B0004B04803208F071C0E0914B0481E08E0F01
:1057C00080934B048091BB00F0E0E45BFB4F80834F
:1057D0003DC0803B39F0E0F4803A09F479C0883A62
:1057E00009F09BCF84E08093B70410926D0410926F
:1057F0006C04E091B204F091B304099580916C04BB
:1058000081110FC081E080936C0410926E0409C076
:10581000803C09F476C0883C09F473C0883B09F0E9
:105820007CCFE0916D0481E08E0F80936D04F0E0F9
:10583000E259FB4F80818093BB0090916D04809171
:105840006C0429C08091B6048093BB0085EC8093E2
:10585000BC0063CF90918F0480918E04981758F507
:10586000E0918F0481E08E0F80938F04F0E0E05789
:10587000FB4F8081E9CFE0918F0481E08E0F809310
:105880008F048091BB00F0E0E057FB4F8083909144
:105890008F0480918E049817C8F285E8D8CFE091E4
:1058A0008F0481E08E0F80938F048091BB00F0E025
:1058B000E057FB4F80838091B50481115CCF81E07C
:1058C0008093B40484EA8093BC001092B70425CF7F
:1058D0000E94602B80914B04803230F4E0914B04A5
:1058E000F0E0E45BFB4F108260914B0470E0E091CC
:1058F000B004F091B1048CE494E0099510924B044B
:105900000CCF85ECE0CF10924A0435CF88EB94E0C1
:105910000C94D129AB01BC0188EB94E00C94A9292B
:105920008F929F92AF92BF92CF92DF92EF92FF92AF
:105930000F931F9386E89CE29F938F9386EF9DE2DF
:105940009F938F938AE89CE29F938F9381EF9DE2D0
:105950009F938F938DE09EE29F938F9383E09EE2CF
:105960009F938F938BEF9DE29F938F938AEC882E6A
:105970008DE2982E93E7A92E9DE2B92E2BE2C22E3E
:105980002DE2D22E38E1E32E3DE2F32E04E11DE2BA
:1059900027E03DE249EE5CE260E270E088EB94E0F3
:1059A0000E94C9288DB79EB70E960FB6F8949EBF79
:1059B0000FBE8DBF1F910F91FF90EF90DF90CF90A2
:1059C000BF90AF909F908F90089588EB94E00C94D7
:1059D00065291092550581E0809353051092520578
:1059E00061E087E10E94F93461E088E10E94F934C6
:1059F000E9EDF0E080818E7F808380818D7F8083E0
:105A000088E48093D80085E48093DC000895ECED71
:105A1000F0E080818A7B808360E087E10E94F93436
:105A200060E088E10C94F934880F8093DA000895DF
:105A30009B01AC0160E074E284EF90E00E94753855
:105A400020513109410951095695479537952795B8
:105A50002093B8000895413208F043C09091550555
:105A60009111FCCF91E090935505209353052FEFB2
:105A70002093E80410922D05240F20932C05909379
:105A8000540590915405880F892B8093540580917B
:105A90005205813009F5109252058091540580938A
:105AA000DB008091DC0083FDF8CF85EC8093DC0087
:105AB000809155058130E1F380912D05841710F414
:105AC00040912D05AEE2B5E0962FFB018E2F891B8C
:105AD000841720F0842F089585EEE8CF8D9181936F
