:100000000C94E7080C940F090C940F090C94A9099F
:100010000C940F090C940F090C940F090C940F0900
:100020000C940F090C940F090C940F090C940F09F0
:100030000C940F090C940F090C940F090C940F09E0
:100040000C94C5340C940F090C94EC310C941E32B2
:100050000C940F090C940F090C940F090C940F09C0
:100060000C94D42C0C940F090C940F090C940F09C8
:100070000C940F090C940F090C940F090C940F09A0
:100080000C940F090C940F090C940F090C940F0990
:100090000C940F090C940F090C940F090C940F0980
:1000A0000C94812F0C940F090C940F090C940F09D8
:1000B0000C940F0908000000BE922449123EABAA1E
:1000C000AA2ABECDCCCC4C3E00000080BEABAAAA72
:1000D000AA3E00000000BF000000803F00000000BA
:1000E00000084178D3BB4387D1133D190E3CC3BDF3
:1000F0004282AD2B3E68EC8276BED98FE1A93E4CA0
:1001000080EFFFBE01C4FF7F3F0000000000556E7E
:100110007465726272656368756E6720537465708A
:10012000706572004665686C657221004B75727A65
:100130007363686C757373205374657070657200B7
:100140004665686C657221004B75727A7363686CE2
:10015000757373206E616368204D6173736500462B
:1001600065686C657221004D6F746F727472656999
:1001700062657200C39C62657274656D70657261C0
:10018000747572004665686C65722100430020003A
:100190006C74656D70657261747572200062657251
:1001A00074656D7065726174757200486175707404
:1001B000736368616C74657220617573007469673C
:1001C00074004272656D73652062657400746967BE
:1001D000740048616E646272656D73652062657457
:1001E0000020250048414C44455800566F726C6110
:1001F000646570756D7065004665686C6572210098
:10020000616C6C7261646275732E636F6D00544330
:10021000413936350048616C64657820436F6E74EF
:10022000726F6C6C657200BF000302040402040567
:100230000B0DFFFE08FE08FE015302BD08672005F6
:1002400000E604210681E3C4252207233B45A204DE
:10025000231076A2559225D12025C92025591201B7
:100260002410A59E55B654946C4BA244A96C110061
:10027000251088628ED49229799C275A12951400F1
:10028000260D86238E16B56951A2259129270621B0
:10029000BA8400280BA31A551225515B9405290C2A
:1002A000A31B451665514B9444002A07333645D2AB
:1002B000012B0A55A655180D5218012C0732DA4C9D
:1002C000A2002D06132EC5002E0611E344002F0AAE
:1002D00083E254256A892200300A85A2CD92F996DC
:1002E0002C00310782A3CDD207320C85A2CD928596
:1002F00025290B0701330C85A2CD9285911A6AC975
:1003000002340E85A25D262551524A062D4C003539
:100310000C85A2CD9084E11A6AC902360C85A2CD63
:1003200092894392D99205370B85A2C52066C52CC8
:10033000AC01380C85A2CD9269C992D99205390CCD
:1003400085A2CD92D99221D492053A0661E3441850
:100350003B0982DA4C0E250A003C0753A755522B65
:100360003D08346AC5100E013E0853A745562901C1
:100370003F0B84A38D1265512D8F0040169ADEDE4F
:1003800020A651A4245249C92225AA448A966383EF
:1003900006410E87E25D9C26619295062555034233
:1003A0000D85E3C59064DAA064B64101430C862351
:1003B000CE90846AC7644800440D8623C610654900
:1003C000E82D192200450A85E3C5311CC6E2204606
:1003D0000A85A3C5311C92B011470C8623CE9084A8
:1003E0006A6D149341480A862346681C06D1314938
:1003F0000681E3C4414A0984625D6F52A2004B0D3D
:1004000085E3452625A5A9122599164C0884A34500
:10041000D6B7214D10876346BA0DD952512A5224BE
:100420004552014E0F862386B62991124989946858
:100430009B004F0B8623CE90843E264302500C85B2
:10044000E3C59064DAA0848D005112971FCE108509
:10045000499884499844494D1AF400520C85E3C5E3
:100460009064DAA0646E01530C85E3CD92A9ABA62B
:10047000250B0054098562C520857D02550A862317
:1004800046E8C7644800560F87E245AA26599445B6
:1004900059254CD20C5710896246966995A82F6D44
:1004A000C52CCC2200580D85E345A625B54A94D429
:1004B000B400590E87E2459A645156099334AE014F
:1004C0005A0B85E3C52066C5AC38085B08A2DBC4BF
:1004D000D22F025C0A83E24494456D51005D08A26C
:1004E000DA84D22F035E0A55AE55982551520B5F20
:1004F00006169AC501600622FE4414610C6562C5A9
:100500001A2D5112454A00620C85A245583169DA0C
:10051000A42800630A64628D1269A54401640A85F7
:10052000A265C5B4991425650B64628D120D5B94A8
:100530002800660A842295124D592700670C859A77
:100540008D6933294A982C00680A85A2455831697B
:100550006E01690781A244320C6A09A2994C96F493
:10056000A2006B0C846245565212292949016C067F
:1005700081A2C4416D0E6722C6A244911449911410
:1005800049056E0965A24562D2DC026F0A65A2CDFB
:1005900092B9250B00700C859A4562D2B44951C2BC
:1005A00010710A859A8D6933294A58720963224568
:1005B000B2444D00730B64628D1225A2942800741E
:1005C0000A83224D942C5193007508646245E429F6
:1005D00019760C65A245A625A5240B2300770E6786
:1005E0002246144995A6A496844904780A65A24532
:1005F00096D42A352D790E85594D94444929C9B48C
:1006000030D2007A0A6462C590456D43007B0AA32C
:10061000DA541255B2A82D7C07A1DBC443007D0B30
:10062000A3DA4416D592A825027E0726EE8D640132
:10063000A00500E604A10781DB44320CA20E859FD1
:100640005DB45494288992CA9401A30C85A2955450
:10065000C9B6B0A42800A40C6466459428919428D7
:100660005100A50D85A245664B2A83140D5204A6A0
:1006700008A1DBC4100D01A70FA59ACD928D4B34B4
:1006800044C9B8250B00A80613FE4412A90E7763CF
:10069000D65689142593945A3601AA08532EC5A418
:1006A0006403AB0A55A255D25B922501AC0735EB2A
:1006B000C52016AD06132EC500AE0D7763D656497C
:1006C0001693D22D9B00AF0613FEC400B00944322E
:1006D0008D12498902B10B75A255180D52980F025F
:1006E000B20743F2CC5219B30843F2C4922D00B4BE
:1006F0000622FE8C02B50A845A45E469D83200B657
:1007000015A69ACD3028C9922C9192255992255937
:1007100092250900B70612EE8400B80622DACC0052
:10072000B90642F2CC52BA09532EC5900CD900BB7F
:100730000B55A245922559D21300BC1289624E96E0
:10074000696194467916465A34446102BD10886244
:100750004E1669A5308A232D2965A501BE1289622E
:10076000C69EA55126E54814466232446102BF0B7D
:10077000849B559E45B5285100C010B7E2559EC3D5
:10078000D5244CB2D2A0A46A00C110B7E2659AC3C6
:10079000D5244CB2D2A0A46A00C211B7E25D9AE49B
:1007A000689C2661929506255503C312B7E25D92B7
:1007B00025391AA7499864A54149D500C410A7E274
:1007C0005592A3719A8449561A94540DC510B7E2F4
:1007D0005D9AA471350993AC3428A91AC61289A26E
:1007E000DEB0C9499C0C4A940E6116668300C70DA1
:1007F000A61BCE90846AC764084309C80CB5E34DB4
:100800009A0F63388CC541C90CB5E35D7D18C3618F
:100810002C0E02CA0DB5E35596C4C3180E637110B1
:10082000CB0CA5E34D7918C3612C0E02CC09B2E2C2
:10083000449425FD00CD09B2E38C96F40B00CE095B
:10084000B3E24C63D42F00CF09A3E2441246FD0269
:10085000D0118722CE9095C2414AC2244CB26888FA
:1008600000D112B62356122539A26D4AA444522251
:1008700025DA26D20EB623569C434312FA980C0969
:1008800000D30DB623661D1A92D0C7644800D40E5B
:10089000B6235698E4D090843E264302D50FB62363
:1008A000561225393424A18FC99000D60EA6234EA6
:1008B00094234312FA980C0900D70A55A64596D4FA
:1008C0002AB500D812A61F6E3224D994488912295D
:1008D000D1960C490AD90CB623569C23A11F93210B
:1008E00001DA0CB623661D09FD980C0900DB0DB674
:1008F000235698E448E8C7644800DC0BA6234E94CE
:10090000877E4C8604DD10B7E2659A63699245598B
:10091000254CD2B806DE0D85E345180E49A60D4AD2
:100920001802DF0B84628D12594A2E0900E00D95E2
:10093000624D9AAFD1122551A404E10E95625596ED
:10094000236BB44449142901E20E95625596C46B99
:10095000B44449142901E30D95624DF7355AA22498
:100960008A9400E40C85624D798D9628892225E5CC
:100970000F9562559664D11A2D5112454A00E60E24
:100980006722C62246C930445954B100E70C845A44
:100990008D1269A5448B1400E80C94624D182BD17C
:1009A000B0458902E90C9462555D89862D4A140090
:1009B000EA0D94624D94C44A346C51A200EB0C844D
:1009C0006245122BD1B0458902EC0892A1449425CE
:1009D0003DED0892A28C96F402EE0993A14C63D4EB
:1009E0000B00EF0983A1441246BD00F00D95A24D06
:1009F0003848D1A0B9250B00F10A94624DA2A44B4E
:100A0000E429F20C95A24D9A234BE6962C00F30BA9
:100A100095A25D1D5932B76401F40C95A25596E478
:100A20004BE6962C00F50B95A255D2BE646EC9021A
:100A3000F60A85A24D7DC9DC9205F70955A6553EFB
:100A4000E81100F80D67A1D552929292544B920989
:100A5000F90A94624D98469E9201FA0A94625D9456
:100A6000469E9201FB0A94624D94A491A764FC0AED
:100A700084624592469E9201FD0FB559659647499D
:100A80009494924C0B230DFE0DA59A45583169DACA
:100A9000A4286108FF0FA5594D3D4AA2A494645AA9
:100AA00018690000000004FFFF00005F0003030559
:100AB000050305061212FFFC0EFC0EFC022504AD18
:100AC0000684200600309600210AC31596F85011BE
:100AD0001E04220AA5349F9070194500231DAB11F6
:100AE000AE9488256289EC3039CC24628958223B47
:100AF0004C0E33895822960801241D0AD2A90DDB19
:100B00000E915144320A8EA265733564095942939D
:100B100043CC1C074501251EAD15C2218A6C226DF0
:100B20002251D022A5C88171A0842A3186D444DA0A
:100B30004C420A00261DCD15BAA343CCA3A9503AB6
:100B400092D74133994934320969D2D9AC7699D5D3
:100B5000062708A23493384800280F46969D1BCDDF
:100B60006433D9FE281C0A17291246929D180E8557
:100B700043E16CBFC966B2D10C002A0FC714A78B22
:100B8000492292DA4C228A45002B0D0835AE13AB70
:100B90001D0E32B11A002C0AC3B495384828210022
:100BA0002D0765909A78082E0763149638082F1041
:100BB000C51196D33492298D64A2914C0D00300F4B
:100BC000A911AA1B9E266BFE36593ACE00310BA600
:100BD00015AA1B1D0EB2FD033212A911AAAA5D6649
:100BE000B6F17458AB51970F07023313A911AAAA93
:100BF0005D46939978482D936D26CAAD043415A9A6
:100C000011AA9D126B36C96832124D4693C3813AC0
:100C10005E013515A911AA38440E91F1F874888C3B
:100C2000C8639BE95032013614A911AA321D22B3C0
:100C3000F2647488908C8DA6C9AD043710A911AAEE
:100C400078204F97A7E3E9783A5E053812A911AAF0
:100C5000AA5D666E935B6DB2E636B995003914A94C
:100C600011AAAA5D46C64613E5109A8C6B9343C839
:100C7000043A0A43159A38C8A107013B0CA3B59959
:100C800038C8A1070925043C0D2915AE1E966AC473
:100C900039B979003D0BA974AE78A0830E07023EE6
:100CA0000D2915AE1837D387B452710C3F11C815F2
:100CB000AAB11C48A6E190B8BA0E9EAE01402A30F7
:100CC000B6C9BD1F8854D21CA43691984E34918C5D
:100CD00024939114496A12919A6472188D28C33929
:100CE0009C0E3EC84147004119CC15BAA443E866A2
:100CF0009158241D0D4743B5E1E8303A4CC6CE0368
:100D0000421ACB19BA381E4433CA70329CCC4607FB
:100D1000D16132BC3A1E2E871800431BCC15BAACE9
:100D20001E44B4D1F46A07CD4173D01C449D4C27B6
:100D3000B4D9415A034416CC15BA38040FA321651F
:100D40003A19FBEB6448398C0E41004511CA19B6BB
:100D5000F820DF7E901C24F3ED878301460FCA152F
:100D6000B2F820DF7E901C24F3BD03471BCC15BED8
:100D7000AC1E44B4D1F46A07CD41B383EC309D4C32
:100D80002734D2616611480DCC15BA18FBF9F04131
:100D9000ECE7014907C31596F8074A0DC911AADE09
:100DA0009F6DB60BE556024B1BCD15BA985286A423
:100DB000196D449C50CFF6F3843A22CE6843D29406
:100DC00032264C0BC915AE18EF7F3E1C084D21CEC4
:100DD00015C29843EC90F3217C101E8687E12122F6
:100DE000925844128B486222994836994D364E1AD1
:100DF000CC15BA185F1F8207994566199944A689D0
:100E00004D623C040FD1F3004F16CD15BE2C1F646C
:100E10004CD309F5EEFD4A998E68B483B808501991
:100E2000CB15B638C40E93E1D5E3E17288CD2173BA
:100E3000C81C3287CC2100511AEDF5BD2C1F644C23
:100E4000D309F5EEFD24A18C4CA4DA417C8803255E
:100E500000521ECC15BA38040FA321653A994E866C
:100E600094C3E8201B8EA693E9643A994EA60453D6
:100E700016CB15B6BA1D24B4EB1D623EDB2157EB31
:100E80008D72909D00541CCB11AEF8109C43E690DF
:100E900039640E9943E69039640E9943E6903964BB
:100EA00008550ECC15BA18FB3F4F86A3C3D0065683
:100EB0001ECD11B698DB27D3D1742615CE86B3E9A3
:100EC000643C994BE4903AA40E9AC3A600571DCFF8
:100ED00015C698CD6C33DBCCB632DABFA8CC241A59
:100EE000251A2BD5D978369ECD005819CC11B218B9
:100EF0009B27C311A3486CA79B45D2D16C381A4ECF
:100F0000C6E601591CCD11B698DB27D3D9E26C3A5D
:100F1000194FE675D01C3687CD6173D81C36055A3B
:100F200010CA15B278B08FD7C7DBC7EB8783015BD8
:100F30000B4596993898F6FF74185C0DC51196907C
:100F4000A9CDB4CDD4661A5D0B459299388CF6FFC5
:100F500074305E0FEAD0AA9493A922D96824940C25
:100F6000075F074A90A978306007657097982D61F0
:100F7000134A15AE2ADE6463DA89B23619512A2380
:100F80000A016214CA15B298EF423A484893A1C7C1
:100F9000D3E42099900063104915AEA31D2223F3DA
:100FA000F6D1E41023016413CA15B2DF893239483F
:100FB00046478F9311E520A20C65114915AEA39DFC
:100FC00046C6C3837C3439C44800660EC7119E23CD
:100FD0009586A3C369B89F006718CA95B1A24C0E45
:100FE00092D1D1E36444398828F3C9687408D200E7
:100FF000680DC915AE18EF4239986CFE36690AC300
:10100000159638C80E1F046A0C458E95DA3EDA7FB5
:101010003A54006B12C915AA18EF3459B2158BB6A1
:10102000C96865741B6C07C31596F8076D184F15D2
:10103000C6989028874389649BD966B6996D669B4C
:10104000D966B6056E0C4915AE98500E269BBF0D9D
:101050006F114A15B2231E422B438F93D1E810A47F
:10106000017015CA95B198900E12D264E8F1343926
:101070004826A4F976007113CA95B1A24C0E92D1FC
:10108000D1E36444398828F31D720B46159E981CE1
:101090000EB37D0373104915AE321D68E643EC6C48
:1010A0003B904C00740DA6119A992D1D2AB3BD9545
:1010B00008750B4915AE98F9A78385327611491149
:1010C000A698B94D9626A3C9AC581DCF0077194FE5
:1010D00011BE98CD6C33DBCA684B65345199558A83
:1010E00034EA6C3C9B0178114915AE98D9266BD532
:1010F000696D329AACD9067914C995AD98B94D96F7
:1011000026A3C9AC581D2F4BA953007A0C4815AA29
:1011100078900EF77A38087B0D4796A19C2DEEB695
:10112000BAB8D7057C08429695F843007D0E4792E1
:10113000A1982EEEBAB6B8B745007E0A6994AE21E2
:101140001D4C140000000004FFFF00000A0D0E09F2
:101150000003020000040508000000000000000079
:10116000000000000000000102040810204080017F
:1011700002040810200102040810204080400102EF
:101180000408040404040404040402020202020227
:101190000303030303030202030505050500000022
:1011A000002300260029002C000000000025002854
:1011B000002B002E0000000000240027002A002D34
:1011C00000009913512BFE2D4E32A62B532E1124C5
:1011D0001FBECFEFD8E0DEBFCDBF11E0A0E0B1E091
:1011E000E0EAF7E702C005900D92AC3EB107D9F7EF
:1011F00026E0ACEEB1E001C01D92A030B207E1F7ED
:1012000018E0C5EED8E004C02197FE010E94243A00
:10121000C13ED107C9F70E94B2340C94C33B0C9471
:10122000000090E080E008950895CF92DF92EF9261
:10123000FF920F931F93CF93DF936C01EB017B0120
:10124000E40EF51E10E000E0CE15DF0561F06991B7
:10125000D601ED91FC910190F081E02DC601099538
:10126000080F191FF1CFC801DF91CF911F910F9186
:10127000FF90EF90DF90CF900895CF92DF92EF92A2
:10128000FF920F931F93CF93DF93EC016C0124E047
:10129000C20ED11CFC01E057FF4F0190F081E02D00
:1012A000C60109958E3FEFEF9E07D8F48E010C56CC
:1012B0001F4FF801408151817E01F2E9EF0EF11CD0
:1012C000F701608171819C01C6010E94C222C05950
:1012D000DF4F28812130C1F078F02230B9F023307F
:1012E000E9F081E090E0DF91CF911F910F91FF90A5
:1012F000EF90DF90CF900895F70120813181820F28
:10130000931F91838083EDCFF801F7CFF701208100
:101310003181281B390B31832083E3CFF801F7CFCC
:10132000FF920F931F93CF93DF93EC01F62E08816A
:101330001981C8010E94AD3BF81621F06F2DC8013C
:101340000E94B53BCE01DF91CF911F910F91FF908D
:1013500008951F920F920FB60F9211242F933F936F
:101360004F935F936F937F938F939F93AF93BF93AD
:10137000EF93FF938CE00E949536892BB1F1809119
:10138000F101811132C081E08093F10110920601D8
:101390008BE00E949536892B21F48091F0018823FF
:1013A00081F18BE00E949536892B89F58AE00E94B5
:1013B0009536892B21F48091EF01882379F18AE019
:1013C0000E949536892B81F5FF91EF91BF91AF91E6
:1013D0009F918F917F916F915F914F913F912F914D
:1013E0000F900FBE0F901F9018958CE00E949536BD
:1013F000892B71F68091F101882351F21092F1014D
:10140000C5CF81E08093F00110920601CFCF80918B
:10141000F001882359F21092F001F6CF81E0809319
:10142000EF0110920601D0CF8091EF01882361F285
:101430001092EF01F6CF2F923F924F925F926F92F0
:101440007F928F929F92AF92BF92CF92DF92EF9254
:10145000FF920F931F93CF93DF938091EC01811143
:1014600086C18091ED01811182C1E090AE02F090C1
:10147000AF020F2C000C000B110B2091A602309133
:10148000A702032E000C440B550B6091F6017091DE
:10149000F701072E000C880B990B1F921F921F92C9
:1014A000E6E7EF93A12CB12C65010E946F342B016C
:1014B0004B0184E192E00E94A51F0F900F900F90C6
:1014C0000F90C5E0D0E08FE2282E312C20E830E0EC
:1014D00050E040E070E060E084E192E00E94492446
:1014E00067E272E084E192E00E947523D093A30248
:1014F000C093A2028BE090E09093A5028093A40297
:1015000064EE71E080E192E00E94B7320FE010E0FB
:1015100026E730E04FE050E065E070E084E192E0E3
:101520000E94E71E00E110E02BE430E04FE050E0C5
:101530006BE470E084E192E00E94C42404E110E0D6
:101540002BE430E043E150E06BE470E084E192E0B2
:101550000E94C42408E110E02BE430E047E150E0B1
:101560006BE470E084E192E00E94C4240CE110E09E
:101570002BE430E04BE150E06BE470E084E192E07A
:101580000E94C424D093A302C093A2023092A50269
:101590002092A4028091F1018111FCC08091F001A0
:1015A0008111F8C08091EF018111F4C08091EE01AA
:1015B0008111F0C00FE010E092014FE050E065E0D3
:1015C00070E084E192E00E94B31E97E489169104D2
:1015D000D4F160E084E192E00E94712400E110E027
:1015E0002BE430E04FE050E06BE470E084E192E007
:1015F0000E94C42404E110E02BE430E043E150E019
:101600006BE470E084E192E00E94C42408E110E001
:101610002BE430E047E150E06BE470E084E192E0DD
:101620000E94C4240CE110E02BE430E04BE150E0D8
:101630006BE470E084E192E00E94C42461E084E104
:1016400092E00E9471246BEA7AE084E192E00E94C9
:101650007523E090AE02F090AF020F2C000C000B4F
:10166000110B2091A6023091A702032E000C440B0F
:10167000550B6091F6017091F701072E000C880B55
:10168000990B1F921F921F92E4E6EF93A12CB12CAD
:1016900065010E946F34AB01BC012AE030E080E1BB
:1016A00092E00E942E3367E272E084E192E00E94B1
:1016B000752361EE71E080E192E00E94B7320F90F5
:1016C0000F900F900F9020E830E041E350E070E081
:1016D00060E084E192E00E94492467E272E084E1E4
:1016E00092E00E947523D093A302C093A2028DE3DF
:1016F00090E09093A5028093A40266ED80E192E0D1
:101700000E943D0960E971E080E192E00E94B732F9
:101710004091040250910502609106027091070207
:1017200030E020E080E192E00E946D346EE871E0EC
:1017300080E192E00E94B73260EB80E192E00E948B
:101740003D096CE871E080E192E00E94B73220E848
:1017500030E04FE350E070E060E084E192E00E940E
:10176000492484E192E00E94B71F8111AFCEDF913E
:10177000CF911F910F91FF90EF90DF90CF90BF908E
:10178000AF909F908F907F906F905F904F903F9021
:101790002F9008958091F001882389F062ED71E027
:1017A00080E192E00E94B73264EE80E192E00E9414
:1017B0003D096DEC71E080E192E00E94B7328091CA
:1017C000F101882389F062EC71E080E192E00E94EF
:1017D000B73264EE80E192E00E943D096DEB71E06A
:1017E00080E192E00E94B7328091EF01882331F0CE
:1017F0006BEA71E080E192E00E94B7328091EE01E5
:10180000882309F460CF6CED80E192E00E943D09ED
:101810006DE971E080E192E00E94B73254CFCF923F
:10182000DF92EF92FF920F931F93CF93DF93C82F16
:101830008AEF92E00E945B166093F6027093F702C3
:101840008093F8029093F90261FF4BC081E080938E
:10185000ED0184E192E00E94A51F2FE0C22ED12C61
:1018600038E2E32EF12C02E310E06BEA7AE084E147
:1018700092E00E9475231092A3021092A202D092CD
:10188000A502C092A40264E871E080E192E00E94A7
:10189000B7321092A3021092A202F092A502E09237
:1018A000A40267E272E084E192E00E94752364E79B
:1018B00071E080E192E00E94B7321092A302109290
:1018C000A2021093A5020093A40267E671E080E1F2
:1018D00092E00E94B73284E192E00E94B71F81112A
:1018E000C4CF8091F6028C70D1F181E08093ED013C
:1018F00084E192E00E94A51F9FE0E92EF12C08E20E
:1019000010E06BEA7AE084E192E00E947523109285
:10191000A3021092A202F092A502E092A4026FE547
:1019200071E080E192E00E94B7321092A30210921F
:10193000A2021093A5020093A40267E272E084E180
:1019400092E00E94752368E471E080E192E00E94D9
:10195000B73284E192E00E94B71F8111D2CF80910B
:10196000F6028073D1F181E08093ED0184E192E091
:101970000E94A51F8FE0E82EF12C08E210E06BEA30
:101980007AE084E192E00E9475231092A302109203
:10199000A202F092A502E092A40260E471E080E16C
:1019A00092E00E94B7321092A3021092A20210930A
:1019B000A5020093A40267E272E084E192E00E9433
:1019C00075236CE271E080E192E00E94B73284E11D
:1019D00092E00E94B71F8111D2CF8091F602807CE5
:1019E000D9F1CC23C9F181E08093ED0184E192E04B
:1019F0000E94A51F0FE010E0C8E2D0E06BEA7AE099
:101A000084E192E00E9475231092A3021092A20238
:101A10001093A5020093A40264E271E080E192E0D9
:101A20000E94B7321092A3021092A202D093A50294
:101A3000C093A40267E272E084E192E00E94752301
:101A40006EE071E080E192E00E94B73284E192E0C2
:101A50000E94B71F8111D2CFDF91CF911F910F91BB
:101A6000FF90EF90DF90CF9008958F929F92AF926A
:101A7000BF92CF92DF92EF92FF920F931F93BC0120
:101A8000990F880B990B1F921F921F921F92AA24E5
:101A9000AA9423E0B22EC12CD12CEE24EA9413E0B8
:101AA000F12E00E010E020E030E0A9010E946F3448
:101AB000072E000C880B990B0E94DA379B01AC01B2
:101AC00060E070EC8FE794E40E94303720E030E073
:101AD00040E85FE30E94BE3620911301309114016B
:101AE00040911501509116010E94DF386093080261
:101AF0007093090280930A0290930B020E94973818
:101B00006B017C01C0920C02D0920D02E0920E0299
:101B1000F0920F0220910B0130910C0140910D01C8
:101B200050910E010E94DF3820910F013091100179
:101B300040911101509112010E94BF364B015C018E
:101B400020910701309108014091090150910A014B
:101B5000C701B6010E94DF38A70196010E94DF3855
:101B6000A70196010E94DF389B01AC01C501B401B9
:101B70000E94BF369B01AC0160E070E080E89FE30B
:101B80000E94303723E333E948E853E40E94BE362D
:101B900060930402709305028093060290930702FB
:101BA0000F900F900F900F901F910F91FF90EF905B
:101BB000DF90CF90BF90AF909F908F9008954F92FD
:101BC0005F926F927F928F929F92AF92BF92CF92CD
:101BD000DF92EF92FF920F931F93BC01990F880B36
:101BE000990B1F921F921F9224E62F93A12CB12CC8
:101BF00065011CEFE12E13E0F12E00E010E020E083
:101C000030E0A9010E946F340E94DA3720E030E012
:101C100048EC52E40E9430376B017C01AC019B011F
:101C20000E94DF384B015C01A70196010E94DF385A
:101C300026E636E646E65FE30E94DF382B013C01EC
:101C400026E636E646EA5FE3C501B4010E94DF38C6
:101C50009B01AC01C301B2010E94BE364B015C0185
:101C60002DEC3CEC4CEA5FE3C701B6010E94DF3883
:101C70009B01AC01C501B4010E94BF362FE832ECD4
:101C800045EF5CE30E94BF3620E030E048EC52E4D0
:101C90000E94DF380E94A237A090A602B090A7024F
:101CA0000B2C000CCC08DD0877FF02C070E060E070
:101CB000072E000C880B990B0091AE021091AF0219
:101CC000012E000C220B330B3F932F931F930F9386
:101CD00012E6E12EF12C00E010E023E030E040E0DD
:101CE00050E00E946F342DB73EB7285F3F4F0FB6CC
:101CF000F8943EBF0FBE2DBFCB011F910F91FF90F7
:101D0000EF90DF90CF90BF90AF909F908F907F909B
:101D10006F905F904F900895CF92DF92EF92FF9275
:101D20008EE00E94C0350E94350D8FE00E94C035C4
:101D30000E94DF0D9093F7018093F601C09004029A
:101D4000D0900502E0900602F090070220E030E01B
:101D500040EA51E4C701B6010E94BE3620E030E0FF
:101D600040E85EE30E94DF380E94A2377093F301DF
:101D70006093F20120E030E048EC52E4C701B60184
:101D80000E948A38181684F48091EE0181110CC0EB
:101D900081E08093EE011092060180E0FF90EF90C9
:101DA000DF90CF900C940F0C20E030E04EEB52E42B
:101DB000C701B6010E942B3718167CF38091EE0103
:101DC000882359F31092EE01E8CFAF92BF92CF92E1
:101DD000DF92EF92FF920F931F93CF93DF930E94B6
:101DE0000F35009100021091010220910202309102
:101DF0000302601B710B820B930B6233710581052B
:101E0000910560F00E940F3560930002709301020B
:101E100080930202909303020E948C0E0E940F3561
:101E20000091FC011091FD012091FE013091FF0114
:101E3000601B710B820B930B643671058105910554
:101E4000F8F00E940F356093FC017093FD018093C0
:101E5000FE019093FF0182EB92E00E942E1C6B0129
:101E60007C0182EB92E00E942E1CA70196010E9449
:101E7000D339643071058105910514F40E941B0A61
:101E80000E940F350091F8011091F9012091FA019B
:101E90003091FB01601B710B820B930B643F71400F
:101EA0008105910508F43FC00E940F356093F80149
:101EB0007093F9018093FA019093FB01E090AE02D8
:101EC000F090AF020F2C000C000B110B2091A6021A
:101ED0003091A702032E000C440B550B6091F601C4
:101EE0007091F701072E000C880B990B1F921F921F
:101EF0001F92E4E6EF93A12CB12C65010E946F3490
:101F00000F900F900F900F906C3371058105910524
:101F100034F08DE00E94953661E0892B09F060E095
:101F20008DE00E9467368091F10181112CC0809173
:101F3000F001811128C08091EE01811124C08091AF
:101F4000EF01882309F46FC061E084E00E946736E6
:101F500060E087E10E94673680910601811125C00B
:101F600081E08093060140E050E0BA0182EB92E00C
:101F70000E94461C40E050E06AE774E482EB92E085
:101F80000E94601D12C061E084E00E94673680916B
:101F9000060181110AC081E08093060140E050E013
:101FA000BA0182EB92E00E94461C8091ED018823E9
:101FB00041F061E084E00E94673660E087E10E94C2
:101FC000673689E00E949536892B09F4A1C01092EA
:101FD000EC012091F6013091F7014091F20150910E
:101FE000F3018091B0029091B1026091A6027091CC
:101FF000A70277FFDBC0241B350BAC014C5F5F4FA2
:10200000421753070CF0CCC03093F5012093F40134
:10201000DF91CF911F910F91FF90EF90DF90CF90C4
:10202000BF90AF9008958091F1018111BECF809152
:10203000F0018111BACF8091EF018111B6CF80916B
:10204000EE018111B2CF8091ED018111B2CF60E03C
:1020500084E00E94673661E087E10E946736409124
:10206000F4015091F501052E000C660B770B82EB05
:1020700092E00E94BD1B40E050E06AE774E482EB0E
:1020800092E00E94601D82EB92E00E94D51D80913B
:10209000060181118ACF40E050E0BA0182EB92E064
:1020A0000E94461C40E050E06AE774E482EB92E054
:1020B0000E94601D81E0809306014091F4015091DF
:1020C000F501052E000C660B770B82EB92E00E9467
:1020D000BD1B40E050E06AE774E482EB92E00E94AE
:1020E000601D82EB92E00E94401C2091F40130912F
:1020F000F5018901330F220B330B6017710782073B
:10210000930709F452CF82EB92E00E94D51DE9CFEC
:1021100087E10E949536892B09F459CF81E080939D
:10212000EC0161E084E00E94673660E087E10E9494
:10213000673684E192E00E94A51FCFE0D0E009E17C
:1021400010E06BEA7AE084E192E00E94752310923D
:10215000A3021092A202D093A502C093A40268EF3A
:1021600071E080E192E00E94B7321092A3021092D7
:10217000A2021093A5020093A40267E272E084E138
:1021800092E00E9475236BEE71E080E192E00E9484
:10219000B73284E192E00E94B71F8111D2CF19CFEC
:1021A00005969093F5018093F40132CF240F351FEB
:1021B000AC014450510905972417350794F724CFF3
:1021C0008F929F92AF92BF92CF92DF92EF92FF9247
:1021D0006C0160E084E00E9467360D2C000CEE0874
:1021E000FF08B701A60182EB92E00E94BD1B40E010
:1021F00050E068EC73E482EB92E00E94601D82EB99
:1022000092E00E94401C0E94DA374B015C01C7013A
:10221000B6010E94DA372DEC3CEC4CEC5DE30E94F9
:10222000DF389B01AC01C501B4010E942B37882324
:1022300029F082EB92E00E94D51DE1CF82EB92E083
:102240000E94401CC616D706E806F906C1F082EBCC
:1022500092E00E94D51D8AEF92E00E945F160A97D5
:102260006CF782EB92E00E94401CCB01FF90EF9054
:10227000DF90CF90BF90AF909F908F900895F6CF52
:10228000FF920F931F93CF93DF9300D0CDB7DEB7AC
:102290008C01F72E9A838983CE0101960E949009C2
:1022A0000F5F1F4F1A8309836F2DCE0101960E9485
:1022B00090090F900F90DF91CF911F910F91FF9098
:1022C00008951F93CF93DF93EC010E94AD3B182F2D
:1022D000CE0101960E94AD3B90E0982F8827810F98
:1022E000911DDF91CF911F910895EF92FF920F936F
:1022F0001F93CF93DF9384E192E00E94412984E110
:1023000092E00E94DC1F60E084E192E00E944A2992
:1023100067E272E084E192E00E94752384E192E03A
:102320000E94A51FBCE0EB2EF12C08E210E0CCE3EC
:10233000D0E067E272E084E192E00E94752310929F
:10234000A3021092A202F092A502E092A40265E11B
:1023500072E080E192E00E94B73220E830E04CE089
:1023600050E070E060E084E192E00E944924109225
:10237000A3021092A2021093A5020093A4026EE0A1
:1023800072E080E192E00E94B7321092A3021092B4
:10239000A202D093A502C093A40260E072E080E1A3
:1023A00092E00E94B73284E192E00E94B71F81114F
:1023B000C0CF10E000E020E032EC41E050E066E504
:1023C00075E08AEF92E00E94A81768E28AEF92E037
:1023D0000E94CE1668E28AEF92E00E94DE168AEF33
:1023E00092E00E9475178AEF92E00E94811765E0E3
:1023F0008AEF92E00E94C21464E070E08AEF92E0FB
:102400000E94521763E070E08AEF92E00E94691721
:1024100040ED57E060E070E08AEF92E00E94BD146A
:1024200040E050E06AE775E482EB92E00E945C1CB9
:1024300040E050E06AE775E482EB92E00E943C1DC8
:1024400061E084E00E942B3661E086E00E942B363A
:1024500061E085E00E942B3660E08FE00E942B3621
:1024600060E08EE00E942B3660E08CE00E942B360C
:1024700062E08BE00E942B3660E08AE00E942B36FF
:1024800060E089E00E942B3661E087E10E942B36F4
:1024900061E08DE00E942B368CE00E949536892BFE
:1024A00019F081E08093F1018BE00E949536892B31
:1024B00019F481E08093F0018AE00E949536892B1F
:1024C00019F481E08093EF0181E0809368008CE152
:1024D00080936B0060E084E00E9467368AEF92E0B0
:1024E0000E94FF166AEF70E080E090E00E944035A5
:1024F00081E00E940F0C6AEF70E080E090E00E94A3
:10250000403590E080E00E94AD3B8B3709F4E0C09D
:1025100080E991E00E94E0109093B1028093B002B4
:10252000C29744F480E79EEF0E94E0109093B102BE
:102530008093B0028091B0029091B1028E3C2FEF57
:1025400092070CF08EC02CE93FEF3093A702209346
:10255000A6029C01285D3F4F3093AF022093AE024C
:1025600084579F4FAC0197FF02C04F5F5F4F559557
:102570004795445651095093AB024093AA02241B3D
:10258000350B37FF02C02F5F3F4F35952795240F3E
:10259000351F3093AD022093AC0297FD03969595BD
:1025A000879595958795845691099093A902809374
:1025B000A8026BE790E080E00E94B53B6091A60224
:1025C0007091A70282E090E00E9440116091A80201
:1025D0007091A90284E090E00E9440116091AA02EB
:1025E0007091AB0286E090E00E9440116091AC02D5
:1025F0007091AD0288E090E00E9440116091AE02BF
:102600007091AF028AE090E00E9440116091B002A8
:102610007091B1028CE090E00E94401161E084E092
:102620000E94673640E050E0BA0182EB92E00E94DF
:10263000461C40E050E06AE774E482EB92E00E94BE
:10264000601D6CE38AEF92E00E94CE1668E28AEF8A
:1026500092E0DF91CF911F910F91FF90EF900C943A
:10266000DE16833391050CF4A9CF24E630E03093D5
:10267000A7022093A6029C01285231093093AF0291
:102680002093AE028C589109AC0197FF02C04F5FB6
:102690005F4F559547954C595F4F5093AB02409310
:1026A000AA02241B350B37FF02C02F5F3F4F359521
:1026B0002795240F351F3093AD022093AC0297FD70
:1026C000039695958795959587958C599F4F6DCFD6
:1026D00082E090E00E9461119093A7028093A6028D
:1026E00084E090E00E9461119093A9028093A80277
:1026F00086E090E00E9461119093AB028093AA0261
:1027000088E090E00E9461119093AD028093AC024A
:102710008AE090E00E9461119093AF028093AE0234
:102720008CE090E00E9461119093B1028093B0021E
:1027300075CFCF92EF920F93CF93DF938AEF92E012
:102740000E94E213CC24C39485E0E82E04E025E047
:1027500046E061E082EB92E00E94D21CC0E1D2E050
:102760001B821A828CE191E0998388838DE097E245
:102770009093A1028093A0021092A3021092A20251
:102780001092A5021092A40284E192E00E94172701
:1027900088E291E09983888326EF3DE147E65EE198
:1027A00060E571E084E192E00E94F21F2FEF4FEFAD
:1027B0006FEF84E192E0DF91CF910F91EF90CF9096
:1027C0000C94621EFC0183E0828F1182108280E0F3
:1027D00092ECA1E0B0E082839383A483B583168258
:1027E0008FEF9FEF90878783158A0895DC018D9185
:1027F0009C91009739F0DC01ED91FC910084F1850A
:10280000E02D099490E080E00895DC018D919C9189
:10281000009739F0DC01ED91FC910190F081E02D01
:10282000099490E080E00895DC018D919C910097DF
:1028300039F0DC01ED91FC910284F385E02D0994DF
:1028400090E080E00895DC018D919C91009739F033
:10285000DC01ED91FC910680F781E02D099408954B
:10286000CB01BA010E942A3A08957F928F929F92DB
:10287000AF92BF92CF92DF92EF92FF920F931F938E
:10288000CF93DF93CDB7DEB728970FB6F894DEBFAE
:102890000FBECDBF7C01162FBA01A90185E0898347
:1028A000F701B680BA821F7710681B83C7010E94A8
:1028B00030146C837D838E839F83F62FA72E982EF2
:1028C000892EE0E0B0E0A0E087E0782E25E03B2D07
:1028D000412F5F2F6A2D792D882D90E00A2F0E94BD
:1028E000663A38E08E2F90E0422F50E0BC01660F30
:1028F000672F661F770B20FBCC24C0F8D12CEE0F7E
:102900006C157D0521F0880F991FE82FE725559557
:102910004795242F315031F71896A833B105B1F6F9
:10292000E887D12CC12C29813A814B815C816D8152
:102930007E818F8198850C2D0E94663A622FC70197
:102940000E940514F8E0CF0ED11C80E4C816D10413
:1029500051F728960FB6F894DEBF0FBECDBFDF91BA
:10296000CF911F910F91FF90EF90DF90CF90BF908C
:10297000AF909F908F907F9008959A01AB0164E192
:102980000C943514262F30E050E040E060E40C94C5
:102990003514CF93DF93EC011D861E861F86188A9F
:1029A00080E18D878E858F618E878F85807F8160A6
:1029B0008F872D853E854F85588960E1CE010E9425
:1029C000351483E58E8B1F8A81E0888F80E1898FA3
:1029D0002E893F89488D598D6CE6CE010E943514B1
:1029E00084E290E0ADE0B1EC8B8F9C8FAD8FBE8F19
:1029F00024E230E04DE051EC60E7CE010E94351456
:102A0000198A1A8A1B8A1C8A20E030E0A90162E434
:102A1000CE010E94351424E130E040E050E061E155
:102A2000CE010E94351420E030E0A90163E1CE011F
:102A30000E94351420E030E0A90162E2CE010E943C
:102A4000351420E030E0A90164E1CE010E94351484
:102A500020E030E0A90160E4CE010E94351420E0BE
:102A600030E0A90162E4CE01DF91CF910C943514DE
:102A70008F929F92AF92BF92DF92EF92FF920F934D
:102A80001F93CF93DF93CDB7DEB728970FB6F89497
:102A9000DEBF0FBECDBF7C0145E0842E912CA12C62
:102AA000B12CFC0196806F778A2D8078A82EA62AFB
:102AB000E894A7F8F0E0E0E080E057E0D52EB5011B
:102AC000A4010E2E04C076956795579547950A94F4
:102AD000D2F758E0682F70E0A42FB0E08B01000F10
:102AE000012F001F110B242F217030E0880F0217D7
:102AF000130721F0CB01880F991F8D25B595A79558
:102B00004A2F515039F73896E831F105C1F6B82E01
:102B1000C7010E942314C7010E94F6131816190654
:102B200024F4C7010E941414F6CF10E000E0C501A0
:102B3000B401002E04C096958795779567950A9401
:102B4000D2F7C7010E940514085F1F4F003211051C
:102B500071F7C7010E942314812C912C5401C701E5
:102B60000E94F61304978CF4F0EA8F16FFE09F069C
:102B7000A104B104E9F081E090E00E9479358FEF83
:102B8000881A980AA80AB80AEACFE0EA8E16EFE097
:102B90009E06A104B10461F0C7010E941414C7018C
:102BA0000E941414C7010E941414C7010E94141437
:102BB000812C912C5401C7010E94F613089794F4BC
:102BC000F0E18F16F7E29F06A104B10409F45EC09C
:102BD00081E090E00E9479358FEF881A980AA80A60
:102BE000B80AE9CFE0E18E16E7E29E06A104B1043F
:102BF00009F44CC019821A821B821C821D821E821B
:102C00001F821886B12CA12CC7010E9414149C01AC
:102C1000932F990F990B492F592F692F792F892FAE
:102C20000A2D0E944B3AF9812F2BFA813F2BEB8121
:102C3000E42B4C81452B5D81562B6E81672B7F8168
:102C4000782B8885982B29833A83EB834C835D838B
:102C50006E837F839887F8E0AF0EB11C80E4A816DE
:102C6000B10491F6C70128960FB6F894DEBF0FBEE7
:102C7000CDBFDF91CF911F910F91FF90EF90DF902B
:102C8000BF90AF909F908F900C94301460E070E0F4
:102C9000CB0128960FB6F894DEBF0FBECDBFDF91F3
:102CA000CF911F910F91FF90EF90DF90BF90AF9069
:102CB0009F908F9008956FE60E943815089561E403
:102CC0000E943815CB010895AF92BF92CF92DF9248
:102CD000EF92FF920F931F9370E090E080E06536D3
:102CE00071058105910520F064E670E080E090E0D8
:102CF0001F921F921F922FE12F93A12CB12C6501DF
:102D000014E6E12EF12C00E010E020E030E0A90113
:102D10000E946F34862F0F900F900F900F901F918D
:102D20000F91FF90EF90DF90CF90BF90AF900895FC
:102D3000FC01218532854385548560E00C9435146F
:102D4000FC01668380EC818781E08287138614868C
:102D5000CF010C949816CF93DF93EC012D853E851F
:102D60004F85588960E10E9435149E859F718A893C
:102D7000943178F080688A8B8D89882361F0298965
:102D80003A894B895C8962E4CE01DF91CF910C9442
:102D900035148F77F0CFDF91CF910895CF93DF93E4
:102DA000EC010E946416982F9F718E85807E892B7E
:102DB0008E87CE01DF91CF910C94AB16CF93DF932A
:102DC000EC010E946416982F9F718D85807E892B5F
:102DD0008D87CE01DF91CF910C94AB16FC01268537
:102DE000207E26872585207E25870C94AB16FC0146
:102DF00026893789408D518D6CE60C943514CF931C
:102E0000DF93EC018F81988597FD03C060E00E94FD
:102E100067369A8D9F708E89807F892B8E8BCE012D
:102E2000DF91CF910C94F716CF93DF93EC018F8154
:102E3000988597FD03C061E00E9467368E89807F88
:102E40008E8BCE01DF91CF910C94F716DC01599651
:102E50009C915997683020F5E62FF0E0ED5CF84E34
:102E6000907F0C94243A3B17421744174617481793
:102E70004A174C174E17986059969C935997CD0155
:102E80000C94F7169760F8CF9660F6CF9560F4CF64
:102E90009460F2CF9360F0CF9260EECF9160ECCF70
:102EA000907FEACF9B013695279570E060E0211571
:102EB000310529F0369527956F5F7F4FF8CF0C9439
:102EC0002617FC01238D348D458D568D60E70C94BB
:102ED0003514FC016370962F9295907F658D6F7C01
:102EE000692B658FCF010C946117FC01258D24603F
:102EF000258F0C946117FC01258D2B7F258F0C9459
:102F00006117FC01258D2860258F0C946117FC0149
:102F1000258D277F258F0C946117CF93DF93EC01CC
:102F20004A835B836C837D83B9010E94A016CE0126
:102F30000E94C914CE010E94EE16CE010E94141701
:102F4000CE010E947B17CE01DF91CF910C948717A1
:102F5000CF92DF92EF92FF920F931F93CF93DF9365
:102F6000EC01CB0169017A01798368830E94D93130
:102F700026E0B701A601888199810E9481319801DC
:102F8000B701A601CE01DF91CF911F910F91FF9064
:102F9000EF90DF90CF900C948D1708954F925F9231
:102FA0006F927F928F929F92AF92BF92CF92DF9259
:102FB000EF92FF920F931F93CF93DF93EC01CC8896
:102FC000DD88EE88FF8888899989AA89BB89C81A13
:102FD000D90AEA0AFB0A688D798D8A8D9B8D9B013F
:102FE000AC010E94DF384B015C0168A179A18AA184
:102FF0009BA19B01AC010E94BF369B01AC01C501A6
:10300000B4010E9430370E94A237C114D104E104F8
:10301000F10409F0B6C062307105810591050CF02C
:10302000D0C01B821C821D821E82188E198E1A8EA1
:103030001B8E1CAA1DAA1EAA1FAAC12CD12C760168
:10304000C701B601DF91CF911F910F91FF90EF90D3
:10305000DF90CF90BF90AF909F908F907F906F90B8
:103060005F904F9008951016110612061306B4F4DF
:103070006C157D058E059F051CF42A812111A1C0C8
:103080009B01AC0188279927DC01821B930BA40BC1
:10309000B50B8CAB9DABAEABBFAB93C001151105AF
:1030A0002105310509F48DC06C157D058E059F0540
:1030B0000CF087C08A81882309F483C0309520955D
:1030C000109501951F4F2F4F3F4F0CAB1DAB2EABF3
:1030D0003FAB77C0011511052105310509F471C019
:1030E0008824992454018C189D08AE08BF086815DF
:1030F00079058A059B050CF064C08A81811161C045
:10310000DDCFCCACDDACEEACFFACA7019601C701C6
:10311000B6010E94BF362B013C01C501B4010E94DB
:10312000DA3720E030E040E850E40E94DF3820E069
:1031300030E040E85FE30E94BF369B01AC01C30171
:10314000B2010E9430379B01AC01C701B6010E9459
:10315000BE363B016C01FE01E05CFF4FE080F18078
:10316000028113819701A8010E948A38181614F46D
:1031700073018601C701D8018CAF9DAFAEAFBFAF61
:103180003AC00CA91DA92EA93FA91C141D041E0498
:103190001F040CF468CF10161106120613060CF06B
:1031A00099CF0027112798010C191D092E093F09F5
:1031B00060177107820793070CF062CF2A812111F3
:1031C0005FCF8CA89DA8AEA8BFA881149104A104CC
:1031D000B10409F096CF88AD99ADAAADBBAD8CAF67
:1031E0009DAFAEAFBFAF81E01C141D041E041F04D1
:1031F0000CF080E08A833FEF831A930AA30AB30A94
:103200008CAA9DAAAEAABFAA8CAC9DACAEACBFAC3A
:10321000C501B4010E94A9376B017C01CB82DC821D
:10322000ED82FE82A501940160E074E284E799E4F6
:103230000E943037688F798F8A8F9B8F2A81211166
:10324000FFCE9058688F798F8A8F9B8FF9CEDC01E3
:103250001796EC911797E93008F038C0F0E0ED5C74
:10326000F64E0C94243A3C19421948194E19541937
:1032700066195A1966196019ED91FC910684F78553
:10328000E02D0994ED91FC910088F189E02DF9CFB2
:10329000ED91FC910288F389E02DF3CFED91FC9143
:1032A0000488F589E02DEDCFED91FC910688F78932
:1032B000E02DE7CFED91FC91008CF18DE02DE1CF79
:1032C000ED91FC91028CF38DE02DDBCF0895CF932F
:1032D000DF93EC01CB01BA0126E030E040E050E0A2
:1032E0000E94053A623071058105910589F16CF4FF
:1032F0006115710581059105D1F061307105810578
:103300009105F9F0DF91CF91089564307105810541
:10331000910561F124F1653071058105910591F701
:10332000E881F9810284F385E02D66E006C0E8813A
:10333000F9810284F385E02D64E0CE01DF91CF9125
:103340000994E881F9810284F385E02D65E0F5CFE9
:10335000E881F9810284F385E02D61E0EECFE88118
:10336000F9810284F385E02D63E0E7CFE881F981FC
:103370000284F385E02D62E0E0CFDC01ED91FC9169
:103380002285338547705527662777274150510995
:1033900061097109473051056105710560F4FA0151
:1033A000EC52F64E0C94243ADE19E019E219E419B5
:1033B000E619E819EA1961E0F901099465E0FCCF22
:1033C00064E0FACF66E0F8CF62E0F6CF6AE0F4CFCF
:1033D00068E0F2CF69E0F0CFCF92DF92EF92FF92F8
:1033E0000F931F93CF93DF93DC011796CC91C430DA
:1033F00039F0C83059F1C33019F0C63049F1C2E094
:103400008C01085F1F4FF12CE12CC62ED12CD1E08E
:10341000F8016481C6010E2C02C0959587950A9427
:10342000E2F780FD6D270F5F1F4F80810E94673696
:10343000BFEFEB1AFB0AEC1658F3DF91CF911F9107
:103440000F91FF90EF90DF90CF900895C4E0D8CF18
:10345000C3E0D6CFCF93DF93EC01E881F9810284FA
:10346000F385E02D8A8160E0811162E0CE0109954B
:10347000E881F9810284F385E02D8A8161E0811180
:1034800063E0CE0109958CA59DA50E947935E88160
:10349000F9810284F385E02D8A8160E0811162E088
:1034A000CE01DF91CF91099464E470E00C94C334B1
:1034B000CF93DF93EC0120E030E0A901688D798D96
:1034C0008A8D9B8D0E948A3818162CF4E8A9F9A9D8
:1034D000DF91CF910994EAA9FBA9FACFDC01ED9124
:1034E000FC910284F385E02D4370552766277727EA
:1034F000423051056105710571F043305105610598
:10350000710559F0413051056105710511F062E016
:10351000099463E0FDCF61E0FBCF60E0F9CFCF938A
:10352000DF93EC01CB01BA0123E030E040E050E052
:103530000E94053A613071058105910599F062306C
:10354000710581059105A9F0672B682B692BC1F4E2
:10355000E881F9810284F385E02D64E0CE01DF91FA
:10356000CF910994E881F9810284F385E02D61E02F
:10357000F5CFE881F9810284F385E02D62E0EECF9A
:10358000DF91CF910895DC01ED91FC910284F385E8
:10359000E02D437055276627772742305105610596
:1035A000710571F0433051056105710559F04130E5
:1035B00051056105710511F065E0099466E0FDCFE4
:1035C0006AE0FBCF69E0F9CFCF93DF93FC0127815D
:1035D0002223A9F0EC010190F081E02D0284F38513
:1035E000E02D60E009958FA58F3F49F061E00E94D2
:1035F0002B366EA58FA5DF91CF910C946736DF91A6
:10360000CF910895CF93DF93FC012781222359F1B5
:10361000EC0161E080850E942B3661E089850E9483
:103620002B368F81843011F08830B1F461E08A85C7
:103630000E942B3661E08B850E942B368FA58F3F31
:1036400091F061E00E942B366EA581E068278FA57E
:10365000DF91CF910C946736833011F0863071F78B
:1036600061E08A85E9CFDF91CF9108954F925F9213
:103670006F927F928F929F92AF92BF92CF92DF9282
:10368000EF92FF92CF93DF93EC016A017B0120E080
:1036900030E0A901CB01B6010E942B3787FF04C09F
:1036A000F7FAF094F7F8F09488A099A0AAA0BBA02C
:1036B000A7019601C501B4010E942B37882309F4A4
:1036C0004DC06CA97DA98EA99FA90E94DA372B0154
:1036D0003C01A7019601C501B4010E9430379B014E
:1036E000AC01C301B2010E94DF380E94A2376CAB6B
:1036F0007DAB8EAB9FABA701960160E070E080E0F0
:1037000090E40E9430370E94523926E53EE04DE2B7
:103710005FE30E94DF3820E034E244E759E40E948E
:10372000DF3868AF79AF8AAF9BAFC8A2D9A2EAA24F
:10373000FBA2E881F9810084F185E02DCE01DF91C3
:10374000CF91FF90EF90DF90CF90BF90AF909F9080
:103750008F907F906F905F904F900994DF91CF9101
:10376000FF90EF90DF90CF90BF90AF909F908F90A1
:103770007F906F905F904F9008950F931F93DC019F
:1037800054960D911D912D913C9157970417150753
:103790002607370771F0FC01448B558B668B778BBE
:1037A0000190F081E02D0084F185E02D1F910F91B3
:1037B00009941F910F910895CF92DF92EF92FF929B
:1037C000CF93DF93FC014381548165817681452B42
:1037D000462B472B41F480E0DF91CF91FF90EF9093
:1037E000DF90CF900895EC010E941B356B017C01A6
:1037F00088A599A5AAA5BBA5B701A601481B590B89
:103800006A0B7B0B8B819C81AD81BE814817590768
:103810006A077B0700F388899989AA89BB892A816D
:103820002223C1F00196A11DB11D888B998BAA8B13
:10383000BB8B488959896A897B89E881F98104842D
:10384000F585E02DCE010995C8A6D9A6EAA6FBA666
:1038500081E0C2CF0197A109B109E7CF0F931F9370
:10386000FC01648975898689978900891189228973
:103870003389601B710B820B930B1F910F9108957D
:10388000FC0160897189828993890895FC01408BCC
:10389000518B628B738B448B558B668B778B14AA01
:1038A00015AA16AA17AA1382148215821682108EE0
:1038B000118E128E138E0895CF92DF92EF92FF92A7
:1038C0000F931F93CF93DF93EC016A017B0120E0FC
:1038D00030E0A901CB01B6010E942B3787FF04C05D
:1038E000F7FAF094F7F8F094A70196016C8D7D8DAE
:1038F0008E8D9F8D0E942B37882309F44AC0CC8E71
:10390000DD8EEE8EFF8E8E01005C1F4FA7019601AB
:1039100060E074E284E799E40E943037F801608344
:103920007183828393838CA99DA9AEA9BFA9181620
:1039300019061A061B066CF5688D798D8A8D9B8D8C
:103940009B01AC010E94DF386B017C0168A179A169
:103950008AA19BA19B01AC010E94BF369B01AC01D7
:10396000C701B6010E9430370E94A2376CAB7DAB15
:103970008EAB9FABE881F9810084F185E02DCE010B
:10398000DF91CF911F910F91FF90EF90DF90CF903B
:103990000994DF91CF911F910F91FF90EF90DF90ED
:1039A000CF900895CF92EF920F93CF93DF93EC01D6
:1039B00084E391E0998388836F83188A198A1A8A2D
:1039C0001B8A1C8A1D8A1E8A1F8A188E198E1A8EBF
:1039D0001B8E1C8E1D8E1E8E1F8E18A219A21AA25F
:1039E0001BA280E090E0A0E8BFE38CA39DA3AEA360
:1039F000BFA31B821C821D821E8261E070E07DA736
:103A00006CA73FEF3FA718A619A61AA61BA64887C2
:103A100029870A87EB861EA61CAA1DAA1EAA1FAA12
:103A200018AE19AE1AAE1BAE1CAE1DAE1EAE1FAE4A
:103A3000FE01E05CFF4F80839183A283B3831A82EF
:103A40001C861D861E861F86CC2019F0CE010E9482
:103A5000021B40E050E060E87FE3CE010E94361B8D
:103A600040E050E060E87FE3CE01DF91CF910F911D
:103A7000EF90CF900C945C1CCF92DF92EF92FF926C
:103A8000CF93DF93EC016A017B0120E030E0A901D4
:103A9000CB01B6010E942B37882359F0B701A6014C
:103AA000CE01DF91CF91FF90EF90DF90CF900C94FB
:103AB000361BDF91CF91FF90EF90DF90CF9008956C
:103AC0004F925F926F927F92AF92BF92CF92DF92AE
:103AD000EF92FF920F931F93CF93DF93EC015A0164
:103AE0008B019A01AB01688D798D8A8D9B8D0E9427
:103AF0002B37882379F14C8C5D8C6E8C7F8C730115
:103B00006201F7FAF094F7F8F0949501A801C70163
:103B1000B6010E948A38181664F09501A801C30105
:103B2000B2010E942B376501780187FF02C0730143
:103B3000620120E030E0A901C701B6010E942B37E5
:103B4000811117C01B821C821D821E82C88ED98ED5
:103B5000EA8EFB8EDF91CF911F910F91FF90EF9036
:103B6000DF90CF90BF90AF907F906F905F904F901D
:103B70000895A701960160E074E284E799E40E9449
:103B800030379F770E94A9376B837C838D839E8318
:103B900011E020E030E0A901C701B6010E948A3897
:103BA00018160CF010E01A83D1CF0F931F93FC016D
:103BB00004891589268937894089518962897389E1
:103BC000041715072607370769F0401751076207E2
:103BD000730734F421E022831F910F910C94DC1BB6
:103BE0001282FACF80E01F910F9108950F931F93D7
:103BF000CF93DF938C01C62F642FCC32A8F4CA3246
:103C0000D0F5C83239F1C932E1F180E0C034A0F119
:103C1000CF73F801EC0FF11DD68DDF3F61F1C0319C
:103C200008F042C08D2F13C0CD3289F170F384EBC0
:103C30008C0F823050F7CF73C00FD12FD11D8E8DD6
:103C400041112EC061E00E942B3660E08E8D0E94F3
:103C5000673611C0025E1F4FD0E0F80181918F01DD
:103C60008F3F31F061E0D03108F062E00E942B36E6
:103C7000DF5FD63191F781E0DF91CF911F910F91F6
:103C8000089570E090E080E00E944035F4CF85E038
:103C900090E0433010F082E090E00E947935EBCF65
:103CA00062E00E942B36E7CFC03111F40E94B0349D
:103CB0008D2F0E94953621E0892B09F420E0F80130
:103CC000218FD9CFFC0161A742A723A70895CF93E5
:103CD000DF93EC01683189F130F4643199F0673198
:103CE00051F080E005C06931C9F16032D1F781E05F
:103CF000DF91CF91089550E0B9018AE194E00E94EC
:103D0000062AF5CF8C859D85AE85BF85892B8A2BAC
:103D10008B2B71F4E881F981A585B0E020EA36E8C3
:103D200041E050E00E94403A6C877D878E879F87F4
:103D30008AE194E00E94E82ADACF4C855D856E85A1
:103D40007F858AE194E00E94F12A6E8970E0759582
:103D500067958AE194E00E94F82AC9CF8AE194E04D
:103D60000E94142BC4CF8F929F92AF92BF92CF929A
:103D7000DF92EF92FF920F931F93CF93DF935C013B
:103D80006B01EA0149017A01E00EF11E9B01280D49
:103D9000391D87010E948D24811115C0DF91CF91BB
:103DA0001F910F91FF90EF90DF90CF90BF90AF9059
:103DB0009F908F90089500E09401AE01B601C50177
:103DC0000E949E232196EC16FD06A9F7E7CF6F927D
:103DD0007F928F929F92AF92BF92CF92DF92EF929B
:103DE000FF920F931F93CF93DF936C015B01EA0166
:103DF000490178013B01620E731E8A010E0D1F1DE1
:103E000093010E948D24882351F100E09401AE01BA
:103E1000B501C6010E949E2382E0E816F104F8F085
:103E200082E0E81AF1082196E114F10489F001E03A
:103E30009701AE01B501C6010E949E23B3016150F6
:103E400071099701AE01C6010E949E23CE0DDF1DB0
:103E500000E09401AE01B501C6010E949E23DF91EE
:103E6000CF911F910F91FF90EF90DF90CF90BF9077
:103E7000AF909F908F907F906F900895AF92BF9278
:103E8000CF92DF92EF92FF920F931F93CF93DF9326
:103E9000EC01AAACEBACE881F981B188FE2CD12C05
:103EA000C12CE881F981208908AD19AD88E0289FEF
:103EB000A00111244C9DC0014D9D900D5C9D900D65
:103EC0001124080F191F4F2D60E0CE010E94162902
:103ED000F3948F2D8E198A1528F48FEFC81AD80AFB
:103EE000FB14F8F2DF91CF911F910F91FF90EF90AB
:103EF000DF90CF90BF90AF900895FC01A081B18179
:103F000050962C9182AD38E0839FC0011124289FE8
:103F1000A001299F500D112470E060E080AD91ADAB
:103F20000C94A63BCF93DF93EC016BAFEEA9FFA9F6
:103F30000190F081E02D0995EEA9FFA90280F3819F
:103F4000E02DCE01DF91CF910994CF93DF93EC0167
:103F5000FC01E557FF4F8081882319F0CE010E94B4
:103F60007D1F60E0CE01DF91CF910C94921F1F93D3
:103F7000CF93DF93EC010E943E1F1BAD8AAD180F5B
:103F8000E881F9818189181740F0CE010E945329F8
:103F900080E0DF91CF911F910895FE01E557FF4F1B
:103FA0008081882319F0CE010E947D1F612FCE01F0
:103FB0000E94921F81E0EDCFCF93DF93EC010E942E
:103FC000A51FCE010E94B71F8111FBCF60E0CE017B
:103FD000DF91CF910C94921F22E0FC01208389E1B4
:103FE00093E00895CF92DF92EF92FF920F931F9389
:103FF000CF93DF931F92CDB7DEB77C016B018901B0
:104000009A0148ED57E266EB78E20E948329CE01DF
:1040100001960E94EC1F86012CE635E24981BC0125
:10402000C7010E94DD260F90DF91CF911F910F9164
:10403000FF90EF90DF90CF900895FC01E60FF11D07
:10404000849190E0982F88273196E4918E0F911DEE
:10405000089590E080E008950F931F93CF93DF932E
:10406000EC018B01FB01849188833196E491E98313
:10407000FB013296E491EA83FB013396E491EB83F2
:10408000FB013496E491EC83FB013596E491ED83DA
:10409000FB013696E491EE83FB013796E491EF83C2
:1040A000FB013896E491E887FB013996E491E987B2
:1040B000FB013A96E491EA87FB013B96E491EB879A
:1040C000FB013C96E491EC87FB013D96E491ED8782
:1040D000FB013E96E491EE87FB013F96E491EF876A
:1040E000FB017096E491E88B61E1C8010E941D20FC
:1040F0009A8B898B63E1C8010E941D209C8B8B8B5E
:1041000065E1C8010E941D209E8B8D8BDF91CF91B0
:104110001F910F910895DC011A964C911A97ED9119
:10412000FC911197249130E0042E02C0359527951B
:104130000A94E2F7842F860F883068F03196119642
:10414000FC93EE93E49198E0941B01C0EE0F9A95D6
:10415000EAF72E2B88501A968C938FEF9FEF01C0B1
:10416000880F6A95EAF78095822308950F931F932D
:10417000CF93DF938C01EC01C25ADF4F79836883C0
:104180001A86FC01EF58FF4F6081CE010E948B2000
:104190008887F801EE58FF4F6081CE010E948B2086
:1041A0008987F801E657FF4F90819C8781E0911144
:1041B00080E08D87DF91CF911F910F910895CF936C
:1041C000C62F0E948B20C15021E030E001C0220F99
:1041D000CA95EAF7821BCF910895213069F038F033
:1041E000223079F0861B910967FD93950895840F1D
:1041F000911D47FD9A950895860F911D67FD9A952B
:104200000895841B910947FD93950895213069F025
:1042100038F0223079F0840F911D47FD9A9508956A
:10422000860F911D67FD9A950895841B910947FD9E
:1042300093950895861B910967FD939508953F9284
:104240004F925F926F927F928F929F92AF92BF92A6
:10425000CF92DF92EF92FF920F931F93CF93DF9352
:104260007C01162F442EEC01C25ADF4F5E806F8016
:104270006C018AE8C80ED11C78847518312E71162D
:1042800008F4372C8C809D800E85202F462D652DBF
:104290008A819B810E9406215C01202F462D652D7D
:1042A000C4010E94ED20AC01442079F08C85F60118
:1042B0008083232D30E0B501C7010E949E2317158E
:1042C00048F017196394512CD7CF8B858111F7CF04
:1042D0008D85EDCF150D1E836F82DF91CF911F91DC
:1042E0000F91FF90EF90DF90CF90BF90AF909F9095
:1042F0008F907F906F905F904F903F9008958F9236
:104300009F92AF92BF92CF92DF92EF92FF920F9364
:104310001F93CF93DF937C01EC01C25ADF4F0E94C1
:10432000B620F701E959FF4FB0803C966081CE017D
:104330000E94DF20882EF701EC58FF4F6081CE01EC
:104340000E94DF20082FF701EB58FF4F6081CE015C
:104350000E94DF20A82E988419140CF061C01E85DD
:104360000B0D0195212F402F682D8A819B810E9482
:1043700006216C019B838A83212F402F682D8C811D
:104380009D810E94ED209D838C83113009F456C0DD
:1043900048F0123009F463C0133009F476C08C0180
:1043A00096010AC09601290D311D97FC3A958C01A2
:1043B0000B0D111DB7FC1A95AC01B601C7010E9487
:1043C0008D24882369F11E821F82870101591F4FA6
:1043D000670180E7C80ED11CF8016081CE010E9400
:1043E0008B20882EF6016081CE010E948B20982EB2
:1043F00040E0682DC7010E941F2141E0692DC701DF
:104400000E941F2161E0CE010E948B208111F0CF1C
:104410008F818B150CF3F701E657FF4F8C85808356
:104420008A2DDF91CF911F910F91FF90EF90DF9038
:10443000CF90BF90AF909F908F90089541E050E053
:104440004B195109B7FC539596012F5F3F4F8C01D3
:10445000090D111D97FC1A95C40ED51EADCF41E074
:1044600050E0BA016919710997FC739596012F5FA5
:104470003F4F4B195109B7FC53958C010F5F1F4FEC
:10448000840F951FC60ED71E97CF96012B0D311D99
:10449000B7FC3A9541E050E04919510997FC539512
:1044A0008C010F5F1F4F840F951F86CFEF92FF92F5
:1044B0000F931F93CF93DF93FC01E65AFF4F2081A8
:1044C0003181295E3F4F6F3F710509F048F5613634
:1044D0007105D8F080589F4FFC0180819181280F91
:1044E000391FC9010196FC014491442309F447C0D6
:1044F000F90144914617170671F40196DF91CF91A7
:104500001F910F91FF90EF9008956134710548F36A
:1045100082589F4FE1CFFC018491280F311DE1CFDC
:104520008B01FC01EE57FF4FC081D181C20FD31F19
:104530007E0160E0C7010E941D20C80FD91F62E004
:10454000C7010E941D20F4E0EF0EF11C80179107B7
:1045500080F3FE01849190E0982F88273196E491B2
:104560008E2B009761F00817190719F4CE010396F6
:10457000C5CFFE013296E491CE0FD11DEACF90E077
:1045800080E0BCCFCF92DF92EF92FF920F931F9308
:10459000CF93DF93EC017B018A016901FC01E459AF
:1045A000FF4F8081813079F118F18230B9F1833089
:1045B00009F43FC0FE01E05AFF4FF182E0823296DB
:1045C00011830083B601CE010E9456220097E1F1CB
:1045D000BC01CE010E947F21082E000C990BDF91B7
:1045E000CF911F910F91FF90EF90DF90CF900895A2
:1045F000FE01E45AFF4F0190F081E02DCE010995B4
:10460000080F191FD7CFFE01E45AFF4F0190F08128
:10461000E02DCE010995E81AF90ACCCFFE01E45A43
:10462000FF4F0190F081E02DCE010995081B190B79
:10463000C1CFFE01E45AFF4F0190F081E02DCE0181
:104640000995E80EF91EB6CF90E080E0C8CFCF9371
:10465000DF93FC01E65AFF4F20813181232BF1F0DB
:10466000B0962081DC01AA57BF4F2C933196508120
:104670003C965083EC01CB57DF4F3881332371F0E8
:10468000313079F42997388123170CF43C938358FF
:104690009F4FDC018C9185170CF48083DF91CF91C3
:1046A0000895EC01C958DF4F488187589F4FEC01AE
:1046B0003881822F220F990B632F032E000C770B6A
:1046C000640F711D47FD7A958617970714F4430F01
:1046D0004C9335171CF73083E1CF845A9F4F29E262
:1046E00030E2FC01318320830895CF93DF93FC01F6
:1046F000E65AFF4F208131812617370761F0EC0120
:104700007183608383599F4F0E942C20CE01DF91DB
:10471000CF910C942723DF91CF9108950F93FC0143
:10472000E05CFF4F0190F081E02D4E1B5F0BDC0140
:10473000D496ED91FC9109950F9108950F93CF9325
:10474000DF93E02FDC01AC57BF4FFC91FF2309F44E
:1047500060C02115310509F45CC02230310538F004
:10476000023009F04AC06F5F7F4F621B730B0E2F40
:104770000170E0FD52C0FC01E25BFF4F0190F0814F
:10478000E02D4E175F0708F444C0FC01E05BFF4FCB
:104790000190F081E02D4E175F07D8F5FC01E45B36
:1047A000FF4F0190F081E02DDC01A65BBF4F0D9023
:1047B000BC91A02D260F371F2617370738F56E1727
:1047C0007F0718F59F0121503109A217B30708F59B
:1047D0006A177B0708F4BD012E173F0708F4F9019B
:1047E000E61BF70BEC01AEA9BFA914960D90BC9186
:1047F000A02D9F01FD0109950CC0033009F0B7CF32
:104800004F5F5F4F421B530BB2CFBD016E177F0747
:10481000E0F2DF91CF910F910895FC01E65BFF4F2D
:104820000190F081E02D6E177F0798F3FC01E45BA7
:10483000FF4F0190F081E02D6E177F0750F7FC01CC
:10484000E05BFF4F0190F081E02DDC01A25BBF4FE8
:104850000D90BC91A02D240F351F24173507A8F407
:104860004E175F0788F49F0121503109A217B30743
:1048700080F64A175B0708F4AD012E173F0708F4CE
:10488000F901E41BF50BAECFAD014E175F0708F63B
:10489000EDCF0F9300E00E949E230F9108950F9398
:1048A000FC01E25BFF4F2081318142175307B8F0D2
:1048B0003296208131814217530788F43697208140
:1048C00031816217730758F0329620813181621767
:1048D000730728F400E021E030E00E949E230F914E
:1048E0000895FC01E657FF4F633010F4608308958C
:1048F00081E0808308954617570748F4821793078D
:1049000050F081E02417350738F080E008958217D1
:104910009307B8F3FACF81E00895CF92DF92EF9238
:10492000FF920F931F93CF93DF93EC017B016901FB
:104930009801FC01E05BFF4F6081718132978081BB
:1049400091810E947B248823A9F0FE01E45BFF4F44
:1049500060817181C65BDF4F9601A70188819981D3
:10496000DF91CF911F910F91FF90EF90DF90CF904B
:104970000C947B2480E0DF91CF911F910F91FF90E9
:10498000EF90DF90CF9008953F924F925F926F9299
:104990007F928F929F92AF92BF92CF92DF92EF92CF
:1049A000FF920F931F93CF93DF932C017B016A013A
:1049B000E9015B01A21AB30A2617370718F059015B
:1049C000A61AB70A0C151D0560F44601801A910A53
:1049D000A814B90438F1CE15DF0508F448C0312C0D
:1049E00018C048018C189D08A814B90408F065C0C7
:1049F0009A2D8B2D5401892E982E9C2F8D2FE801F6
:104A0000092F182F9E2D8F2D7601C92ED82E3324D5
:104A10003394350176946794C016D10690F10FEF68
:104A20001FEF31C09A2D8B2D5401892E982E9C2D6D
:104A30008D2D6E01C92FD82F9E2D8F2D7801092F16
:104A4000182FE5CFA601B701332011F0A701B60159
:104A5000C2010E944F246818790877FE04C0C00E76
:104A6000D11E6A0C7B1C8FEFE81AF80A11C03501C1
:104A70007694679468019E2D8F2D7E01C92FD82FC3
:104A8000312C01E010E0CF3FDC0711F4CEEFDFEF77
:104A9000CE15DF05B8F6DF91CF911F910F91FF90F2
:104AA000EF90DF90CF90BF90AF909F908F907F90CE
:104AB0006F905F904F903F900895CE15DF0508F0FE
:104AC0008ECF35017694679468019E2D8F2D7E01DF
:104AD000C92FD82F312CA3CFAF92BF92CF92DF92A4
:104AE000EF92FF920F93CF93DF93EC01DA017901FC
:104AF000942F9770E1E0F0E09F01092E01C0220F92
:104B00000A94EAF7522F6E018AE8C80ED11CF6010A
:104B1000808140E0823018F4422F813049F15D01FC
:104B2000F8EFAF22E8ADF9AD28813981D90150966F
:104B30008C918A9D90018B9D300D1124620F731F03
:104B4000DF01A60FB71F01111AC0EA0EFB1E8C91E0
:104B5000842B85278D93EA16FB06C9F7DF91CF9149
:104B60000F91FF90EF90DF90CF90BF90AF9008959E
:104B700050E0D5CF440F550FE114F10479F33C9187
:104B8000342B35273C939F5F9770E1E0EE1AF108D4
:104B90009111F0CF2CAD3DADA20FB31FF601808176
:104BA000823028F4813009F051E041E0E5CF51E056
:104BB000E3CFCF93DF93FC01A081B18182AD90E080
:104BC0009C0143E0220F331F4A95E1F737AF26AF30
:104BD00050962C91509748E0249F9001112435AFB6
:104BE00024AF23AD30E0B90153E0660F771F5A952B
:104BF000E1F7EF01C05CDF4F7983688351964C91F8
:104C00005197E901C80FD91F50E04C175D0718F400
:104C1000CA01821B930BEF01CE5BDF4F7983688360
:104C2000229623E0880F991F2A95E1F7860F971F98
:104C300099838883229654968D919C915597998358
:104C40008883E85BFF4F56968D919C91918380837A
:104C5000DF91CF9108950C94D9250F930E948E2354
:104C60000F9108958F929F92AF92BF92CF92DF9251
:104C7000EF92FF920F931F93CF93DF93EC017C0190
:104C800088E5E80EF11CF701008111815E01F4E571
:104C9000AF0EB11CF501208131816E01F6E5CF0E1A
:104CA000D11CF601408151814E01F2E58F0E911C1D
:104CB000F40160817181CE010E948D24FE01EC57C8
:104CC000FF4F81110EC01082DF91CF911F910F9184
:104CD000FF90EF90DF90CF90BF90AF909F908F901C
:104CE000089581E08083F40180819181FE01E65B7B
:104CF000FF4F208131812817390710F49183808379
:104D0000F50180819181FE01E45BFF4F20813181BB
:104D10008217930710F491838083F601808191813B
:104D2000FE01E25BFF4F208131812817390710F423
:104D300091838083F70180819181C05BDF4F28815F
:104D400039818217930708F0BFCF99838883BCCF3E
:104D5000FC01E65BFF4F118210823296DC01AA5BF8
:104D6000BF4F2D913C911197318320833296149738
:104D70002D913C91119731832083329612962D917B
:104D80003C91318320830C943226FC01EE5AFF4F74
:104D90001182108234961182108232972FEF3FEFEA
:104DA00031832083349631832083DC01D696ED91C4
:104DB000FC910280F381E02D09940F931F93CF9310
:104DC000DF93EC01FC01E65AFF4F118210823DABEC
:104DD0002CAB79AF68AF4AAF1BAE3F961082B0964E
:104DE000108234971082359681E0808331968083DB
:104DF0001FAB0EABD801ED91FC91CE010995CE0110
:104E00000E94C526CE010E946D23C459DF4F18822F
:104E1000DF91CF911F910F910895662329F06A3099
:104E200019F0862F90E008958FEF9FEF0895FC0111
:104E3000108E08959A01DC011896ED91FC91462F91
:104E400067E10994CF93DF931F92CDB7DEB76983F3
:104E5000AE014F5F5F4F61E00E941A270F90DF9114
:104E6000CF910895DC011896ED91FC9130E020E09F
:104E700040E068E10994DC011896ED91FC9130E086
:104E800020E040E069E10994EF92FF921F93CF93F5
:104E9000DF93EC01162F7A010E94322760E4CE01E5
:104EA0000E942227E885F9859701412F67E1CE010D
:104EB0000995CE01DF91CF911F91FF90EF900C9457
:104EC0003B27462FDC011696ED91FC9130E020E067
:104ED00065E10994462FDC011696ED91FC9130E0D6
:104EE00020E066E109949A01DC011696ED91FC91AF
:104EF000462F67E10994DC011696ED91FC9130E0B4
:104F000020E040E068E10994DC011696ED91FC9107
:104F100030E020E040E069E10994EF92FF920F93C6
:104F20001F93CF93DF931F92CDB7DEB77C018B0128
:104F3000D8016C91673129F150F46531A0F40F90DC
:104F4000DF91CF911F910F91FF90EF9008956A31FB
:104F500018F16E3FA1F7F8014181498369E2C70169
:104F60000E945C290BC0F80141814983D701169644
:104F7000ED91FC9130E020E0C70109950E5F1F4FD5
:104F8000D7CFF80181818983AE014F5F5F4F61E028
:104F9000C7010E947327F2CF0F5F1F4FD7011696EC
:104FA000ED91FC9130E020E040E0C7010995C0CFD1
:104FB000EF92FF921F93CF93DF93EC01142F7901AF
:104FC000663181F138F4643109F44BC0653179F010
:104FD00080E022C06831C9F150F16931C9F7809190
:104FE0001904882391F1CE010E943B272EC08091A5
:104FF0001904882319F0CE010E943B27CE010E949C
:10500000322760E0CE010E942227612FCE010E944C
:10501000222781E080931904DF91CF911F91FF90A7
:10502000EF900895642F0E94222781E0F5CF8091B0
:105030001904882319F0CE010E943B27A7011931DA
:1050400038F4612FCE010E94442710921904EDCF4D
:1050500068E1CE010E944427185188E1E80EF11C56
:10506000EDCF8E898F3F11F488E78E8BE885F98527
:105070009701412F64E1CE01DF91CF911F91FF9005
:10508000EF900994EF92FF920F931F93CF93DF93CA
:10509000EC01042F79016D3009F447C020F46B3026
:1050A00099F180E03BC06E3009F452C06F30C9F70F
:1050B0000E947B27F7011381110F110F110F6C89CB
:1050C000160F60E4CE010E946127612F62956F7018
:1050D0006061CE010E946127612F6F70CE010E9436
:1050E0006A27F7016481606BCE010E946A27F7018D
:1050F000408151816281660F660F660FCE010E946A
:1051000073270150A1F72EC061E871E0442311F02C
:105110006CE771E0CE010E948D2781E0DF91CF9195
:105120001F910F91FF90EF900895411109C065E71D
:1051300071E00E948D27E881F98182898C8BEDCF07
:105140006EE671E00E948D27E881F9818389F6CFB0
:105150000E947B2761E8CE010E946127602FCE016B
:105160000E946A27CE010E948427D7CF1F93CF9336
:10517000DF93EC01162F0E94422881110CC01930D8
:1051800079F01A3049F4CE010E94DE2866E871E019
:10519000CE010E948D2781E0DF91CF911F9108956C
:1051A00066E571E0CE010E94D628F5CFFC0171833F
:1051B0006083FB012289FC01248B0895CF93DF9348
:1051C000EC01EA85FB8530E020E040E068E20995EB
:1051D000EE81FF8130E020E040E064E1CE010995FE
:1051E00041E06BE4CE010E945C29E881F9814481B1
:1051F00069E2CE010E945C2940E06BE4CE010E948E
:105200005C29E881F981448169E2CE010E945C2930
:1052100041E06BE4CE010E945C29E881F98145817F
:1052200069E2CE01DF91CF910C945C290F931F931B
:10523000CF93DF9300D000D01F92CDB7DEB76C8341
:105240004D832B831A830983DC011496ED91FC9125
:105250009E012F5F3F4F41E06FE009950F900F9047
:105260000F900F900F90DF91CF911F910F910895A4
:10527000DC011496ED91FC9130E020E040E069E023
:105280000994DC011496ED91FC9130E020E040E0BF
:105290006AE00994462FDC011496ED91FC9130E010
:1052A00020E06BE00994DC011496ED91FC9130E074
:1052B00020E040E060E10994DC011A96ED91FC9158
:1052C00030E020E0099480E00895FC011182108212
:1052D00083E699E295838483978386839187808789
:1052E00093878287158A108E1486158616861786F0
:1052F0008FEF868B828FDF015E96F4968D93AE17CB
:10530000BF07E1F70895AF92BF92CF92DF92EF927D
:10531000FF920F931F93CF93DF93EC015B016A0120
:1053200079010E946529BD82AC82DF82CE82F98636
:10533000E8861B870A87CE01DF91CF911F910F91DD
:10534000FF90EF90DF90CF90BF90AF900C943829F2
:10535000CF93DF931F92CDB7DEB7FC0169838789B6
:105360008823F9F02689848595852817190654F035
:1053700081E090E09383828390E080E00F90DF9162
:10538000CF9108958981A58923893489A20FB32FEC
:10539000B11D8C9385898F5F858B868B81E090E032
:1053A000EDCF00A4F1A5E02D61E0CE0101960995B5
:1053B000F5CFFC0181899089891B990B0895FC0127
:1053C000908981892FEF3FEF981740F4A685B78524
:1053D000A90FB11D2C9130E09F5F908BC9010895FA
:1053E000DC015096EC91509751968C915197E817AB
:1053F00048F41E968D919C91E80FF92FF11D808144
:1054000090E008958FEF9FEF08950895CF92DF9277
:10541000EF92FF920F931F93CF93DF938C01CB01F9
:105420007A01D80157962C915797222389F0EB01E6
:105430006B01C40ED51ECC15DD0579F06991D8013C
:10544000ED91FC910190F081E02DC8010995F3CF19
:105450009896ED91FC91642F0995C701DF91CF914A
:105460001F910F91FF90EF90DF90CF9008952F92B2
:105470003F924F925F926F927F928F929F92AF92E4
:10548000BF92CF92DF92EF92FF920F931F93CF9331
:10549000DF93CDB7DEB760970FB6F894DEBF0FBECF
:1054A000CDBF3C012B015A8349833C832B838DA1C3
:1054B0009EA19E838D83EFA1F8A5F887EF8389A530
:1054C0009AA59A878987EBA5FCA5FC87EB872DA475
:1054D0003EA48FA598A99E878D87E9A9FAA9F88B84
:1054E000EF87F3011382128288EE93E0A0E0B0E030
:1054F00084839583A683B7838FEB91E09183808328
:1055000075876487CB010E94C134F3019787868732
:10551000108A118A128AC2010E94C134F301948B4D
:10552000838B158A168A178A89819A81958F848F31
:105530008B819C81978F868F11A300A3F3A2E2A297
:10554000D5A2C4A2B7A2A6A291A680A68D819E8153
:1055500093A782A78F81988595A784A789859A8527
:1055600097A786A7C101EB85FC8509958F8598894A
:10557000ED85FE8560960FB6F894DEBF0FBECDBFF9
:10558000DF91CF911F910F91FF90EF90DF90CF901F
:10559000BF90AF909F908F907F906F905F904F9053
:1055A0003F902F900994CF93DF93EC018FEB91E024
:1055B0009983888361E070E08E859F850E94C33463
:1055C00061E070E08B899C89DF91CF910C94C334AA
:1055D000FC01108A118A158A168A048CF58DE02D3B
:1055E0000994DC019296ED91FC91CB01BA010994EA
:1055F000FC0181E0878B628B158A168A08950F93D0
:10560000CF93DF93EC018B899C89EEA1FFA1062F3C
:1056100021E04E89BC018A8909951D8A1E8A1F8A4C
:10562000DF91CF910F91089561E00C94FF2AFC0166
:10563000CA01228D338D232BD9F03089218932176D
:10564000B8F020E0422F50E0481759075CF4DB0126
:10565000A40FB51F3C91A685B785A40FB51F3C9339
:105660002F5FF0CF108A818B028CF38DE02D09948F
:105670000895AB01BC018AE194E00C94172BDC0186
:105680005896ED91FC915997309731F055961C92B0
:10569000559756961C92099408958AE194E00C94CB
:1056A0003F2B8F929F92AF92BF92CF92DF92EF9259
:1056B000FF920F931F938DE49BE29F938F9387EB51
:1056C0009CE29F938F9389E39BE29F938F9382EB5E
:1056D0009CE29F938F938EEC9CE29F938F9384EC3C
:1056E0009CE29F938F938CEB9CE29F938F938BE82C
:1056F000882E8CE2982E94E3A92E9CE2B92E2CEEF3
:10570000C22E2BE2D22E39EDE32E3BE2F32E05ED35
:105710001BE228EC3BE24AEA5BE260E270E08AE1ED
:1057200094E00E94372A8DB79EB70E960FB6F89474
:105730009EBF0FBE8DBF1F910F91FF90EF90DF9026
:10574000CF90BF90AF909F908F9008958AE194E0A2
:105750000C94D32A1092B70481E08093B504109280
:10576000B40461E082E10E94673661E083E10E9457
:105770006736E9EBF0E080818E7F808380818D7FCA
:10578000808388E48093B80085E48093BC0008950A
:10579000ECEBF0E080818A7B808360E082E10E9414
:1057A000673660E083E10C946736880F8093BA0017
:1057B00008959B01AC0160E074E284EF90E00E94E8
:1057C000E3392051310941095109569547953795DB
:1057D00027952093B8000895413208F043C0909176
:1057E000B7049111FCCF91E09093B7042093B504D6
:1057F0002FEF20934A0410928F04240F20938E04DD
:105800009093B6049091B604880F892B8093B604C8
:105810008091B404813009F51092B4048091B604EB
:105820008093BB008091BC0083FDF8CF85EC809312
:10583000BC008091B7048130E1F380918F0484171C
:1058400010F440918F04A0E9B4E0962FFB018E2F55
:10585000891B841720F0842F089585EEE8CF8D9161
:105860008193F5CF40E0F7CF0F93413208F04BC062
:105870009091B7049111FCCF92E09093B7040093FC
:10588000B5049FEF90934A0410928F0440938E04C6
:10589000362FA0E9B4E0FB019E2F931B941770F103
:1058A0001092B6049091B604880F892B8093B604A9
:1058B0008091B404813029F51092B4048091B6042B
:1058C0008093BB008091BC0083FDF8CF85EC809372
:1058D000BC00222321F08091B7048230D1F3809163
:1058E0004A048F3F91F080914A04803281F0809188
:1058F0004A04803371F084E00F91089591919D9353
:10590000CBCF85EEE4CF81E0F7CF80E0F5CF82E02A
:10591000F3CF83E0F1CF20916C04260F3327331FA0
:1059200021323105ECF42091B704FC0190E080E0D5
:10593000243069F082E00895A0916C042191AC01BB
:1059400042595B4FA40FB52FB11D2C9301968617BA
:1059500098F380916C04680F60936C0480E0089564
:1059600081E008959093B1048093B00408959093DA
:10597000B3048093B2040895882321F085EC8093CA
:10598000BC00089585E8FBCF85ED8093BC00809135
:10599000BC0084FDFCCF1092B704089585EC809381
:1059A000BC001092B70408951F920F920FB60F9289
:1059B00011242F933F934F935F936F937F938F9314
:1059C0009F93AF93BF93EF93FF938091B900887F2C
:1059D000803609F44CC008F03FC0883209F4A8C0F2
:1059E00018F5803109F49CC0B8F4882309F4F9C093
:1059F000883009F495C0FF91EF91BF91AF919F91CD
:105A00008F917F916F915F914F913F912F910F9067
:105A10000FBE0F901F901895883109F489C080320D
:105A200051F780934A0415C0803409F49EC048F4AD
:105A30008033B9F38833F9F680934A040E94CE2C60
:105A4000DACF803509F485C0883509F496C08834EA
:105A500091F60E94C42CCFCF883909F48CC038F558
:105A6000883729F050F4883611F0803721F683E02A
:105A70008093B70410924B0457C0883809F47BC058
:105A8000803919F0803809F0B6CF80914B0480320C
:105A900008F071C0E0914B0481E08E0F80934B04BD
:105AA0008091BB00F0E0E45BFB4F80833DC0803B16
:105AB00039F0E0F4803A09F479C0883A09F09BCFD4
:105AC00084E08093B70410926D0410926C04E0910E
:105AD000B204F091B304099580916C0481110FC058
