:100000000C9428090C9450090C9450090C94EA099A
:100010000C9450090C9450090C9450090C945009FC
:100020000C9450090C9450090C9450090C945009EC
:100030000C9450090C9450090C9450090C945009DC
:100040000C94DB360C9450090C94FB330C942D3437
:100050000C9450090C9450090C9450090C945009BC
:100060000C94E32E0C9450090C9450090C945009F4
:100070000C9450090C9450090C9450090C9450099C
:100080000C9450090C9450090C9450090C9450098C
:100090000C9450090C9450090C9450090C9450097C
:1000A0000C9490310C9450090C9450090C94500904
:1000B0000C94500908000000BE922449123EABAADD
:1000C000AA2ABECDCCCC4C3E00000080BEABAAAA72
:1000D000AA3E00000000BF000000803F00000000BA
:1000E00000084178D3BB4387D1133D190E3CC3BDF3
:1000F0004282AD2B3E68EC8276BED98FE1A93E4CA0
:1001000080EFFFBE01C4FF7F3F0000000000556E7E
:100110007465726272656368756E6720537465708A
:10012000706572004665686C657221004B75727A65
:100130007363686C757373205374657070657200B7
:100140004665686C657221004B75727A7363686CE2
:10015000757373206E616368204D6173736500462B
:1001600065686C657221004D6F746F727472656999
:1001700062657200C39C62657274656D70657261C0
:10018000747572004665686C657221006265696D00
:10019000206E616563687374656E20537461727458
:1001A0000048616C646578204175746F74756E6584
:1001B0000043002000210021006C74656D706572A1
:1001C00061747572200062657274656D706572612C
:1001D000747572004861757074736368616C7465DE
:1001E00072206175730074696774004272656D7383
:1001F000652062657400746967740048616E6462AA
:1002000072656D7365206265740020250048414C5D
:1002100044455800566F726C61646570756D706509
:10022000004665686C657221002073746570730008
:1002300048616C646578204175746F74756E6500F3
:1002400048616C646578204175746F74756E6500E3
:1002500045727361747A7765727421004E75747A91
:100260006500756E74657262726F6368656E2100F9
:1002700054656D70657261747572667565686C65DC
:100280007200616C6C7261646275732E636F6D00D5
:100290005443413936350048616C64657820436FBA
:1002A0006E74726F6C6C657200BF0003020404020E
:1002B00004050B0DFFFE08FE08FE015302BD086792
:1002C000200500E604210681E3C4252207233B45DF
:1002D000A204231076A2559225D12025C9202559A4
:1002E00012012410A59E55B654946C4BA244A96CDF
:1002F0001100251088628ED49229799C275A129574
:100300001400260D86238E16B56951A22591292742
:100310000621BA8400280BA31A551225515B9405B7
:10032000290CA31B451665514B9444002A0733360C
:1003300045D2012B0A55A655180D5218012C07322B
:10034000DA4CA2002D06132EC5002E0611E3440040
:100350002F0A83E254256A892200300A85A2CD92B1
:10036000F9962C00310782A3CDD207320C85A2CD9D
:10037000928525290B0701330C85A2CD9285911A10
:100380006AC902340E85A25D262551524A062D4CBB
:1003900000350C85A2CD9084E11A6AC902360C851D
:1003A000A2CD92894392D99205370B85A2C52066CA
:1003B000C52CAC01380C85A2CD9269C992D99205A1
:1003C000390C85A2CD92D99221D492053A0661E3E7
:1003D00044183B0982DA4C0E250A003C0753A75506
:1003E000522B3D08346AC5100E013E0853A74556EE
:1003F00029013F0B84A38D1265512D8F0040169A61
:10040000DEDE20A651A4245249C92225AA448A9698
:10041000638306410E87E25D9C2661929506255511
:1004200003420D85E3C59064DAA064B64101430C34
:100430008623CE90846AC7644800440D8623C61084
:100440006549E82D192200450A85E3C5311CC6E23D
:1004500020460A85A3C5311C92B011470C8623CED5
:1004600090846A6D149341480A862346681C06D11D
:1004700031490681E3C4414A0984625D6F52A2009A
:100480004B0D85E3452625A5A9122599164C088410
:10049000A345D6B7214D10876346BA0DD952512ACC
:1004A00052244552014E0F862386B629911249895E
:1004B00094689B004F0B8623CE90843E26430250C7
:1004C0000C85E3C59064DAA0848D005112971FCE8D
:1004D0001085499884499844494D1AF400520C8576
:1004E000E3C59064DAA0646E01530C85E3CD92A954
:1004F000ABA6250B0054098562C520857D02550AEF
:10050000862346E8C7644800560F87E245AA265965
:10051000944559254CD20C5710896246966995A886
:100520002F6DC52CCC2200580D85E345A625B54A74
:1005300094D4B400590E87E2459A64515609933415
:10054000AE015A0B85E3C52066C5AC38085B08A22E
:10055000DBC4D22F025C0A83E24494456D51005DF6
:1005600008A2DA84D22F035E0A55AE55982551525F
:100570000B5F06169AC501600622FE4414610C65E5
:1005800062C51A2D5112454A00620C85A2455831A8
:1005900069DAA42800630A64628D1269A5440164C3
:1005A0000A85A265C5B4991425650B64628D120D88
:1005B0005B942800660A842295124D592700670C27
:1005C000859A8D6933294A982C00680A85A2455876
:1005D00031696E01690781A244320C6A09A2994C03
:1005E00096F4A2006B0C84624556521229294901E7
:1005F0006C0681A2C4416D0E6722C6A244911449C3
:10060000911449056E0965A24562D2DC026F0A6544
:10061000A2CD92B9250B00700C859A4562D2B449DF
:1006200051C210710A859A8D6933294A587209633B
:100630002245B2444D00730B64628D1225A29428AA
:1006400000740A83224D942C51930075086462450E
:10065000E42919760C65A245A625A5240B2300776D
:100660000E672246144995A6A496844904780A6523
:10067000A24596D42A352D790E85594D94444929A1
:10068000C9B430D2007A0A6462C590456D43007BDC
:100690000AA3DA541255B2A82D7C07A1DBC443008B
:1006A0007D0BA3DA4416D592A825027E0726EE8D8F
:1006B0006401A00500E604A10781DB44320CA20E10
:1006C000859F5DB45494288992CA9401A30C85A295
:1006D0009554C9B6B0A42800A40C6466459428912A
:1006E00094285100A50D85A245664B2A83140D520E
:1006F00004A608A1DBC4100D01A70FA59ACD928D09
:100700004B3444C9B8250B00A80613FE4412A90EA9
:100710007763D65689142593945A3601AA08532E26
:10072000C5A46403AB0A55A255D25B922501AC0760
:1007300035EBC52016AD06132EC500AE0D7763D67A
:1007400056491693D22D9B00AF0613FEC400B00984
:1007500044328D12498902B10B75A255180D529879
:100760000F02B20743F2CC5219B30843F2C4922DE0
:1007700000B40622FE8C02B50A845A45E469D832D8
:1007800000B615A69ACD3028C9922C91922559927F
:10079000255992250900B70612EE8400B80622DA20
:1007A000CC00B90642F2CC52BA09532EC5900CD9EE
:1007B00000BB0B55A245922559D21300BC12896289
:1007C0004E96696194467916465A34446102BD10CA
:1007D00088624E1669A5308A232D2965A501BE12AF
:1007E0008962C69EA55126E54814466232446102DC
:1007F000BF0B849B559E45B5285100C010B7E255EC
:100800009EC3D5244CB2D2A0A46A00C110B7E26541
:100810009AC3D5244CB2D2A0A46A00C211B7E25D3B
:100820009AE4689C2661929506255503C312B7E2A7
:100830005D9225391AA7499864A54149D500C4108D
:10084000A7E25592A3719A8449561A94540DC51083
:10085000B7E25D9AA471350993AC3428A91AC6127F
:1008600089A2DEB0C9499C0C4A940E6116668300C9
:10087000C70DA61BCE90846AC764084309C80CB58F
:10088000E34D9A0F63388CC541C90CB5E35D7D1803
:10089000C3612C0E02CA0DB5E35596C4C3180E638E
:1008A0007110CB0CA5E34D7918C3612C0E02CC0955
:1008B000B2E2449425FD00CD09B2E38C96F40B001E
:1008C000CE09B3E24C63D42F00CF09A3E244124611
:1008D000FD02D0118722CE9095C2414AC2244CB26B
:1008E000688800D112B62356122539A26D4AA44455
:1008F000522225DA26D20EB623569C434312FA988A
:100900000C0900D30DB623661D1A92D0C7644800A7
:10091000D40EB6235698E4D090843E264302D50FD9
:10092000B623561225393424A18FC99000D60EA6BD
:10093000234E94234312FA980C0900D70A55A64572
:1009400096D42AB500D812A61F6E3224D9944889AD
:100950001229D1960C490AD90CB623569C23A11F03
:10096000932101DA0CB623661D09FD980C0900DB02
:100970000DB6235698E448E8C7644800DC0BA6236C
:100980004E94877E4C8604DD10B7E2659A636992C7
:100990004559254CD2B806DE0D85E345180E49A60B
:1009A0000D4A1802DF0B84628D12594A2E0900E0AD
:1009B0000D95624D9AAFD1122551A404E10E9562B6
:1009C0005596236BB44449142901E20E956255965D
:1009D000C46BB44449142901E30D95624DF7355AAF
:1009E000A2248A9400E40C85624D798D9628892290
:1009F00025E50F9562559664D11A2D5112454A008E
:100A0000E60E6722C62246C930445954B100E70CAD
:100A1000845A8D1269A5448B1400E80C94624D1819
:100A20002BD1B0458902E90C9462555D89862D4A27
:100A30001400EA0D94624D94C44A346C51A200EB48
:100A40000C846245122BD1B0458902EC0892A14476
:100A500094253DED0892A28C96F402EE0993A14CE8
:100A600063D40B00EF0983A1441246BD00F00D953D
:100A7000A24D3848D1A0B9250B00F10A94624DA2CD
:100A8000A44BE429F20C95A24D9A234BE6962C0038
:100A9000F30B95A25D1D5932B76401F40C95A25574
:100AA00096E44BE6962C00F50B95A255D2BE646EEB
:100AB000C902F60A85A24D7DC9DC9205F70955A643
:100AC000553EE81100F80D67A1D552929292544B11
:100AD0009209F90A94624D98469E9201FA0A94622C
:100AE0005D94469E9201FB0A94624D94A491A76482
:100AF000FC0A84624592469E9201FD0FB5596596A7
:100B000047499494924C0B230DFE0DA59A455831FC
:100B100069DAA4286108FF0FA5594D3D4AA2A494A3
:100B2000645A18690000000004FFFF00005F000322
:100B30000305050305061212FFFC0EFC0EFC022540
:100B400004AD0684200600309600210AC31596F8ED
:100B500050111E04220AA5349F9070194500231DD0
:100B6000AB11AE9488256289EC3039CC2462895867
:100B7000223B4C0E33895822960801241D0AD2A923
:100B80000DDB0E915144320A8EA26573356409590A
:100B9000429343CC1C074501251EAD15C2218A6C2A
:100BA000226D2251D022A5C88171A0842A3186D419
:100BB00044DA4C420A00261DCD15BAA343CCA3A9A2
:100BC000503A92D74133994934320969D2D9AC7637
:100BD00099D5062708A23493384800280F46969DD9
:100BE0001BCD6433D9FE281C0A17291246929D1882
:100BF0000E8543E16CBFC966B2D10C002A0FC71441
:100C0000A78B492292DA4C228A45002B0D0835AE7B
:100C100013AB1D0E32B11A002C0AC3B49538482804
:100C200021002D0765909A78082E076314963808DE
:100C30002F10C51196D33492298D64A2914C0D00CA
:100C4000300FA911AA1B9E266BFE36593ACE0031F1
:100C50000BA615AA1B1D0EB2FD033212A911AAAADA
:100C60005D66B6F17458AB51970F07023313A911A3
:100C7000AAAA5D46939978482D936D26CAAD04348F
:100C800015A911AA9D126B36C96832124D4693C33D
:100C9000813A5E013515A911AA38440E91F1F87414
:100CA000888CC8639BE95032013614A911AA321D01
:100CB00022B3F2647488908C8DA6C9AD043710A954
:100CC00011AA78204F97A7E3E9783A5E053812A970
:100CD00011AAAA5D666E935B6DB2E636B9950039CE
:100CE00014A911AAAA5D46C64613E5109A8C6B9307
:100CF00043C8043A0A43159A38C8A107013B0CA31C
:100D0000B59938C8A1070925043C0D2915AE1E96D2
:100D10006AC439B979003D0BA974AE78A0830E0777
:100D2000023E0D2915AE1837D387B452710C3F110E
:100D3000C815AAB11C48A6E190B8BA0E9EAE0140F3
:100D40002A30B6C9BD1F8854D21CA43691984E349F
:100D5000918C24939114496A12919A6472188D2887
:100D6000C3399C0E3EC84147004119CC15BAA44373
:100D7000E8669158241D0D4743B5E1E8303A4CC66A
:100D8000CE03421ACB19BA381E4433CA70329CCCF7
:100D90004607D16132BC3A1E2E871800431BCC1582
:100DA000BAAC1E44B4D1F46A07CD4173D01C449D43
:100DB0004C27B4D9415A034416CC15BA38040FA3B2
:100DC00021653A19FBEB6448398C0E41004511CA84
:100DD00019B6F820DF7E901C24F3ED878301460FBF
:100DE000CA15B2F820DF7E901C24F3BD03471BCC4C
:100DF00015BEAC1E44B4D1F46A07CD41B383EC30C8
:100E00009D4C2734D2616611480DCC15BA18FBF9F8
:100E1000F041ECE7014907C31596F8074A0DC911DF
:100E2000AADE9F6DB60BE556024B1BCD15BA985244
:100E300086A4196D449C50CFF6F3843A22CE6843C1
:100E4000D29432264C0BC915AE18EF7F3E1C084DCC
:100E500021CE15C29843EC90F3217C101E8687E1C9
:100E60002122925844128B486222994836994D3675
:100E70004E1ACC15BA185F1F820799456619994416
:100E8000A6894D623C040FD1F3004F16CD15BE2C40
:100E90001F644CD309F5EEFD4A998E68B483B808F7
:100EA0005019CB15B638C40E93E1D5E3E17288CD65
:100EB0002173C81C3287CC2100511AEDF5BD2C1FBF
:100EC000644CD309F5EEFD24A18C4CA4DA417C8856
:100ED000032500521ECC15BA38040FA321653A9998
:100EE0004E8694C3E8201B8EA693E9643A994EA6D9
:100EF000045316CB15B6BA1D24B4EB1D623EDB219C
:100F000057EB8D72909D00541CCB11AEF8109C4392
:100F1000E69039640E9943E69039640E9943E69061
:100F2000396408550ECC15BA18FB3F4F86A3C3D0C1
:100F300006561ECD11B698DB27D3D1742615CE8662
:100F4000B3E9643C994BE4903AA40E9AC3A60057C7
:100F50001DCF15C698CD6C33DBCCB632DABFA8CC2A
:100F6000241A251A2BD5D978369ECD005819CC11C4
:100F7000B2189B27C311A3486CA79B45D2D16C38EC
:100F80001A4EC6E601591CCD11B698DB27D3D9E21B
:100F90006C3A194FE675D01C3687CD6173D81C3674
:100FA000055A10CA15B278B08FD7C7DBC7EB878355
:100FB000015B0B4596993898F6FF74185C0DC511C6
:100FC0009690A9CDB4CDD4661A5D0B459299388C14
:100FD000F6FF74305E0FEAD0AA9493A922D9682450
:100FE000940C075F074A90A978306007657097985E
:100FF0002D61134A15AE2ADE6463DA89B2361951BF
:101000002A230A016214CA15B298EF423A4848935B
:10101000A1C7D3E42099900063104915AEA31D2207
:1010200023F3F6D1E41023016413CA15B2DF893229
:10103000394846478F9311E520A20C65114915AE3A
:10104000A39D46C6C3837C3439C44800660EC711CD
:101050009E239586A3C369B89F006718CA95B1A25D
:101060004C0E92D1D1E36444398828F3C9687408DE
:10107000D200680DC915AE18EF4239986CFE36697A
:101080000AC3159638C80E1F046A0C458E95DA3EC1
:10109000DA7F3A54006B12C915AA18EF3459B21509
:1010A0008BB6C96865741B6C07C31596F8076D1875
:1010B0004F15C6989028874389649BD966B6996D69
:1010C000669BD966B6056E0C4915AE98500E269BE8
:1010D000BF0D6F114A15B2231E422B438F93D1E8E7
:1010E00010A4017015CA95B198900E12D264E8F15F
:1010F00034394826A4F976007113CA95B1A24C0E72
:1011000092D1D1E36444398828F31D720B46159EB1
:10111000981C0EB37D0373104915AE321D68E6436B
:10112000EC6C3B904C00740DA6119A992D1D2AB3BE
:10113000BD9508750B4915AE98F9A78385327611D0
:101140004911A698B94D9626A3C9AC581DCF007772
:10115000194F11BE98CD6C33DBCA684B6534519979
:10116000558A34EA6C3C9B0178114915AE98D92612
:101170006BD5696D329AACD9067914C995AD98B919
:101180004D9626A3C9AC581D2F4BA953007A0C4885
:1011900015AA78900EF77A38087B0D4796A19C2DFA
:1011A000EEB6BAB8D7057C08429695F843007D0E96
:1011B0004792A1982EEEBAB6B8B745007E0A699458
:1011C000AE211D4C140000000004FFFF00000A0DBA
:1011D0000E090003020000040508000000000000E2
:1011E0000000000000000000000102040810204080
:1011F00080010204081020010204081020408040F1
:1012000001020408040404040404040402020202A7
:10121000020203030303030302020305050505009D
:101220000000002300260029002C000000000025FB
:101230000028002B002E0000000000240027002AB8
:10124000002D0000AE15602D0D305D34B52D6230DF
:1012500011241FBECFEFD8E0DEBFCDBF11E0A0E06C
:10126000B1E0ECECFBE702C005900D92AC3EB1079B
:10127000D9F726E0ACEEB1E001C01D92A530B2076F
:10128000E1F719E0C6E2D9E004C02197FE010E940F
:101290003A3CC232D107C9F70E94C8360C94D93DF6
:1012A0000C94000090E080E008950895CF92DF92C2
:1012B000EF92FF920F931F93CF93DF936C01EB019B
:1012C0007B01E40EF51E10E000E0CE15DF0561F0B5
:1012D0006991D601ED91FC910190F081E02DC6015C
:1012E0000995080F191FF1CFC801DF91CF911F9108
:1012F0000F91FF90EF90DF90CF900895CF92DF9203
:10130000EF92FF920F931F93CF93DF93EC016C0149
:1013100024E0C20ED11CFC01E057FF4F0190F08188
:10132000E02DC60109958E3FEFEF9E07D8F48E01A0
:101330000C561F4FF801408151817E01F2E9EF0EFA
:10134000F11CF701608171819C01C6010E94D124CA
:10135000C059DF4F28812130C1F078F02230B9F038
:101360002330E9F081E090E0DF91CF911F910F9160
:10137000FF90EF90DF90CF900895F70120813181A9
:10138000820F931F91838083EDCFF801F7CFF70190
:1013900020813181281B390B31832083E3CFF80171
:1013A000F7CFFF920F931F93CF93DF93EC01F62EAD
:1013B00008811981C8010E94C33DF81621F06F2DE4
:1013C000C8010E94CB3DCE01DF91CF911F910F91BB
:1013D000FF9008951F920F920FB60F9211242F9332
:1013E0003F934F935F936F937F938F939F93AF93AD
:1013F000BF93EF93FF938CE00E94AB38892BB1F140
:101400008091F201811132C081E08093F20110924B
:1014100006018BE00E94AB38892B21F48091F10109
:10142000882381F18BE00E94AB38892B89F58AE013
:101430000E94AB38892B21F48091F001882379F147
:101440008AE00E94AB38892B81F5FF91EF91BF9123
:10145000AF919F918F917F916F915F914F913F914C
:101460002F910F900FBE0F901F9018958CE00E9447
:10147000AB38892B71F68091F201882351F21092DA
:10148000F201C5CF81E08093F10110920601CFCF28
:101490008091F101882359F21092F101F6CF81E099
:1014A0008093F00110920601D0CF8091F001882343
:1014B00061F21092F001F6CF2F923F924F925F921D
:1014C0006F927F928F929F92AF92BF92CF92DF9254
:1014D000EF92FF920F931F93CF93DF938091ED01D3
:1014E00081119AC18091EE01811196C1E090B30201
:1014F000F090B4020F2C000C000B110B2091AB02EA
:101500003091AC02032E000C440B550B6091FB0193
:101510007091FC01072E000C880B990B1F921F92F3
:101520001F92E6E7EF93A12CB12C65010E9485364E
:101530002B014B0189E192E00E94B4210F900F90A2
:101540000F900F90C5E0D0E08DE3282E312C20E8DD
:1015500030E050E040E070E060E089E192E00E941D
:10156000582669EA72E089E192E00E948425D093CE
:10157000A802C093A7028BE090E09093AA02809308
:10158000A9026DE072E085E192E00E94C6340FE0AE
:1015900010E026E730E04FE050E065E070E089E1E0
:1015A00092E00E94F62000E110E02BE430E04FE0F2
:1015B00050E06BE470E089E192E00E94D32604E100
:1015C00010E02BE430E043E150E06BE470E089E1AF
:1015D00092E00E94D32608E110E02BE430E047E1DE
:1015E00050E06BE470E089E192E00E94D3260CE1C8
:1015F00010E02BE430E04BE150E06BE470E089E177
:1016000092E00E94D326D093A802C093A7028FE253
:1016100090E09093AA028093A9028091F201811137
:101620000EC18091F10181110AC18091F0018111F7
:1016300006C18091EF01811102C10FE010E092011B
:101640004FE050E065E070E089E192E00E94C22046
:1016500097E489169104D4F160E089E192E00E9458
:10166000802600E110E02BE430E04FE050E06BE436
:1016700070E089E192E00E94D32604E110E02BE4BF
:1016800030E043E150E06BE470E089E192E00E94D9
:10169000D32608E110E02BE430E047E150E06BE4B2
:1016A00070E089E192E00E94D3260CE110E02BE487
:1016B00030E04BE150E06BE470E089E192E00E94A1
:1016C000D32661E089E192E00E9480266DE27BE012
:1016D00089E192E00E948425E090B302F090B40288
:1016E0000F2C000C000B110B2091AB023091AC02BF
:1016F000032E000C440B550B6091FB017091FC0113
:10170000072E000C880B990B1F921F921F92E4E684
:10171000EF93A12CB12C65010E948536AB01BC0171
:101720002AE030E085E192E00E943D3569EA72E00E
:1017300089E192E00E9484256AE072E085E192E00E
:101740000E94C6340F900F900F900F9020E830E069
:1017500041E350E070E060E089E192E00E945826A9
:1017600069EA72E089E192E00E948425D093A802A0
:10177000C093A7023092AA022092A90266ED85E1E9
:1017800092E00E947E0969EB71E085E192E00E949F
:10179000C6348091EC01882331F067EB71E085E17C
:1017A00092E00E94C6344091090250910A02609171
:1017B0000B0270910C0230E020E085E192E00E9483
:1017C00083368091EC01882331F065EB71E085E18F
:1017D00092E00E94C63463EB71E085E192E00E94E2
:1017E000C63460EB85E192E00E947E0961EB71E016
:1017F00085E192E00E94C63420E830E04FE350E0FB
:1018000070E060E089E192E00E94582689E192E070
:101810000E94C62181119BCEDF91CF911F910F9124
:10182000FF90EF90DF90CF90BF90AF909F908F9000
:101830007F906F905F904F903F902F900895809190
:10184000F101882389F06BEF71E085E192E00E945D
:10185000C63464EE85E192E00E947E0966EF71E095
:1018600085E192E00E94C6348091F201882389F0DC
:101870006BEE71E085E192E00E94C63464EE85E192
:1018800092E00E947E0966EE71E085E192E00E949E
:10189000C6348091F001882331F064ED71E085E178
:1018A00092E00E94C6348091EF01882309F44ECF64
:1018B0006CED85E192E00E947E0966EC71E085E1C5
:1018C00092E00E94C63442CFCF92DF92EF92FF9215
:1018D0000F931F93CF93DF93C82F8FEF92E00E9457
:1018E00070186093FB027093FC028093FD0290934A
:1018F000FE0261FF51C081E08093EE0189E192E038
:101900000E94B4212FE0C22ED12C38E2E32EF12C1C
:1019100002E310E06DE27BE089E192E00E94842521
:101920001092A8021092A702D092AA02C092A90215
:1019300064E871E085E192E00E94C6341092A8024A
:101940001092A702F092AA02E092A90269EA72E05C
:1019500089E192E00E94842564E771E085E192E0EC
:101960000E94C6341092A8021092A7021093AA02F5
:101970000093A90267E671E085E192E00E94C63417
:1019800089E192E00E94C6218111C4CF60E177E233
:1019900080E090E00E9456378091FB028C7009F441
:1019A00040C081E08093EE0189E192E00E94B42181
:1019B0009FE0E92EF12C08E210E06DE27BE089E186
:1019C00092E00E9484251092A8021092A702F09241
:1019D000AA02E092A9026FE571E085E192E00E941F
:1019E000C6341092A8021092A7021093AA02009384
:1019F000A90269EA72E089E192E00E94842568E424
:101A000071E085E192E00E94C63489E192E00E9493
:101A1000C6218111D2CF60E177E280E090E00E94A0
:101A200056378091FB02807309F440C081E08093B7
:101A3000EE0189E192E00E94B4218FE0E82EF12CC2
:101A400008E210E06DE27BE089E192E00E948425EB
:101A50001092A8021092A702F092AA02E092A902A4
:101A600060E471E085E192E00E94C6341092A80221
:101A70001092A7021093AA020093A90269EA72E0E9
:101A800089E192E00E9484256CE271E085E192E0B8
:101A90000E94C63489E192E00E94C6218111D2CF12
:101AA00060E177E280E090E00E9456378091FB028F
:101AB000807C09F44AC0CC2309F447C081E08093BC
:101AC000EE0189E192E00E94B4210FE010E0C8E24B
:101AD000D0E06DE27BE089E192E00E9484251092E3
:101AE000A8021092A7021093AA020093A90264E22E
:101AF00071E085E192E00E94C6341092A802109233
:101B0000A702D093AA02C093A90269EA72E089E110
:101B100092E00E9484256EE071E085E192E00E94EF
:101B2000C63489E192E00E94C6218111D2CF60E1E2
:101B300077E280E090E0DF91CF911F910F91FF90CD
:101B4000EF90DF90CF900C945637DF91CF911F919B
:101B50000F91FF90EF90DF90CF9008958F929F921A
:101B6000AF92BF92CF92DF92EF92FF920F931F93AB
:101B70007C0124EA30E74DE75FE36091F301709167
:101B8000F4018091F5019091F6010E94F53A4B0124
:101B90005C01B701FF0C880B990B0E94F0392AE019
:101BA00037ED43E25CE30E94F53A9B01AC01C501CD
:101BB000B4010E94D5386093F3017093F4018093CF
:101BC000F5019093F6010E94B839072E000C880B9E
:101BD000990B1F921F921F921F92AA24AA9423E08E
:101BE000B22EC12CD12CEE24EA9413E0F12E00E0A9
:101BF00010E020E030E0A9010E9485360F900F90A0
:101C00000F900F90623071052CF481E08093EC010D
:101C10006DE072E0072E000C880B990B0E94F039E2
:101C20009B01AC0160E070EC8FE794E40E944639C0
:101C300020E030E040E85FE30E94D43820911301B7
:101C40003091140140911501509116010E94F53A0E
:101C500060930D0270930E0280930F029093100216
:101C60000E94AD3A6B017C01C0921102D092120227
:101C7000E0921302F092140220910B0130910C01BA
:101C800040910D0150910E010E94F53A20910F01F3
:101C90003091100140911101509112010E94D538EC
:101CA0004B015C012091070130910801409109012D
:101CB00050910A01C701B6010E94F53AA7019601A9
:101CC0000E94F53AA70196010E94F53A9B01AC01EA
:101CD000C501B4010E94D5389B01AC0160E070E001
:101CE00080E89FE30E94463923E333E948E853E460
:101CF0000E94D4386093090270930A0280930B0209
:101D000090930C021F910F91FF90EF90DF90CF9076
:101D1000BF90AF909F908F9008954F925F926F9277
:101D20007F928F929F92AF92BF92CF92DF92EF926B
:101D3000FF920F931F93BC01990F880B990B1F9271
:101D40001F921F9224E62F93A12CB12C65011CEF4A
:101D5000E12E13E0F12E00E010E020E030E0A901D8
:101D60000E9485360E94F03920E030E048EC52E4D1
:101D70000E9446396B017C01AC019B010E94F53A3F
:101D80004B015C01A70196010E94F53A26E636E672
:101D900046E65FE30E94F53A2B013C0126E636E673
:101DA00046EA5FE3C501B4010E94F53A9B01AC012C
:101DB000C301B2010E94D4384B015C012DEC3CEC14
:101DC0004CEA5FE3C701B6010E94F53A9B01AC0102
:101DD000C501B4010E94D5382FE832EC45EF5CE331
:101DE0000E94D53820E030E048EC52E40E94F53AF9
:101DF0000E94B839A090AB02B090AC020B2C000C42
:101E0000CC08DD0877FF02C070E060E0072E000C10
:101E1000880B990B0091B3021091B402012E000CB3
:101E2000220B330B3F932F931F930F9312E6E12E58
:101E3000F12C00E010E023E030E040E050E00E94B0
:101E400085362DB73EB7285F3F4F0FB6F8943EBF9B
:101E50000FBE2DBFCB011F910F91FF90EF90DF9030
:101E6000CF90BF90AF909F908F907F906F905F903A
:101E70004F900895CF92DF92EF92FF920F931F93AE
:101E8000CF93DF938EE00E94D6370E94AE0D82E0A2
:101E90000E94AB38892B09F040C083E00E94AB3828
:101EA000892BD9F589E192E00E94B42104E110E088
:101EB000C2E3D0E069EA72E089E192E00E94842501
:101EC0001092A8021092A7021093AA020093A902EE
:101ED00061EA71E085E192E00E94C6341092A802A6
:101EE0001092A702D093AA02C093A9026CE871E0F5
:101EF00085E192E00E94C63489E192E00E94C62109
:101F00008111D8CF60ED77E080E090E00E945637F5
:101F100060E090E080E00E94CB3D8FE00E94AB3813
:101F2000892B09F047C086EE90E00E948D0E9093B9
:101F3000FC018093FB01C0900902D0900A02E0905E
:101F40000B02F0900C0220E030E040EA51E4C701BF
:101F5000B6010E94D43820E030E040E05FE30E9408
:101F6000F53A0E94B8397093F8016093F70120E0C8
:101F700030E048EC52E4C701B6010E94A03A1816BE
:101F800024F48091EF01882381F120E030E04EEBD2
:101F900052E4C701B6010E944139181664F580E089
:101FA000DF91CF911F910F91FF90EF90DF90CF9035
:101FB0000C94640C82E00E94AB38892B19F486E201
:101FC00092E0B3CF83E00E94AB38892B19F488E408
:101FD00093E0ABCF81E10E94AB38892B19F48FEFEE
:101FE00093E0A3CF90E080E0A0CF81E08093EF0169
:101FF00010920601D4CF8091EF01882381F21092D4
:10200000EF01CDCFAF92BF92CF92DF92EF92FF92CE
:102010000F931F93CF93DF930E9425370091050202
:10202000109106022091070230910802601B710B8B
:10203000820B930B6A3F71058105910560F00E9448
:1020400025376093050270930602809307029093F0
:1020500008020E943A0F0E94253700910102109158
:1020600002022091030230910402601B710B820B6B
:10207000930B6436710581059105F8F00E942537B0
:102080006093010270930202809303029093040212
:1020900087EB92E00E943D1E6B017C0187EB92E092
:1020A0000E943D1EA70196010E94E93B6430710524
:1020B0008105910514F40E945C0A0E942537009165
:1020C000FD011091FE012091FF0130910002601B83
:1020D000710B820B930B643F71408105910508F4ED
:1020E0003FC00E9425376093FD017093FE018093ED
:1020F000FF0190930002E090B302F090B4020F2C25
:10210000000C000B110B2091AB023091AC02032E9E
:10211000000C440B550B6091FB017091FC01072EE4
:10212000000C880B990B1F921F921F92E4E6EF930D
:10213000A12CB12C65010E9485360F900F900F9055
:102140000F906C3371058105910534F08DE00E948C
:10215000AB3861E0892B09F060E08DE00E947D38AA
:102160008091F20181112CC08091F101811128C070
:102170008091EF01811124C08091F001882309F43E
:102180006FC061E084E00E947D3860E087E10E94DA
:102190007D3880910601811125C081E08093060180
:1021A00040E050E0BA0187EB92E00E94551E40E00B
:1021B00050E06AE774E487EB92E00E946F1F12C060
:1021C00061E084E00E947D388091060181110AC09F
:1021D00081E08093060140E050E0BA0187EB92E095
:1021E0000E94551E8091EE01882341F061E084E059
:1021F0000E947D3860E087E10E947D3889E00E947E
:10220000AB38892B09F4A1C01092ED012091FB019C
:102210003091FC014091F7015091F8018091B50295
:102220009091B6026091AB027091AC0277FFDBC077
:10223000241B350BAC014C5F5F4F421753070CF06A
:10224000CCC03093FA012093F901DF91CF911F9117
:102250000F91FF90EF90DF90CF90BF90AF900895D7
:102260008091F2018111BECF8091F1018111BACF2D
:102270008091F0018111B6CF8091EF018111B2CF31
:102280008091EE018111B2CF60E084E00E947D3840
:1022900061E087E10E947D384091F9015091FA0197
:1022A000052E000C660B770B87EB92E00E94CC1D8D
:1022B00040E050E06AE774E487EB92E00E946F1F11
:1022C00087EB92E00E94E41F8091060181118ACF82
:1022D00040E050E0BA0187EB92E00E94551E40E0DA
:1022E00050E06AE774E487EB92E00E946F1F81E0A0
:1022F000809306014091F9015091FA01052E000CDE
:10230000660B770B87EB92E00E94CC1D40E050E01B
:102310006AE774E487EB92E00E946F1F87EB92E01C
:102320000E944F1E2091F9013091FA018901330F6B
:10233000220B330B601771078207930709F452CF02
:1023400087EB92E00E94E41FE9CF87E10E94AB385F
:10235000892B09F459CF81E08093ED0161E084E09D
:102360000E947D3860E087E10E947D3889E192E03B
:102370000E94B421CFE0D0E009E110E06DE27BE003
:1023800089E192E00E9484251092A8021092A7028F
:10239000D093AA02C093A90261E272E085E192E0C3
:1023A0000E94C6341092A8021092A7021093AA02AB
:1023B0000093A90269EA72E089E192E00E94842513
:1023C00064E172E085E192E00E94C63489E192E026
:1023D0000E94C6218111D2CF19CF05969093FA01A0
:1023E0008093F90132CF240F351FAC0144505109BD
:1023F00005972417350794F724CF8F929F92AF92B9
:10240000BF92CF92DF92EF92FF926C0181E00E9427
:10241000640C60E084E00E947D3840E050E0BA0146
:1024200087EB92E00E94551E0D2C000CEE08FF0871
:10243000B701A60187EB92E00E94CC1D40E050E07E
:102440006AE773E487EB92E00E946F1F87EB92E0EC
:102450000E944F1E0E94F0394B015C01C701B6017A
:102460000E94F0392DEC3CEC4CEC5DE30E94F53A17
:102470009B01AC01C501B4010E944139882329F0B8
:1024800087EB92E00E94E41FE1CF87EB92E00E948D
:102490004F1EC616D706E806F906C1F087EB92E094
:1024A0000E94E41F8FEF92E00E94741844976CF72B
:1024B00087EB92E00E944F1ECB01FF90EF90DF90E0
:1024C000CF90BF90AF909F908F90089590E080E064
:1024D000F4CFFF920F931F93CF93DF9300D0CDB72C
:1024E000DEB78C01F72E9A838983CE0101960E9474
:1024F000D1090F5F1F4F1A8309836F2DCE010196FB
:102500000E94D1090F900F90DF91CF911F910F91F1
:10251000FF9008951F93CF93DF93EC010E94C33D7A
:10252000182FCE0101960E94C33D90E0982F882776
:10253000810F911DDF91CF911F910895CF92DF926E
:10254000EF92FF920F931F93CF93DF9380EA96E869
:10255000A1E0B0E08093250290932602A093270289
:10256000B093280289E192E00E94502B89E192E029
:102570000E94EB2160E089E192E00E94592B69EA18
:1025800072E089E192E00E94842589E192E00E9454
:10259000B421DCE0ED2EF12C08E210E0CCE3D0E039
:1025A00069EA72E089E192E00E9484251092A80213
:1025B0001092A702F092AA02E092A90267E972E0E3
:1025C00085E192E00E94C63420E830E04CE050E023
:1025D00070E060E089E192E00E9458261092A80223
:1025E0001092A7021093AA020093A90260E972E078
:1025F00085E192E00E94C6341092A8021092A702D0
:10260000D093AA02C093A90262E872E085E192E049
:102610000E94C63489E192E00E94C6218111C0CF98
:1026200010E000E020E032EC41E050E06BE575E0C6
:102630008FEF92E00E94B7196CE38FEF92E00E9457
:10264000E31868E28FEF92E00E94F3188FEF92E0B8
:102650000E948A196AE08FEF92E00E94D71664E028
:1026600070E08FEF92E00E94671963E070E08FEFF7
:1026700092E00E947E1940ED57E060E070E08FEF3D
:1026800092E00E94D21640E050E06AE775E487EBE2
:1026900092E00E946B1E40E050E06AE775E487EB31
:1026A00092E00E944B1F61E084E00E94413861E0AB
:1026B00086E00E94413861E085E00E94413862E096
:1026C0008FE00E94413862E082E00E94413862E07F
:1026D00083E00E94413862E081E10E94413860E07D
:1026E0008EE00E94413860E08CE00E94413862E058
:1026F0008BE00E94413860E08AE00E94413860E04F
:1027000089E00E94413861E087E10E94413861E040
:102710008DE00E9441388CE00E94AB38892B19F083
:1027200081E08093F2018BE00E94AB38892B19F491
:1027300081E08093F1018AE00E94AB38892B19F483
:1027400081E08093F00181E0809368008CE18093C8
:102750006B0060E084E00E947D388FEF92E00E9481
:1027600014198EE00E94D637BC01990F880B990B83
:102770000E94F0396093F3017093F4018093F501A6
:102780009093F6018EE00E94D6370E94AE0D8091A4
:10279000EC01882309F458C089E192E00E94B42139
:1027A000BAE0CB2ED12CC4E1EC2EF12C08E210E0E3
:1027B000C2E3D0E069EA72E089E192E00E948425F8
:1027C0001092A8021092A702D092AA02C092A90267
:1027D00060E772E085E192E00E94C6341092A802A0
:1027E0001092A702F092AA02E092A90262E672E0B9
:1027F00085E192E00E94C6341092A8021092A702CE
:102800001093AA020093A9026CE572E085E192E0C0
:102810000E94C6341092A8021092A702D093AA0276
:10282000C093A90260E572E085E192E00E94C6349F
:1028300089E192E00E94C6218111BCCF68E873E172
:1028400080E090E00E9456376AEF70E080E090E010
:102850000E94563781E00E94640C6AEF70E080E0CD
:1028600090E00E94563790E080E00E94C33D8B3795
:1028700009F443C189E192E00E94B421C4E1D0E0AF
:1028800069EA72E089E192E00E948425D093A8026F
:10289000C093A702D093AA02C093A90260E472E099
:1028A00085E192E00E94C63489E192E00E94C6214F
:1028B0008111E6CF80E79EEF0E94FD119093B60252
:1028C0008093B5028F3C9F4F44F080E991E00E94D5
:1028D000FD119093B6028093B50289E192E00E94C7
:1028E000B421C4E1D0E002E310E069EA72E089E1DA
:1028F00092E00E948425D093A802C093A702D093AF
:10290000AA02C093A90260E372E085E192E00E940E
:10291000C634D093A802C093A7021093AA020093D2
:10292000A9026091B5027091B6024AE050E085E1DB
:1029300092E00E94853569E272E085E192E00E94B2
:10294000C63489E192E00E94C6218111CECF60EDAC
:1029500077E080E090E00E9456378091B502909138
:10296000B6028E3C2FEF92070CF090C02CE93FEF9F
:102970003093AC022093AB029C01245C3F4F309318
:10298000B4022093B30280569F4FAC0197FF02C060
:102990004F5F5F4F55954795445651095093B0028C
:1029A0004093AF02241B350B37FF02C02F5F3F4F10
:1029B00035952795240F351F3093B2022093B1022D
:1029C00097FD0396959587959595879584569109DA
:1029D0009093AE028093AD026BE790E080E00E949E
:1029E000CB3D6091AB027091AC0282E090E00E941E
:1029F00069126091AD027091AE0284E090E00E9495
:102A000069126091AF027091B00286E090E00E947E
:102A100069126091B1027091B20288E090E00E9468
:102A200069126091B3027091B4028AE090E00E9452
:102A300069126091B5027091B6028CE090E00E943C
:102A4000691261E084E00E947D3840E050E0BA0104
:102A500087EB92E00E94551E40E050E06AE774E484
:102A600087EB92E00E946F1F6CE38FEF92E00E9471
:102A7000E31868E28FEF92E0DF91CF911F910F9101
:102A8000FF90EF90DF90CF900C94F3188333910573
:102A90000CF4A7CF24E630E03093AC022093AB02D5
:102AA0009C012C5331093093B4022093B302805A15
:102AB0009109AC0197FF02C04F5F5F4F5595479555
:102AC0004C595F4F5093B0024093AF02241B350B1B
:102AD00037FF02C02F5F3F4F35952795240F351FD5
:102AE0003093B2022093B10297FD03969595879596
:102AF000959587958C599F4F6BCF82E090E00E940F
:102B00008A129093AC028093AB0284E090E00E9422
:102B10008A129093AE028093AD0286E090E00E940C
:102B20008A129093B0028093AF0288E090E00E94F6
:102B30008A129093B2028093B1028AE090E00E94E0
:102B40008A129093B4028093B3028CE090E00E94CA
:102B50008A129093B6028093B50273CFCF92EF9210
:102B60000F93CF93DF938FEF92E00E94F715CC2461
:102B7000C39485E0E82E04E025E046E061E087EBC1
:102B800092E00E94E11EC5E1D2E01B821A828CE134
:102B900091E0998388838CE199E29093A6028093D7
:102BA000A5021092A8021092A7021092AA021092F7
:102BB000A90289E192E00E94262988E291E09983A6
:102BC000888325E030E246E750E260E571E089E184
:102BD00092E00E9401222FEF4FEF6FEF89E192E028
:102BE000DF91CF910F91EF90CF900C947120FC0169
:102BF00083E0828F1182108280E092ECA1E0B0E04D
:102C000082839383A483B58316828FEF9FEF90878F
:102C10008783158A0895DC018D919C91009739F086
:102C2000DC01ED91FC910084F185E02D099490E0A8
:102C300080E00895DC018D919C91009739F0DC01D2
:102C4000ED91FC910190F081E02D099490E080E0FD
:102C50000895DC018D919C91009739F0DC01ED9194
:102C6000FC910284F385E02D099490E080E00895C2
:102C7000DC018D919C91009739F0DC01ED91FC9184
:102C80000680F781E02D09940895CB01BA010E94D6
:102C9000403C08957F928F929F92AF92BF92CF92C5
:102CA000DF92EF92FF920F931F93CF93DF93CDB7F5
:102CB000DEB728970FB6F894DEBF0FBECDBF7C01FC
:102CC000162FBA01A90185E08983F701B680BA827F
:102CD0001F7710681B83C7010E9445166C837D8394
:102CE0008E839F83F62FA72E982E892EE0E0B0E0EA
:102CF000A0E087E0782E25E03B2D412F5F2F6A2D45
:102D0000792D882D90E00A2F0E947C3C38E08E2F90
:102D100090E0422F50E0BC01660F672F661F770BD3
:102D200020FBCC24C0F8D12CEE0F6C157D0521F0D2
:102D3000880F991FE82FE72555954795242F315087
:102D400031F71896A833B105B1F6E887D12CC12C1C
:102D500029813A814B815C816D817E818F8198854B
:102D60000C2D0E947C3C622FC7010E941A16F8E0CD
:102D7000CF0ED11C80E4C816D10451F728960FB6A7
:102D8000F894DEBF0FBECDBFDF91CF911F910F91A1
:102D9000FF90EF90DF90CF90BF90AF909F908F907B
:102DA0007F9008959A01AB0164E10C944A16262F96
:102DB00030E050E040E060E40C944A16CF93DF939B
:102DC000EC011D861E861F86188A80E18D878E8500
:102DD0008F618E878F85807F81608F872D853E856F
:102DE0004F85588960E1CE010E944A1683E58E8B9B
:102DF0001F8A81E0888F80E1898F2E893F89488DE5
:102E0000598D6CE6CE010E944A1684E290E0ADE056
:102E1000B1EC8B8F9C8FAD8FBE8F24E230E04DE004
:102E200051EC60E7CE010E944A16198A1A8A1B8A61
:102E30001C8A20E030E0A90162E4CE010E944A161B
:102E400024E130E040E050E061E1CE010E944A160A
:102E500020E030E0A90163E1CE010E944A1620E0A3
:102E600030E0A90162E2CE010E944A1620E030E083
:102E7000A90164E1CE010E944A1620E030E0A901D8
:102E800060E4CE010E944A1620E030E0A90162E42D
:102E9000CE01DF91CF910C944A168F929F92AF9200
:102EA000BF92DF92EF92FF920F931F93CF93DF9326
:102EB000CDB7DEB728970FB6F894DEBF0FBECDBFF3
:102EC0007C0145E0842E912CA12CB12CFC01968034
:102ED0006F778A2D8078A82EA62AE894A7F8F0E0CC
:102EE000E0E080E057E0D52EB501A4010E2E04C02D
:102EF00076956795579547950A94D2F758E0682FCD
:102F000070E0A42FB0E08B01000F012F001F110B08
:102F1000242F217030E0880F0217130721F0CB0116
:102F2000880F991F8D25B595A7954A2F515039F7D0
:102F30003896E831F105C1F6B82EC7010E9438165F
:102F4000C7010E940B161816190624F4C7010E9427
:102F50002916F6CF10E000E0C501B401002E04C030
:102F600096958795779567950A94D2F7C7010E9441
:102F70001A16085F1F4F0032110571F7C7010E9432
:102F80003816812C912C5401C7010E940B1604970E
:102F90008CF4F0EA8F16FFE09F06A104B104E9F07B
:102FA00081E090E00E948F378FEF881A980AA80A74
:102FB000B80AEACFE0EA8E16EFE09E06A104B1045B
:102FC00061F0C7010E942916C7010E942916C70196
:102FD0000E942916C7010E942916812C912C5401A8
:102FE000C7010E940B16089794F4F0E18F16F7E2E0
:102FF0009F06A104B10409F45EC081E090E00E9444
:103000008F378FEF881A980AA80AB80AE9CFE0E14B
:103010008E16E7E29E06A104B10409F44CC01982A1
:103020001A821B821C821D821E821F821886B12C6E
:10303000A12CC7010E9429169C01932F990F990B6F
:10304000492F592F692F792F892F0A2D0E94613C12
:10305000F9812F2BFA813F2BEB81E42B4C81452BFF
:103060005D81562B6E81672B7F81782B8885982B0D
:1030700029833A83EB834C835D836E837F839887B8
:10308000F8E0AF0EB11C80E4A816B10491F6C701B8
:1030900028960FB6F894DEBF0FBECDBFDF91CF915B
:1030A0001F910F91FF90EF90DF90BF90AF909F9096
:1030B0008F900C94451660E070E0CB0128960FB617
:1030C000F894DEBF0FBECDBFDF91CF911F910F915E
:1030D000FF90EF90DF90BF90AF909F908F900895FA
:1030E0006FE60E944D17089561E40E944D17CB01D1
:1030F0000895AF92BF92CF92DF92EF92FF920F931B
:103100001F9370E090E080E06536710581059105C0
:1031100020F064E670E080E090E01F921F921F9222
:103120002FE12F93A12CB12C650114E6E12EF12C97
:1031300000E010E020E030E0A9010E948536862FF3
:103140000F900F900F900F901F910F91FF90EF90A5
:10315000DF90CF90BF90AF900895FC01218532851C
:103160004385548560E00C944A16FC01668380EC2C
:10317000818781E0828713861486CF010C94AD1875
:10318000CF93DF93EC012D853E854F85588960E113
:103190000E944A169E859F718A89943178F08068D2
:1031A0008A8B8D89882361F029893A894B895C89CA
:1031B00062E4CE01DF91CF910C944A168F77F0CF65
:1031C000DF91CF910895CF93DF93EC010E9479189E
:1031D000982F9F718E85807E892B8E87CE01DF91FF
:1031E000CF910C94C018CF93DF93EC010E94791813
:1031F000982F9F718D85807E892B8D87CE01DF91E1
:10320000CF910C94C018FC012685207E2687258549
:10321000207E25870C94C018FC0126893789408DB3
:10322000518D6CE60C944A16CF93DF93EC018F819D
:10323000988597FD03C060E00E947D389A8D9F704D
:103240008E89807F892B8E8BCE01DF91CF910C945C
:103250000C19CF93DF93EC018F81988597FD03C004
:1032600061E00E947D388E89807F8E8BCE01DF9158
:10327000CF910C940C19DC0159969C9159976830A8
:1032800020F5E62FF0E0E85BF64E907F0C943A3C98
:103290005019571959195B195D195F19611963198B
:1032A000986059969C935997CD010C940C1997608E
:1032B000F8CF9660F6CF9560F4CF9460F2CF93602C
:1032C000F0CF9260EECF9160ECCF907FEACF9B0180
:1032D0003695279570E060E02115310529F0369587
:1032E00027956F5F7F4FF8CF0C943B19FC01238D1E
:1032F000348D458D568D60E70C944A16FC01637041
:10330000962F9295907F658D6F7C692B658FCF018D
:103310000C947619FC01258D2460258F0C94761968
:10332000FC01258D2B7F258F0C947619FC01258DB2
:10333000277F258F0C947619CF93DF93EC014A8376
:103340005B836C837D83B9010E94B518CE010E9416
:10335000DE16CE010E940319CE010E942919CE016A
:103360000E949019CE01DF91CF910C949619CF92C3
:10337000DF92EF92FF920F931F93CF93DF93EC01B5
:10338000CB0169017A01798368830E94E83326E0E2
:10339000B701A601888199810E9490339801B701F5
:1033A000A601CE01DF91CF911F910F91FF90EF9079
:1033B000DF90CF900C949C1908954F925F926F927A
:1033C0007F928F929F92AF92BF92CF92DF92EF92B5
:1033D000FF920F931F93CF93DF93EC01CC88DD888E
:1033E000EE88FF8888899989AA89BB89C81AD90A71
:1033F000EA0AFB0A688D798D8A8D9B8D9B01AC0151
:103400000E94F53A4B015C0168A179A18AA19BA1B8
:103410009B01AC010E94D5389B01AC01C501B401F0
:103420000E9446390E94B839C114D104E104F10464
:1034300009F0B6C062307105810591050CF0D0C06D
:103440001B821C821D821E82188E198E1A8E1B8E64
:103450001CAA1DAA1EAA1FAAC12CD12C7601C70125
:10346000B601DF91CF911F910F91FF90EF90DF9008
:10347000CF90BF90AF909F908F907F906F905F9014
:103480004F9008951016110612061306B4F46C1529
:103490007D058E059F051CF42A812111A1C09B0189
:1034A000AC0188279927DC01821B930BA40BB50B79
:1034B0008CAB9DABAEABBFAB93C001151105210525
:1034C000310509F48DC06C157D058E059F050CF046
:1034D00087C08A81882309F483C030952095109590
:1034E00001951F4F2F4F3F4F0CAB1DAB2EAB3FAB8A
:1034F00077C0011511052105310509F471C0882433
:10350000992454018C189D08AE08BF0868157905E8
:103510008A059B050CF064C08A81811161C0DDCFF2
:10352000CCACDDACEEACFFACA7019601C701B60197
:103530000E94D5382B013C01C501B4010E94F0392D
:1035400020E030E040E850E40E94F53A20E030E02E
:1035500040E85FE30E94D5389B01AC01C301B20192
:103560000E9446399B01AC01C701B6010E94D438C4
:103570003B016C01FE01E05CFF4FE080F1800281C5
:1035800013819701A8010E94A03A181614F4730140
:103590008601C701D8018CAF9DAFAEAFBFAF3AC0B7
:1035A0000CA91DA92EA93FA91C141D041E041F044B
:1035B0000CF468CF10161106120613060CF099CF02
:1035C0000027112798010C191D092E093F096017C2
:1035D0007107820793070CF062CF2A8121115FCF18
:1035E0008CA89DA8AEA8BFA881149104A104B10421
:1035F00009F096CF88AD99ADAAADBBAD8CAF9DAFAC
:10360000AEAFBFAF81E01C141D041E041F040CF0FC
:1036100080E08A833FEF831A930AA30AB30A8CAA35
:103620009DAAAEAABFAA8CAC9DACAEACBFACC50186
:10363000B4010E94BF396B017C01CB82DC82ED8238
:10364000FE82A501940160E074E284E799E40E949F
:103650004639688F798F8A8F9B8F2A812111FFCEFF
:103660009058688F798F8A8F9B8FF9CEDC011796DF
:10367000EC911797E93008F038C0F0E0EE5BF44EBB
:103680000C943A3C4B1B511B571B5D1B631B751B5A
:10369000691B751B6F1BED91FC910684F785E02D6E
:1036A0000994ED91FC910088F189E02DF9CFED911D
:1036B000FC910288F389E02DF3CFED91FC91048811
:1036C000F589E02DEDCFED91FC910688F789E02D8D
:1036D000E7CFED91FC91008CF18DE02DE1CFED91E4
:1036E000FC91028CF38DE02DDBCF0895CF93DF9317
:1036F000EC01CB01BA0126E030E040E050E00E944E
:103700001B3C623071058105910589F16CF46115EE
:10371000710581059105D1F0613071058105910533
:10372000F9F0DF91CF91089564307105810591051D
:1037300061F124F1653071058105910591F7E8810A
:10374000F9810284F385E02D66E006C0E881F98105
:103750000284F385E02D64E0CE01DF91CF910994DE
:10376000E881F9810284F385E02D65E0F5CFE881F9
:10377000F9810284F385E02D61E0EECFE881F981E3
:103780000284F385E02D63E0E7CFE881F9810284CC
:10379000F385E02D62E0E0CFDC01ED91FC91228524
:1037A00033854770552766277727415051096109AE
:1037B0007109473051056105710560F4FA01ED5159
:1037C000F44E0C943A3CED1BEF1BF11BF31BF51B65
:1037D000F71BF91B61E0F901099465E0FCCF64E097
:1037E000FACF66E0F8CF62E0F6CF6AE0F4CF68E0A7
:1037F000F2CF69E0F0CFCF92DF92EF92FF920F937A
:103800001F93CF93DF93DC011796CC91C43039F02E
:10381000C83059F1C33019F0C63049F1C2E08C010B
:10382000085F1F4FF12CE12CC62ED12CD1E0F801FE
:103830006481C6010E2C02C0959587950A94E2F723
:1038400080FD6D270F5F1F4F80810E947D38BFEF85
:10385000EB1AFB0AEC1658F3DF91CF911F910F91F1
:10386000FF90EF90DF90CF900895C4E0D8CFC3E0F1
:10387000D6CFCF93DF93EC01E881F9810284F38501
:10388000E02D8A8160E0811162E0CE010995E88136
:10389000F9810284F385E02D8A8161E0811163E082
:1038A000CE0109958CA59DA50E948F37E881F981ED
:1038B0000284F385E02D8A8160E0811162E0CE010F
:1038C000DF91CF91099464E470E00C94D936CF93E2
:1038D000DF93EC0120E030E0A901688D798D8A8DBD
:1038E0009B8D0E94A03A18162CF4E8A9F9A9DF9143
:1038F000CF910994EAA9FBA9FACFDC01ED91FC91E3
:103900000284F385E02D43705527662777274230E0
:1039100051056105710571F043305105610571056F
:1039200059F0413051056105710511F062E00994CB
:1039300063E0FDCF61E0FBCF60E0F9CFCF93DF9391
:10394000EC01CB01BA0123E030E040E050E00E94FE
:103950001B3C613071058105910599F0623071055C
:1039600081059105A9F0672B682B692BC1F4E881CB
:10397000F9810284F385E02D64E0CE01DF91CF91DF
:103980000994E881F9810284F385E02D61E0F5CFA7
:10399000E881F9810284F385E02D62E0EECFDF91CA
:1039A000CF910895DC01ED91FC910284F385E02D27
:1039B0004370552766277727423051056105710509
:1039C00071F0433051056105710559F041305105E1
:1039D0006105710511F065E0099466E0FDCF6AE0CC
:1039E000FBCF69E0F9CFCF93DF93FC01278122233E
:1039F000A9F0EC010190F081E02D0284F385E02D27
:103A000060E009958FA58F3F49F061E00E94413841
:103A10006EA58FA5DF91CF910C947D38DF91CF916A
:103A20000895CF93DF93FC012781222359F1EC0104
:103A300061E080850E94413861E089850E944138BB
:103A40008F81843011F08830B1F461E08A850E9462
:103A5000413861E08B850E9441388FA58F3F91F0FE
:103A600061E00E9441386EA581E068278FA5DF9153
:103A7000CF910C947D38833011F0863071F761E07E
:103A80008A85E9CFDF91CF9108954F925F926F922F
:103A90007F928F929F92AF92BF92CF92DF92EF92DE
:103AA000FF92CF93DF93EC016A017B0120E030E0CD
:103AB000A901CB01B6010E94413987FF04C0F7FA82
:103AC000F094F7F8F09488A099A0AAA0BBA0A70151
:103AD0009601C501B4010E944139882309F44DC003
:103AE0006CA97DA98EA99FA90E94F0392B013C01E8
:103AF000A7019601C501B4010E9446399B01AC01A2
:103B0000C301B2010E94F53A0E94B8396CAB7DAB9B
:103B10008EAB9FABA701960160E070E080E090E47F
:103B20000E9446390E94683B26E53EE04DE25FE395
:103B30000E94F53A20E034E244E759E40E94F53A65
:103B400068AF79AF8AAF9BAFC8A2D9A2EAA2FBA2A5
:103B5000E881F9810084F185E02DCE01DF91CF91DC
:103B6000FF90EF90DF90CF90BF90AF909F908F909D
:103B70007F906F905F904F900994DF91CF91FF906D
:103B8000EF90DF90CF90BF90AF909F908F907F90FD
:103B90006F905F904F9008950F931F93DC015496A0
:103BA0000D911D912D913C915797041715072607EC
:103BB000370771F0FC01448B558B668B778B019036
:103BC000F081E02D0084F185E02D1F910F91099483
:103BD0001F910F910895CF92DF92EF92FF92CF93B2
:103BE000DF93FC014381548165817681452B462B0F
:103BF000472B41F480E0DF91CF91FF90EF90DF9071
:103C0000CF900895EC010E9431376B017C0188A5AB
:103C100099A5AAA5BBA5B701A601481B590B6A0B1C
:103C20007B0B8B819C81AD81BE81481759076A0748
:103C30007B0700F388899989AA89BB892A81222375
:103C4000C1F00196A11DB11D888B998BAA8BBB8BEE
:103C5000488959896A897B89E881F9810484F585D5
:103C6000E02DCE010995C8A6D9A6EAA6FBA681E05B
:103C7000C2CF0197A109B109E7CF0F931F93FC01B0
:103C80006489758986899789008911892289338990
:103C9000601B710B820B930B1F910F910895FC0118
:103CA00060897189828993890895FC01408B518BC9
:103CB000628B738B448B558B668B778B14AA15AAFA
:103CC00016AA17AA1382148215821682108E118EDC
:103CD000128E138E0895CF92DF92EF92FF920F9380
:103CE0001F93CF93DF93EC016A017B0120E030E06A
:103CF000A901CB01B6010E94413987FF04C0F7FA40
:103D0000F094F7F8F094A70196016C8D7D8D8E8D5F
:103D10009F8D0E944139882309F44AC0CC8EDD8EE4
:103D2000EE8EFF8E8E01005C1F4FA701960160E0B2
:103D300074E284E799E40E944639F8016083718354
:103D4000828393838CA99DA9AEA9BFA918161906D1
:103D50001A061B066CF5688D798D8A8D9B8D9B01EB
:103D6000AC010E94F53A6B017C0168A179A18AA19E
:103D70009BA19B01AC010E94D5389B01AC01C701FE
:103D8000B6010E9446390E94B8396CAB7DAB8EAB50
:103D90009FABE881F9810084F185E02DCE01DF91B0
:103DA000CF911F910F91FF90EF90DF90CF900994EA
:103DB000DF91CF911F910F91FF90EF90DF90CF9007
:103DC0000895CF92EF920F93CF93DF93EC0184E3AA
:103DD00091E0998388836F83188A198A1A8A1B8ACB
:103DE0001C8A1D8A1E8A1F8A188E198E1A8E1B8E97
:103DF0001C8E1D8E1E8E1F8E18A219A21AA21BA227
:103E000080E090E0A0E8BFE38CA39DA3AEA3BFA396
:103E10001B821C821D821E8261E070E07DA76CA760
:103E20003FEF3FA718A619A61AA61BA64887298701
:103E30000A87EB861EA61CAA1DAA1EAA1FAA18AED8
:103E400019AE1AAE1BAE1CAE1DAE1EAE1FAEFE01ED
:103E5000E05CFF4F80839183A283B3831A821C8628
:103E60001D861E861F86CC2019F0CE010E94111DD2
:103E700040E050E060E87FE3CE010E94451D40E055
:103E800050E060E87FE3CE01DF91CF910F91EF909A
:103E9000CF900C946B1ECF92DF92EF92FF92CF9354
:103EA000DF93EC016A017B0120E030E0A901CB0146
:103EB000B6010E944139882359F0B701A601CE010D
:103EC000DF91CF91FF90EF90DF90CF900C94451D44
:103ED000DF91CF91FF90EF90DF90CF9008954F92B8
:103EE0005F926F927F92AF92BF92CF92DF92EF92EA
:103EF000FF920F931F93CF93DF93EC015A018B0135
:103F00009A01AB01688D798D8A8D9B8D0E94413914
:103F1000882379F14C8C5D8C6E8C7F8C73016201EF
:103F2000F7FAF094F7F8F0949501A801C701B601EB
:103F30000E94A03A181664F09501A801C301B201CD
:103F40000E9441396501780187FF02C07301620157
:103F500020E030E0A901C701B6010E94413981117A
:103F600017C01B821C821D821E82C88ED98EEA8ECB
:103F7000FB8EDF91CF911F910F91FF90EF90DF901B
:103F8000CF90BF90AF907F906F905F904F900895CB
:103F9000A701960160E074E284E799E40E94463943
:103FA0009F770E94BF396B837C838D839E8311E052
:103FB00020E030E0A901C701B6010E94A03A18161E
:103FC0000CF010E01A83D1CF0F931F93FC010489EA
:103FD000158926893789408951896289738904172F
:103FE00015072607370769F040175107620773075F
:103FF00034F421E022831F910F910C94EB1D128267
:10400000FACF80E01F910F9108950F931F93CF93E4
:10401000DF938C01C62F642FCC32A8F4CA32D0F5BE
:10402000C83239F1C932E1F180E0C034A0F1CF7378
:10403000F801EC0FF11DD68DDF3F61F1C03108F0C2
:1040400042C08D2F13C0CD3289F170F384EB8C0FF9
:10405000823050F7CF73C00FD12FD11D8E8D4111FB
:104060002EC061E00E94413860E08E8D0E947D3854
:1040700011C0025E1F4FD0E0F80181918F018F3F88
:1040800031F061E0D03108F062E00E944138DF5F3A
:10409000D63191F781E0DF91CF911F910F91089573
:1040A00070E090E080E00E945637F4CF85E090E029
:1040B000433010F082E090E00E948F37EBCF62E057
:1040C0000E944138E7CFC03111F40E94C6368D2FCF
:1040D0000E94AB3821E0892B09F420E0F801218F00
:1040E000D9CFFC0161A742A723A70895CF93DF93FF
:1040F000EC01683189F130F4643199F0673151F0A5
:1041000080E005C06931C9F16032D1F781E0DF910B
:10411000CF91089550E0B9018FE194E00E94152CF1
:10412000F5CF8C859D85AE85BF85892B8A2B8B2B02
:1041300071F4E881F981A585B0E020EA36E841E034
:1041400050E00E94563C6C877D878E879F878FE169
:1041500094E00E94F72CDACF4C855D856E857F85D3
:104160008FE194E00E94002D6E8970E0759567954F
:104170008FE194E00E94072DC9CF8FE194E00E9467
:10418000232DC4CF8F929F92AF92BF92CF92DF9296
:10419000EF92FF920F931F93CF93DF935C016B011C
:1041A000EA0149017A01E00EF11E9B01280D391D3B
:1041B00087010E949C26811115C0DF91CF911F912C
:1041C0000F91FF90EF90DF90CF90BF90AF909F90B6
:1041D0008F90089500E09401AE01B601C5010E94E0
:1041E000AD252196EC16FD06A9F7E7CF6F927F92D9
:1041F0008F929F92AF92BF92CF92DF92EF92FF92F7
:104200000F931F93CF93DF936C015B01EA01490188
:1042100078013B01620E731E8A010E0D1F1D930172
:104220000E949C26882351F100E09401AE01B50163
:10423000C6010E94AD2582E0E816F104F8F082E0A4
:10424000E81AF1082196E114F10489F001E09701E0
:10425000AE01B501C6010E94AD25B30161507109DF
:104260009701AE01C6010E94AD25CE0DDF1D00E015
:104270009401AE01B501C6010E94AD25DF91CF9139
:104280001F910F91FF90EF90DF90CF90BF90AF9074
:104290009F908F907F906F900895AF92BF92CF9232
:1042A000DF92EF92FF920F931F93CF93DF93EC0176
:1042B000AAACEBACE881F981B188FE2CD12CC12CE1
:1042C000E881F981208908AD19AD88E0289FA00117
:1042D00011244C9DC0014D9D900D5C9D900D1124AD
:1042E000080F191F4F2D60E0CE010E94252BF3947B
:1042F0008F2D8E198A1528F48FEFC81AD80AFB144F
:10430000F8F2DF91CF911F910F91FF90EF90DF9026
:10431000CF90BF90AF900895FC01A081B1815096DD
:104320002C9182AD38E0839FC0011124289FA00109
:10433000299F500D112470E060E080AD91AD0C9488
:10434000BC3DCF93DF93EC016BAFEEA9FFA90190C9
:10435000F081E02D0995EEA9FFA90280F381E02DFF
:10436000CE01DF91CF910994CF93DF93EC01FC0153
:10437000E557FF4F8081882319F0CE010E948C21E0
:1043800060E0CE01DF91CF910C94A1211F93CF93D8
:10439000DF93EC010E944D211BAD8AAD180FE8811F
:1043A000F9818189181740F0CE010E94622B80E0CC
:1043B000DF91CF911F910895FE01E557FF4F808156
:1043C000882319F0CE010E948C21612FCE010E941A
:1043D000A12181E0EDCFCF93DF93EC010E94B421C6
:1043E000CE010E94C6218111FBCF60E0CE01DF919A
:1043F000CF910C94A12122E0FC0120838EE193E077
:104400000895CF92DF92EF92FF920F931F93CF9375
:10441000DF931F92CDB7DEB77C016B0189019A0152
:1044200047EE59E265EC7AE20E94922BCE010196AA
:104430000E94FB2186012BE737E24981BC01C701BD
:104440000E94EC280F90DF91CF911F910F91FF9068
:10445000EF90DF90CF900895FC01E60FF11D84915D
:1044600090E0982F88273196E4918E0F911D089542
:1044700090E080E008950F931F93CF93DF93EC01BA
:104480008B01FB01849188833196E491E983FB01E0
:104490003296E491EA83FB013396E491EB83FB01CE
:1044A0003496E491EC83FB013596E491ED83FB01B6
:1044B0003696E491EE83FB013796E491EF83FB019E
:1044C0003896E491E887FB013996E491E987FB018E
:1044D0003A96E491EA87FB013B96E491EB87FB0176
:1044E0003C96E491EC87FB013D96E491ED87FB015E
:1044F0003E96E491EE87FB013F96E491EF87FB0146
:104500007096E491E88B61E1C8010E942C229A8B9D
:10451000898B63E1C8010E942C229C8B8B8B65E107
:10452000C8010E942C229E8B8D8BDF91CF911F9111
:104530000F910895DC011A964C911A97ED91FC9118
:104540001197249130E0042E02C0359527950A94E6
:10455000E2F7842F860F883068F031961196FC932D
:10456000EE93E49198E0941B01C0EE0F9A95EAF760
:104570002E2B88501A968C938FEF9FEF01C0880FD7
:104580006A95EAF78095822308950F931F93CF933E
:10459000DF938C01EC01C25ADF4F798368831A865E
:1045A000FC01EF58FF4F6081CE010E949A2288875C
:1045B000F801EE58FF4F6081CE010E949A22898750
:1045C000F801E657FF4F90819C8781E0911180E0D0
:1045D0008D87DF91CF911F910F910895CF93C62FB3
:1045E0000E949A22C15021E030E001C0220FCA95FA
:1045F000EAF7821BCF910895213069F038F022301C
:1046000079F0861B910967FD93950895840F911D9C
:1046100047FD9A950895860F911D67FD9A95089517
:10462000841B910947FD93950895213069F038F076
:10463000223079F0840F911D47FD9A950895860FD9
:10464000911D67FD9A950895841B910947FD9395E7
:104650000895861B910967FD939508953F924F92A7
:104660005F926F927F928F929F92AF92BF92CF9202
:10467000DF92EF92FF920F931F93CF93DF937C0112
:10468000162F442EEC01C25ADF4F5E806F806C0102
:104690008AE8C80ED11C78847518312E711608F47A
:1046A000372C8C809D800E85202F462D652D8A818C
:1046B0009B810E9415235C01202F462D652DC4018E
:1046C0000E94FC22AC01442079F08C85F6018083A5
:1046D000232D30E0B501C7010E94AD25171548F024
:1046E00017196394512CD7CF8B858111F7CF8D8506
:1046F000EDCF150D1E836F82DF91CF911F910F912A
:10470000FF90EF90DF90CF90BF90AF909F908F90F1
:104710007F906F905F904F903F9008958F929F92FF
:10472000AF92BF92CF92DF92EF92FF920F931F93BF
:10473000CF93DF937C01EC01C25ADF4F0E94C52268
:10474000F701E959FF4FB0803C966081CE010E948D
:10475000EE22882EF701EC58FF4F6081CE010E94B7
:10476000EE22082FF701EB58FF4F6081CE010E9427
:10477000EE22A82E988419140CF061C01E850B0D32
:104780000195212F402F682D8A819B810E9415233E
:104790006C019B838A83212F402F682D8C819D8102
:1047A0000E94FC229D838C83113009F456C048F08E
:1047B000123009F463C0133009F476C08C019601FD
:1047C0000AC09601290D311D97FC3A958C010B0DFD
:1047D000111DB7FC1A95AC01B601C7010E949C26B9
:1047E000882369F11E821F82870101591F4F6701CB
:1047F00080E7C80ED11CF8016081CE010E949A2288
:10480000882EF6016081CE010E949A22982E40E007
:10481000682DC7010E942E2341E0692DC7010E9427
:104820002E2361E0CE010E949A228111F0CF8F8168
:104830008B150CF3F701E657FF4F8C8580838A2D8B
:10484000DF91CF911F910F91FF90EF90DF90CF906C
:10485000BF90AF909F908F90089541E050E04B192A
:104860005109B7FC539596012F5F3F4F8C01090DFD
:10487000111D97FC1A95C40ED51EADCF41E050E036
:10488000BA016919710997FC739596012F5F3F4F23
:104890004B195109B7FC53958C010F5F1F4F840FC3
:1048A000951FC60ED71E97CF96012B0D311DB7FC55
:1048B0003A9541E050E04919510997FC53958C0114
:1048C0000F5F1F4F840F951F86CFEF92FF920F93BC
:1048D0001F93CF93DF93FC01E65AFF4F2081318174
:1048E000295E3F4F6F3F710509F048F5613671054C
:1048F000D8F080589F4FFC0180819181280F391F8B
:10490000C9010196FC014491442309F447C0F9010F
:1049100044914617170671F40196DF91CF911F91CC
:104920000F91FF90EF9008956134710548F382581C
:104930009F4FE1CFFC018491280F311DE1CF8B0106
:10494000FC01EE57FF4FC081D181C20FD31F7E0102
:1049500060E0C7010E942C22C80FD91F62E0C70186
:104960000E942C22F4E0EF0EF11C8017910780F3D7
:10497000FE01849190E0982F88273196E4918E2B48
:10498000009761F00817190719F4CE010396C5CFF7
:10499000FE013296E491CE0FD11DEACF90E080E087
:1049A000BCCFCF92DF92EF92FF920F931F93CF93E2
:1049B000DF93EC017B018A016901FC01E459FF4F9F
:1049C0008081813079F118F18230B9F1833009F4B6
:1049D0003FC0FE01E05AFF4FF182E0823296118320
:1049E0000083B601CE010E9465240097E1F1BC016D
:1049F000CE010E948E23082E000C990BDF91CF91DF
:104A00001F910F91FF90EF90DF90CF900895FE01DE
:104A1000E45AFF4F0190F081E02DCE010995080F77
:104A2000191FD7CFFE01E45AFF4F0190F081E02D0E
:104A3000CE010995E81AF90ACCCFFE01E45AFF4FDE
:104A40000190F081E02DCE010995081B190BC1CF13
:104A5000FE01E45AFF4F0190F081E02DCE0109954F
:104A6000E80EF91EB6CF90E080E0C8CFCF93DF9379
:104A7000FC01E65AFF4F20813181232BF1F0B096E3
:104A80002081DC01AA57BF4F2C93319650813C9670
:104A90005083EC01CB57DF4F3881332371F0313035
:104AA00079F42997388123170CF43C9383589F4F4E
:104AB000DC018C9185170CF48083DF91CF910895F0
:104AC000EC01C958DF4F488187589F4FEC0138816E
:104AD000822F220F990B632F032E000C770B640F8C
:104AE000711D47FD7A958617970714F4430F4C9371
:104AF00035171CF73083E1CF845A9F4F28E332E209
:104B0000FC01318320830895CF93DF93FC01E65AA3
:104B1000FF4F208131812617370761F0EC01718347
:104B2000608383599F4F0E943B22CE01DF91CF913A
:104B30000C943625DF91CF9108950F93FC01E05C32
:104B4000FF4F0190F081E02D4E1B5F0BDC01D496EE
:104B5000ED91FC9109950F9108950F93CF93DF93F9
:104B6000E02FDC01AC57BF4FFC91FF2309F460C07C
:104B70002115310509F45CC02230310538F00230CE
:104B800009F04AC06F5F7F4F621B730B0E2F0170DD
:104B9000E0FD52C0FC01E25BFF4F0190F081E02D8F
:104BA0004E175F0708F444C0FC01E05BFF4F019023
:104BB000F081E02D4E175F07D8F5FC01E45BFF4F55
:104BC0000190F081E02DDC01A65BBF4F0D90BC9100
:104BD000A02D260F371F2617370738F56E177F07CA
:104BE00018F59F0121503109A217B30708F56A177C
:104BF0007B0708F4BD012E173F0708F4F901E61BF7
:104C0000F70BEC01AEA9BFA914960D90BC91A02D95
:104C10009F01FD0109950CC0033009F0B7CF4F5F2C
:104C20005F4F421B530BB2CFBD016E177F07E0F2FF
:104C3000DF91CF910F910895FC01E65BFF4F01904A
:104C4000F081E02D6E177F0798F3FC01E45BFF4FC6
:104C50000190F081E02D6E177F0750F7FC01E05BBB
:104C6000FF4F0190F081E02DDC01A25BBF4F0D9062
:104C7000BC91A02D240F351F24173507A8F44E171B
:104C80005F0788F49F0121503109A217B30780F60E
:104C90004A175B0708F4AD012E173F0708F4F90126
:104CA000E41BF50BAECFAD014E175F0708F6EDCF55
:104CB0000F9300E00E94AD250F9108950F93FC0122
:104CC000E25BFF4F2081318142175307B8F03296E3
:104CD000208131814217530788F436972081318132
:104CE0006217730758F0329620813181621773077B
:104CF00028F400E021E030E00E94AD250F910895F6
:104D0000FC01E657FF4F633010F46083089581E0A3
:104D1000808308954617570748F48217930750F089
:104D200081E02417350738F080E008958217930753
:104D3000B8F3FACF81E00895CF92DF92EF92FF921D
:104D40000F931F93CF93DF93EC017B0169019801CF
:104D5000FC01E05BFF4F608171813297808191811E
:104D60000E948A268823A9F0FE01E45BFF4F608140
:104D70007181C65BDF4F9601A70188819981DF9120
:104D8000CF911F910F91FF90EF90DF90CF900C94F7
:104D90008A2680E0DF91CF911F910F91FF90EF90D5
:104DA000DF90CF9008953F924F925F926F927F92E3
:104DB0008F929F92AF92BF92CF92DF92EF92FF922B
:104DC0000F931F93CF93DF932C017B016A01E901BD
:104DD0005B01A21AB30A2617370718F05901A61A61
:104DE000B70A0C151D0560F44601801A910AA81433
:104DF000B90438F1CE15DF0508F448C0312C18C0CD
:104E000048018C189D08A814B90408F065C09A2DB3
:104E10008B2D5401892E982E9C2F8D2FE801092F60
:104E2000182F9E2D8F2D7601C92ED82E3324339422
:104E3000350176946794C016D10690F10FEF1FEFFD
:104E400031C09A2D8B2D5401892E982E9C2D8D2D9D
:104E50006E01C92FD82F9E2D8F2D7801092F182F65
:104E6000E5CFA601B701332011F0A701B601C201B9
:104E70000E945E266818790877FE04C0C00ED11E15
:104E80006A0C7B1C8FEFE81AF80A11C03501769482
:104E9000679468019E2D8F2D7E01C92FD82F312C4C
:104EA00001E010E0CF3FDC0711F4CEEFDFEFCE15CD
:104EB000DF05B8F6DF91CF911F910F91FF90EF9032
:104EC000DF90CF90BF90AF909F908F907F906F902A
:104ED0005F904F903F900895CE15DF0508F08ECF7C
:104EE00035017694679468019E2D8F2D7E01C92F20
:104EF000D82F312CA3CFAF92BF92CF92DF92EF92F7
:104F0000FF920F93CF93DF93EC01DA017901942F95
:104F10009770E1E0F0E09F01092E01C0220F0A9492
:104F2000EAF7522F6E018AE8C80ED11CF601808183
:104F300040E0823018F4422F813049F15D01F8EFF2
:104F4000AF22E8ADF9AD28813981D90150968C9115
:104F50008A9D90018B9D300D1124620F731FDF011C
:104F6000A60FB71F01111AC0EA0EFB1E8C91842BED
:104F700085278D93EA16FB06C9F7DF91CF910F9134
:104F8000FF90EF90DF90CF90BF90AF90089550E0EA
:104F9000D5CF440F550FE114F10479F33C91342B34
:104FA00035273C939F5F9770E1E0EE1AF10891116D
:104FB000F0CF2CAD3DADA20FB31FF6018081823042
:104FC00028F4813009F051E041E0E5CF51E0E3CF32
:104FD000CF93DF93FC01A081B18182AD90E09C0171
:104FE00043E0220F331F4A95E1F737AF26AF5096C3
:104FF0002C91509748E0249F9001112435AF24AFA5
:1050000023AD30E0B90153E0660F771F5A95E1F701
:10501000EF01C05CDF4F7983688351964C915197C3
:10502000E901C80FD91F50E04C175D0718F4CA01F9
:10503000821B930BEF01CE5BDF4F7983688322964F
:1050400023E0880F991F2A95E1F7860F971F998310
:105050008883229654968D919C9155979983888345
:10506000E85BFF4F56968D919C9191838083DF91F1
:10507000CF9108950C94E8270F930E949D250F91DE
:1050800008958F929F92AF92BF92CF92DF92EF924C
:10509000FF920F931F93CF93DF93EC017C0188E580
:1050A000E80EF11CF701008111815E01F4E5AF0EFD
:1050B000B11CF501208131816E01F6E5CF0ED11CC6
:1050C000F601408151814E01F2E58F0E911CF401F1
:1050D00060817181CE010E949C26FE01EC57FF4F3A
:1050E00081110EC01082DF91CF911F910F91FF901F
:1050F000EF90DF90CF90BF90AF909F908F900895EA
:1051000081E08083F40180819181FE01E65BFF4FA5
:10511000208131812817390710F491838083F501AC
:1051200080819181FE01E45BFF4F208131818217F4
:10513000930710F491838083F60180819181FE01B1
:10514000E25BFF4F208131812817390710F49183EA
:105150008083F70180819181C05BDF4F2881398195
:105160008217930708F0BFCF99838883BCCFFC01D7
:10517000E65BFF4F118210823296DC01AA5BBF4FC3
:105180002D913C91119731832083329614972D9164
:105190003C91119731832083329612962D913C9148
:1051A000318320830C944128FC01EE5AFF4F118279
:1051B000108234961182108232972FEF3FEF3183A5
:1051C0002083349631832083DC01D696ED91FC91C7
:1051D0000280F381E02D09940F931F93CF93DF9307
:1051E000EC01FC01E65AFF4F118210823DAB2CAB63
:1051F00079AF68AF4AAF1BAE3F961082B09610826F
:1052000034971082359681E08083319680831FAB7E
:105210000EABD801ED91FC91CE010995CE010E9413
:10522000D428CE010E947C25C459DF4F1882DF911B
:10523000CF911F910F910895662329F06A3019F0DC
:10524000862F90E008958FEF9FEF0895FC01108E58
:1052500008959A01DC011896ED91FC91462F67E1C3
:105260000994CF93DF931F92CDB7DEB76983AE0168
:105270004F5F5F4F61E00E9429290F90DF91CF912E
:105280000895DC011896ED91FC9130E020E040E0BB
:1052900068E10994DC011896ED91FC9130E020E082
:1052A00040E069E10994EF92FF921F93CF93DF935F
:1052B000EC01162F7A010E94412960E4CE010E9480
:1052C0003129E885F9859701412F67E1CE010995DC
:1052D000CE01DF91CF911F91FF90EF900C944A295E
:1052E000462FDC011696ED91FC9130E020E065E15F
:1052F0000994462FDC011696ED91FC9130E020E0F8
:1053000066E109949A01DC011696ED91FC91462F15
:1053100067E10994DC011696ED91FC9130E020E004
:1053200040E068E10994DC011696ED91FC9130E0D3
:1053300020E040E069E10994EF92FF920F931F9300
:10534000CF93DF931F92CDB7DEB77C018B01D801DD
:105350006C91673129F150F46531A0F40F90DF9121
:10536000CF911F910F91FF90EF9008956A3118F13E
:105370006E3FA1F7F8014181498369E2C7010E94AC
:105380006B2B0BC0F80141814983D7011696ED9133
:10539000FC9130E020E0C70109950E5F1F4FD7CF89
:1053A000F80181818983AE014F5F5F4F61E0C701E2
:1053B0000E948229F2CF0F5F1F4FD7011696ED9101
:1053C000FC9130E020E040E0C7010995C0CFEF92AA
:1053D000FF921F93CF93DF93EC01142F7901663175
:1053E00081F138F4643109F44BC0653179F080E023
:1053F00022C06831C9F150F16931C9F780911E04AA
:10540000882391F1CE010E944A292EC080911E046A
:10541000882319F0CE010E944A29CE010E94412919
:1054200060E0CE010E943129612FCE010E94312916
:1054300081E080931E04DF91CF911F91FF90EF9048
:105440000895642F0E94312981E0F5CF80911E04D8
:10545000882319F0CE010E944A29A701193138F496
:10546000612FCE010E94532910921E04EDCF68E1F6
:10547000CE010E945329185188E1E80EF11CEDCFAE
:105480008E898F3F11F488E78E8BE885F985970127
:10549000412F64E1CE01DF91CF911F91FF90EF90FA
:1054A0000994EF92FF920F931F93CF93DF93EC0138
:1054B000042F79016D3009F447C020F46B3099F165
:1054C00080E03BC06E3009F452C06F30C9F70E94D3
:1054D0008A29F7011381110F110F110F6C89160F13
:1054E00060E4CE010E947029612F62956F70606147
:1054F000CE010E947029612F6F70CE010E94792920
:10550000F7016481606BCE010E947929F701408127
:1055100051816281660F660F660FCE010E9482295B
:105520000150A1F72EC061E871E0442311F06CE74F
:1055300071E0CE010E949C2981E0DF91CF911F9103
:105540000F91FF90EF900895411109C065E771E058
:105550000E949C29E881F98182898C8BEDCF6EE6CF
:1055600071E00E949C29E881F9818389F6CF0E942D
:105570008A2961E8CE010E947029602FCE010E9425
:105580007929CE010E949329D7CF1F93CF93DF9320
:10559000EC01162F0E94512A81110CC0193079F0AC
:1055A0001A3049F4CE010E94ED2A66E871E0CE017E
:1055B0000E949C2981E0DF91CF911F91089566E5BB
:1055C00071E0CE010E94E52AF5CFFC017183608372
:1055D000FB012289FC01248B0895CF93DF93EC011A
:1055E000EA85FB8530E020E040E068E20995EE8145
:1055F000FF8130E020E040E064E1CE01099541E028
:105600006BE4CE010E946B2BE881F981448169E251
:10561000CE010E946B2B40E06BE4CE010E946B2B0D
:10562000E881F981448169E2CE010E946B2B41E05F
:105630006BE4CE010E946B2BE881F981458169E220
:10564000CE01DF91CF910C946B2B0F931F93CF93CF
:10565000DF9300D000D01F92CDB7DEB76C834D83AF
:105660002B831A830983DC011496ED91FC919E0132
:105670002F5F3F4F41E06FE009950F900F900F9023
:105680000F900F90DF91CF911F910F910895DC0142
:105690001496ED91FC9130E020E040E069E009943F
:1056A000DC011496ED91FC9130E020E040E06AE0EE
:1056B0000994462FDC011496ED91FC9130E020E036
:1056C0006BE00994DC011496ED91FC9130E020E050
:1056D00040E060E10994DC011A96ED91FC9130E024
:1056E00020E0099480E00895FC011182108282E795
:1056F0009BE29583848397838683918780879387B2
:105700008287158A108E14861586168617868FEF67
:10571000868B828FDF015E96F4968D93AE17BF075E
:10572000E1F70895AF92BF92CF92DF92EF92FF928E
:105730000F931F93CF93DF93EC015B016A01790113
:105740000E94742BBD82AC82DF82CE82F986E8860D
:105750001B870A87CE01DF91CF911F910F91FF9098
:10576000EF90DF90CF90BF90AF900C94472BCF93EA
:10577000DF931F92CDB7DEB7FC0169838789882349
:10578000F9F02689848595852817190654F081E05B
:1057900090E09383828390E080E00F90DF91CF913F
:1057A00008958981A58923893489A20FB32FB11D5A
:1057B0008C9385898F5F858B868B81E090E0EDCF20
:1057C00000A4F1A5E02D61E0CE0101960995F5CF89
:1057D000FC0181899089891B990B0895FC019089AE
:1057E00081892FEF3FEF981740F4A685B785A90F61
:1057F000B11D2C9130E09F5F908BC9010895DC01B1
:105800005096EC91509751968C915197E81748F427
:105810001E968D919C91E80FF92FF11D808190E0EB
:1058200008958FEF9FEF08950895CF92DF92EF9242
:10583000FF920F931F93CF93DF938C01CB017A01DB
:10584000D80157962C915797222389F0EB016B01D1
:10585000C40ED51ECC15DD0579F06991D801ED9106
:10586000FC910190F081E02DC8010995F3CF989645
:10587000ED91FC91642F0995C701DF91CF911F91A4
:105880000F91FF90EF90DF90CF9008952F923F926D
:105890004F925F926F927F928F929F92AF92BF9240
:1058A000CF92DF92EF92FF920F931F93CF93DF93EC
:1058B000CDB7DEB760970FB6F894DEBF0FBECDBF91
:1058C0003C012B015A8349833C832B838DA19EA1EC
:1058D0009E838D83EFA1F8A5F887EF8389A59AA50C
:1058E0009A878987EBA5FCA5FC87EB872DA43EA4AE
:1058F0008FA598A99E878D87E9A9FAA9F88BEF87CC
:10590000F3011382128288EE93E0A0E0B0E084837A
:105910009583A683B7838FEB91E09183808375870E
:105920006487CB010E94D736F30197878687108A58
:10593000118A128AC2010E94D736F301948B838B9D
:10594000158A168A178A89819A81958F848F8B810F
:105950009C81978F868F11A300A3F3A2E2A2D5A208
:10596000C4A2B7A2A6A291A680A68D819E8193A76C
:1059700082A78F81988595A784A789859A8597A7FF
:1059800086A7C101EB85FC8509958F859889ED85F2
:10599000FE8560960FB6F894DEBF0FBECDBFDF91D7
:1059A000CF911F910F91FF90EF90DF90CF90BF901C
:1059B000AF909F908F907F906F905F904F903F90AF
:1059C0002F900994CF93DF93EC018FEB91E09983B3
:1059D000888361E070E08E859F850E94D93661E002
:1059E00070E08B899C89DF91CF910C94D936FC01B2
:1059F000108A118A158A168A048CF58DE02D099477
:105A0000DC019296ED91FC91CB01BA010994FC0165
:105A100081E0878B628B158A168A08950F93CF9346
:105A2000DF93EC018B899C89EEA1FFA1062F21E079
:105A30004E89BC018A8909951D8A1E8A1F8ADF91B9
:105A4000CF910F91089561E00C940E2DFC01CA01D5
:105A5000228D338D232BD9F0308921893217B8F06C
:105A600020E0422F50E0481759075CF4DB01A40FF7
:105A7000B51F3C91A685B785A40FB51F3C932F5F3A
:105A8000F0CF108A818B028CF38DE02D099408955C
:105A9000AB01BC018FE194E00C94262DDC015896FB
:105AA000ED91FC915997309731F055961C9255978E
:105AB00056961C92099408958FE194E00C944E2D13
:105AC0008F929F92AF92BF92CF92DF92EF92FF920E
:105AD0000F931F938CE59DE29F938F9386EC9EE23C
